Microchip MPLAB XC8 Compiler V2.36

Linker command line:

-W-3 --edf=C:\Program Files\Microchip\xc8\v2.36\pic\dat\en_msgs.txt -cn \
  -h+dist/default/debug\toycar2022.X.debug.sym \
  --cmf=dist/default/debug\toycar2022.X.debug.cmf -z -Q16F18325 \
  -oC:\Users\anis\AppData\Local\Temp\xcAsd18.4 --defsym=__MPLAB_BUILD=1 \
  -Mdist/default/debug/toycar2022.X.debug.map \
  --md=C:\Users\anis\AppData\Local\Temp\xcAsd18.dat -E1 -ver=XC8 Compiler \
  --acfsm=1493 -ACODE=00h-07FFhx4 -ASTRCODE=00h-01FFFh -ASTRING=00h-0FFhx32 \
  -ACONST=00h-0FFhx32 -AENTRY=00h-0FFhx32 -ACOMMON=070h-07Fh \
  -ABANK0=020h-06Fh -ABANK1=0A0h-0EFh -ABANK2=0120h-016Fh \
  -ABANK3=01A0h-01EFh -ABANK4=0220h-026Fh -ABANK5=02A0h-02EFh \
  -ABANK6=0320h-036Fh -ABANK7=03A0h-03EFh -ABANK8=0420h-046Fh \
  -ABANK9=04A0h-04EFh -ABANK10=0520h-056Fh -ABANK11=05A0h-05EFh \
  -ABANK12=0620h-064Fh -ABIGRAM=02000h-023EFh \
  -ARAM=020h-06Fh,0A0h-0EFh,0120h-016Fh,01A0h-01EFh,0220h-026Fh,02A0h-02EFh,0320h-036Fh,03A0h-03EFh,0420h-046Fh,04A0h-04EFh,0520h-056Fh,05A0h-05EFh,0620h-064Fh \
  -AABS1=020h-07Fh,0A0h-0EFh,0120h-016Fh,01A0h-01EFh,0220h-026Fh,02A0h-02EFh,0320h-036Fh,03A0h-03EFh,0420h-046Fh,04A0h-04EFh,0520h-056Fh,05A0h-05EFh,0620h-064Fh \
  -ASFR0=00h-01Fh -ASFR1=080h-09Fh -ASFR2=0100h-011Fh -ASFR3=0180h-019Fh \
  -ASFR4=0200h-021Fh -ASFR5=0280h-029Fh -ASFR6=0300h-031Fh \
  -ASFR7=0380h-039Fh -ASFR8=0400h-041Fh -ASFR9=0480h-049Fh \
  -ASFR10=0500h-051Fh -ASFR11=0580h-059Fh -ASFR12=0600h-061Fh \
  -ASFR13=0680h-06EFh -ASFR14=0700h-076Fh -ASFR15=0780h-07EFh \
  -ASFR16=0800h-086Fh -ASFR17=0880h-08EFh -ASFR18=0900h-096Fh \
  -ASFR19=0980h-09EFh -ASFR20=0A00h-0A6Fh -ASFR21=0A80h-0AEFh \
  -ASFR22=0B00h-0B6Fh -ASFR23=0B80h-0BEFh -ASFR24=0C00h-0C6Fh \
  -ASFR25=0C80h-0CEFh -ASFR26=0D00h-0D6Fh -ASFR27=0D80h-0DEFh \
  -ASFR28=0E00h-0E6Fh -ASFR29=0E80h-0EEFh -ASFR30=0F00h-0F6Fh \
  -ASFR31=0F80h-0FEFh -ACONFIG=08007h-0800Ah -DCONFIG=2 \
  -AIDLOC=08000h-08003h -DIDLOC=2 -AEEDATA=00h-0FFh/0F000h \
  -peeprom_data=EEDATA -DEEDATA=2 -DCODE=2 -DSTRCODE=2 -DSTRING=2 -DCONST=2 \
  -DENTRY=2 -preset_vec=00h,intentry=04h,init,end_init -ppowerup=CODE \
  -pcinit=CODE -pfunctab=ENTRY -k \
  C:\Users\anis\AppData\Local\Temp\xcAsd18.o \
  dist/default/debug\toycar2022.X.debug.o 

Object code version is 3.11

Machine type is 16F18325



                Name                               Link     Load   Length Selector   Space Scale
C:\Users\anis\AppData\Local\Temp\xcAsd18.o
                end_init                             15       15        2        8       0
                reset_vec                             0        0        3        0       0
                config                             8007     8007        4        0       4
                idloc                              8000     8000        4        0       5
dist/default/debug\toycar2022.X.debug.o
                cinit                                17       17       13        8       0
                intentry                              4        4       11        8       0
                config                             8007     8007        4        0       4
                idloc                              8000     8000        4        0       5
                text92                             1759     1759        4     2EB2       0
                text91                              849      849        F     1092       0
                text90                             17D0     17D0        9     2FA0       0
                text88                             17D9     17D9        9     2FB2       0
                text87                             17E2     17E2        9     2FC4       0
                text86                             17A0     17A0        6     2F40       0
                text85                              B0E      B0E       3B     161C       0
                text84                             17B8     17B8        8     2F70       0
                text83                             17F4     17F4        C     2FE8       0
                text82                              7F4      7F4        C        8       0
                text81                             17C0     17C0        8     2F80       0
                text80                             175D     175D        4     2EBA       0
                text79                              923      923       19     1246       0
                text78                             173E     173E        3     2E7C       0
                text77                             1741     1741        3     2E82       0
                text76                             1744     1744        3     2E88       0
                text75                              957      957       1C     12AE       0
                text74                             1747     1747        3     2E8E       0
                text73                             174A     174A        3     2E94       0
                text72                             174D     174D        3     2E9A       0
                text71                              858      858        F     10B0       0
                text70                              996      996       26     132C       0
                text69                              807      807        D     100E       0
                text68                              889      889       16     1112       0
                text67                              89F      89F       16     113E       0
                text66                              8B5      8B5       16     116A       0
                text65                              8CB      8CB       16     1196       0
                text64                              8E1      8E1       16     11C2       0
                text63                              93C      93C       1B     1278       0
                text62                             173A     173A        2     2E74       0
                text61                             173C     173C        2     2E78       0
                text60                             1750     1750        3     2EA0       0
                text59                             1761     1761        4     2EC2       0
                text58                             1753     1753        3     2EA6       0
                text57                             1765     1765        4     2ECA       0
                text56                             1769     1769        5     2ED2       0
                text55                             17A6     17A6        6     2F4C       0
                text54                             1756     1756        3     2EAC       0
                text53                              A43      A43       2F     1486       0
                text52                             176E     176E        5     2EDC       0
                text51                             17EB     17EB        9     2FD6       0
                text50                             17C8     17C8        8     2F90       0
                text49                              E1E      E1E       58     1C3C       0
                text48                              C08      C08       47     1810       0
                text47                              800      800        7        8       0
                text46                             1773     1773        5     2EE6       0
                text45                             1778     1778        5     2EF0       0
                text44                             177D     177D        5     2EFA       0
                text43                             1782     1782        5     2F04       0
                text42                             1787     1787        5     2F0E       0
                text41                             178C     178C        5     2F18       0
                text40                             1791     1791        5     2F22       0
                text39                             1796     1796        5     2F2C       0
                text38                              9BC      9BC       2C     1378       0
                text37                              A15      A15       2E     142A       0
                text36                             17AC     17AC        6     2F58       0
                text35                              814      814        D     1028       0
                text34                              973      973       23     12E6       0
                text33                             179B     179B        5     2F36       0
                text32                              821      821        D     1042       0
                text31                              AD4      AD4       3A     15A8       0
                text30                              82E      82E        D     105C       0
                text29                              C96      C96       49     192C       0
                text28                              E76      E76       5A     1CEC       0
                text27                              ED0      ED0       5A     1DA0       0
                text26                              AA1      AA1       33     1542       0
                text25                              F8A      F8A       76     1F14       0
                text24                              A72      A72       2F     14E4       0
                text23                              D29      D29       4C     1A52       0
                text22                              6A2      6A2       77        8       0
                text21                              F2A      F2A       60     1E54       0
                text20                              C4F      C4F       47     189E       0
                text19                              DC7      DC7       57     1B8E       0
                text18                              CDF      CDF       4A     19BE       0
                text17                              BC4      BC4       44     1788       0
                text16                              33D      33D      161        8       0
                text15                              1D2      1D2      16B        8       0
                text14                               2A       2A      1A8        8       0
                text13                              49E      49E       C3        8       0
                text12                              9E8      9E8       2D     13D0       0
                text11                              B49      B49       3C     1692       0
                text10                              561      561       B3        8       0
                text9                               D75      D75       52     1AEA       0
                text8                               876      876       13     10EC       0
                text7                               78F      78F       65        8       0
                text6                               614      614       8E        8       0
                text5                               B85      B85       3F     170A       0
                text4                               8F7      8F7       16     11EE       0
                text3                               90D      90D       16     121A       0
                text2                               867      867        F     10CE       0
                text1                               83B      83B        E     1076       0
                maintext                            719      719       76        8       0
                cstackBANK0                          20       20       50       20       1
                cstackCOMMON                         70       70        E       70       1
                cstackBANK1                          E7       E7        7       A0       1
                clrtext                            17B2     17B2        6     2F64       0
                bssBANK2                            120      120        6      120       1
                bssBANK1                             A0       A0       47       A0       1
                stringtext19                       180B     180B        A     3000       0
                stringtext18                       1800     1800        B     3000       0
                stringtext17                       10D5     10D5        C     2000       0
                stringtext16                       10C7     10C7        E     2000       0
                stringtext15                       10B8     10B8        F     2000       0
                stringtext14                       10A9     10A9        F     2000       0
                stringtext13                       1098     1098       11     2000       0
                stringtext12                       1086     1086       12     2000       0
                stringtext11                       1073     1073       13     2000       0
                stringtext10                       105F     105F       14     2000       0
                stringtext9                        1040     1040       1F     2000       0
                stringtext8                        1020     1020       20     2000       0
                nvBANK2                             126      126        4      120       1
                nvBANK1                              EE       EE        1       A0       1
                stringtext7                        1825     1825        2     3000       0
                stringtext6                        1823     1823        2     3000       0
                stringtext5                        1821     1821        2     3000       0
                stringtext4                        181D     181D        4     3000       0
                stringtext3                        1819     1819        4     3000       0
                stringtext2                        1815     1815        4     3000       0
                stringtext1                        1000     1000       20     2000       0

TOTAL           Name                               Link     Load   Length     Space
        CLASS   CODE           
                end_init                             15       15        2         0
                cinit                                17       17       13         0
                intentry                              4        4       11         0
                reset_vec                             0        0        3         0
                text92                             1759     1759        4         0
                text91                              849      849        F         0
                text90                             17D0     17D0        9         0
                text88                             17D9     17D9        9         0
                text87                             17E2     17E2        9         0
                text86                             17A0     17A0        6         0
                text85                              B0E      B0E       3B         0
                text84                             17B8     17B8        8         0
                text83                             17F4     17F4        C         0
                text82                              7F4      7F4        C         0
                text81                             17C0     17C0        8         0
                text80                             175D     175D        4         0
                text79                              923      923       19         0
                text78                             173E     173E        3         0
                text77                             1741     1741        3         0
                text76                             1744     1744        3         0
                text75                              957      957       1C         0
                text74                             1747     1747        3         0
                text73                             174A     174A        3         0
                text72                             174D     174D        3         0
                text71                              858      858        F         0
                text70                              996      996       26         0
                text69                              807      807        D         0
                text68                              889      889       16         0
                text67                              89F      89F       16         0
                text66                              8B5      8B5       16         0
                text65                              8CB      8CB       16         0
                text64                              8E1      8E1       16         0
                text63                              93C      93C       1B         0
                text62                             173A     173A        2         0
                text61                             173C     173C        2         0
                text60                             1750     1750        3         0
                text59                             1761     1761        4         0
                text58                             1753     1753        3         0
                text57                             1765     1765        4         0
                text56                             1769     1769        5         0
                text55                             17A6     17A6        6         0
                text54                             1756     1756        3         0
                text53                              A43      A43       2F         0
                text52                             176E     176E        5         0
                text51                             17EB     17EB        9         0
                text50                             17C8     17C8        8         0
                text49                              E1E      E1E       58         0
                text48                              C08      C08       47         0
                text47                              800      800        7         0
                text46                             1773     1773        5         0
                text45                             1778     1778        5         0
                text44                             177D     177D        5         0
                text43                             1782     1782        5         0
                text42                             1787     1787        5         0
                text41                             178C     178C        5         0
                text40                             1791     1791        5         0
                text39                             1796     1796        5         0
                text38                              9BC      9BC       2C         0
                text37                              A15      A15       2E         0
                text36                             17AC     17AC        6         0
                text35                              814      814        D         0
                text34                              973      973       23         0
                text33                             179B     179B        5         0
                text32                              821      821        D         0
                text31                              AD4      AD4       3A         0
                text30                              82E      82E        D         0
                text29                              C96      C96       49         0
                text28                              E76      E76       5A         0
                text27                              ED0      ED0       5A         0
                text26                              AA1      AA1       33         0
                text25                              F8A      F8A       76         0
                text24                              A72      A72       2F         0
                text23                              D29      D29       4C         0
                text22                              6A2      6A2       77         0
                text21                              F2A      F2A       60         0
                text20                              C4F      C4F       47         0
                text19                              DC7      DC7       57         0
                text18                              CDF      CDF       4A         0
                text17                              BC4      BC4       44         0
                text16                              33D      33D      161         0
                text15                              1D2      1D2      16B         0
                text14                               2A       2A      1A8         0
                text13                              49E      49E       C3         0
                text12                              9E8      9E8       2D         0
                text11                              B49      B49       3C         0
                text10                              561      561       B3         0
                text9                               D75      D75       52         0
                text8                               876      876       13         0
                text7                               78F      78F       65         0
                text6                               614      614       8E         0
                text5                               B85      B85       3F         0
                text4                               8F7      8F7       16         0
                text3                               90D      90D       16         0
                text2                               867      867        F         0
                text1                               83B      83B        E         0
                maintext                            719      719       76         0
                clrtext                            17B2     17B2        6         0

        CLASS   STRCODE        
                stringtext19                       180B     180B        A         0
                stringtext18                       1800     1800        B         0
                stringtext17                       10D5     10D5        C         0
                stringtext16                       10C7     10C7        E         0
                stringtext15                       10B8     10B8        F         0
                stringtext14                       10A9     10A9        F         0
                stringtext13                       1098     1098       11         0
                stringtext12                       1086     1086       12         0
                stringtext11                       1073     1073       13         0
                stringtext10                       105F     105F       14         0
                stringtext9                        1040     1040       1F         0
                stringtext8                        1020     1020       20         0
                stringtext7                        1825     1825        2         0
                stringtext6                        1823     1823        2         0
                stringtext5                        1821     1821        2         0
                stringtext4                        181D     181D        4         0
                stringtext3                        1819     1819        4         0
                stringtext2                        1815     1815        4         0
                stringtext1                        1000     1000       20         0

        CLASS   STRING         

        CLASS   CONST          

        CLASS   ENTRY          

        CLASS   COMMON         
                cstackCOMMON                         70       70        E         1

        CLASS   BANK0          
                cstackBANK0                          20       20       50         1

        CLASS   BANK1          
                cstackBANK1                          E7       E7        7         1
                bssBANK1                             A0       A0       47         1
                nvBANK1                              EE       EE        1         1

        CLASS   BANK2          
                bssBANK2                            120      120        6         1
                nvBANK2                             126      126        4         1

        CLASS   BANK3          

        CLASS   BANK4          

        CLASS   BANK5          

        CLASS   BANK6          

        CLASS   BANK7          

        CLASS   BANK8          

        CLASS   BANK9          

        CLASS   BANK10         

        CLASS   BANK11         

        CLASS   BANK12         

        CLASS   BIGRAM         

        CLASS   RAM            

        CLASS   ABS1           
                abs_s1                               7E       7E        2         1

        CLASS   SFR0           

        CLASS   SFR1           

        CLASS   SFR2           

        CLASS   SFR3           

        CLASS   SFR4           

        CLASS   SFR5           

        CLASS   SFR6           

        CLASS   SFR7           

        CLASS   SFR8           

        CLASS   SFR9           

        CLASS   SFR10          

        CLASS   SFR11          

        CLASS   SFR12          

        CLASS   SFR13          

        CLASS   SFR14          

        CLASS   SFR15          

        CLASS   SFR16          

        CLASS   SFR17          

        CLASS   SFR18          

        CLASS   SFR19          

        CLASS   SFR20          

        CLASS   SFR21          

        CLASS   SFR22          

        CLASS   SFR23          

        CLASS   SFR24          

        CLASS   SFR25          

        CLASS   SFR26          

        CLASS   SFR27          

        CLASS   SFR28          

        CLASS   SFR29          

        CLASS   SFR30          

        CLASS   SFR31          

        CLASS   CONFIG         
                config                             8007     8007        4         4

        CLASS   IDLOC          
                idloc                              8000     8000        4         5

        CLASS   EEDATA         

        CLASS   BANK31         

        CLASS   BANK30         

        CLASS   BANK29         

        CLASS   BANK28         

        CLASS   BANK27         

        CLASS   BANK26         

        CLASS   BANK25         

        CLASS   BANK24         

        CLASS   BANK23         

        CLASS   BANK22         

        CLASS   BANK21         

        CLASS   BANK20         

        CLASS   BANK19         

        CLASS   BANK18         

        CLASS   BANK17         

        CLASS   BANK16         

        CLASS   BANK15         

        CLASS   BANK14         

        CLASS   BANK13         

        CLASS   HEAP           

        CLASS   STACK          



SEGMENTS        Name                           Load    Length   Top    Selector   Space  Class     Delta

                reset_vec                      000000  000003  000003         0       0  CODE        2
                intentry                       000004  000803  000807         8       0  CODE        2
                cstackBANK0                    000020  000050  000070        20       1  BANK0       1
                cstackCOMMON                   000070  00000E  00007E        70       1  COMMON      1
                bssBANK1                       0000A0  00004F  0000EF        A0       1  BANK1       1
                bssBANK2                       000120  00000A  00012A       120       1  BANK2       1
                text69                         000807  00000D  000814      100E       0  CODE        2
                text35                         000814  00000D  000821      1028       0  CODE        2
                text32                         000821  00000D  00082E      1042       0  CODE        2
                text30                         00082E  00000D  00083B      105C       0  CODE        2
                text1                          00083B  00000E  000849      1076       0  CODE        2
                text91                         000849  00000F  000858      1092       0  CODE        2
                text71                         000858  00000F  000867      10B0       0  CODE        2
                text2                          000867  00000F  000876      10CE       0  CODE        2
                text8                          000876  000013  000889      10EC       0  CODE        2
                text68                         000889  000016  00089F      1112       0  CODE        2
                text67                         00089F  000016  0008B5      113E       0  CODE        2
                text66                         0008B5  000016  0008CB      116A       0  CODE        2
                text65                         0008CB  000016  0008E1      1196       0  CODE        2
                text64                         0008E1  000016  0008F7      11C2       0  CODE        2
                text4                          0008F7  000016  00090D      11EE       0  CODE        2
                text3                          00090D  000016  000923      121A       0  CODE        2
                text79                         000923  000019  00093C      1246       0  CODE        2
                text63                         00093C  00001B  000957      1278       0  CODE        2
                text75                         000957  00001C  000973      12AE       0  CODE        2
                text34                         000973  000023  000996      12E6       0  CODE        2
                text70                         000996  000026  0009BC      132C       0  CODE        2
                text38                         0009BC  00002C  0009E8      1378       0  CODE        2
                text12                         0009E8  00002D  000A15      13D0       0  CODE        2
                text37                         000A15  00002E  000A43      142A       0  CODE        2
                text53                         000A43  00002F  000A72      1486       0  CODE        2
                text24                         000A72  00002F  000AA1      14E4       0  CODE        2
                text26                         000AA1  000033  000AD4      1542       0  CODE        2
                text31                         000AD4  00003A  000B0E      15A8       0  CODE        2
                text85                         000B0E  00003B  000B49      161C       0  CODE        2
                text11                         000B49  00003C  000B85      1692       0  CODE        2
                text5                          000B85  00003F  000BC4      170A       0  CODE        2
                text17                         000BC4  000044  000C08      1788       0  CODE        2
                text48                         000C08  000047  000C4F      1810       0  CODE        2
                text20                         000C4F  000047  000C96      189E       0  CODE        2
                text29                         000C96  000049  000CDF      192C       0  CODE        2
                text18                         000CDF  00004A  000D29      19BE       0  CODE        2
                text23                         000D29  00004C  000D75      1A52       0  CODE        2
                text9                          000D75  000052  000DC7      1AEA       0  CODE        2
                text19                         000DC7  000057  000E1E      1B8E       0  CODE        2
                text49                         000E1E  000058  000E76      1C3C       0  CODE        2
                text28                         000E76  00005A  000ED0      1CEC       0  CODE        2
                text27                         000ED0  00005A  000F2A      1DA0       0  CODE        2
                text21                         000F2A  000060  000F8A      1E54       0  CODE        2
                text25                         000F8A  000076  001000      1F14       0  CODE        2
                stringtext1                    001000  0000E1  0010E1      2000       0  STRCODE     2
                text62                         00173A  000002  00173C      2E74       0  CODE        2
                text61                         00173C  000002  00173E      2E78       0  CODE        2
                text78                         00173E  000003  001741      2E7C       0  CODE        2
                text77                         001741  000003  001744      2E82       0  CODE        2
                text76                         001744  000003  001747      2E88       0  CODE        2
                text74                         001747  000003  00174A      2E8E       0  CODE        2
                text73                         00174A  000003  00174D      2E94       0  CODE        2
                text72                         00174D  000003  001750      2E9A       0  CODE        2
                text60                         001750  000003  001753      2EA0       0  CODE        2
                text58                         001753  000003  001756      2EA6       0  CODE        2
                text54                         001756  000003  001759      2EAC       0  CODE        2
                text92                         001759  000004  00175D      2EB2       0  CODE        2
                text80                         00175D  000004  001761      2EBA       0  CODE        2
                text59                         001761  000004  001765      2EC2       0  CODE        2
                text57                         001765  000004  001769      2ECA       0  CODE        2
                text56                         001769  000005  00176E      2ED2       0  CODE        2
                text52                         00176E  000005  001773      2EDC       0  CODE        2
                text46                         001773  000005  001778      2EE6       0  CODE        2
                text45                         001778  000005  00177D      2EF0       0  CODE        2
                text44                         00177D  000005  001782      2EFA       0  CODE        2
                text43                         001782  000005  001787      2F04       0  CODE        2
                text42                         001787  000005  00178C      2F0E       0  CODE        2
                text41                         00178C  000005  001791      2F18       0  CODE        2
                text40                         001791  000005  001796      2F22       0  CODE        2
                text39                         001796  000005  00179B      2F2C       0  CODE        2
                text33                         00179B  000005  0017A0      2F36       0  CODE        2
                text86                         0017A0  000006  0017A6      2F40       0  CODE        2
                text55                         0017A6  000006  0017AC      2F4C       0  CODE        2
                text36                         0017AC  000006  0017B2      2F58       0  CODE        2
                clrtext                        0017B2  000006  0017B8      2F64       0  CODE        2
                text84                         0017B8  000008  0017C0      2F70       0  CODE        2
                text81                         0017C0  000008  0017C8      2F80       0  CODE        2
                text50                         0017C8  000008  0017D0      2F90       0  CODE        2
                text90                         0017D0  000009  0017D9      2FA0       0  CODE        2
                text88                         0017D9  000009  0017E2      2FB2       0  CODE        2
                text87                         0017E2  000009  0017EB      2FC4       0  CODE        2
                text51                         0017EB  000009  0017F4      2FD6       0  CODE        2
                text83                         0017F4  00000C  001800      2FE8       0  CODE        2
                stringtext18                   001800  000027  001827      3000       0  STRCODE     2


UNUSED ADDRESS RANGES

        Name                Unused          Largest block    Delta
        BANK1            000EF-000EF               1           1
        BANK10           00520-0056F              50           1
        BANK11           005A0-005EF              50           1
        BANK12           00620-0064F              30           1
        BANK2            0012A-0016F              46           1
        BANK3            001A0-001EF              50           1
        BANK4            00220-0026F              50           1
        BANK5            002A0-002EF              50           1
        BANK6            00320-0036F              50           1
        BANK7            003A0-003EF              50           1
        BANK8            00420-0046F              50           1
        BANK9            004A0-004EF              50           1
        BIGRAM           02000-023EF             3F0           1
        CODE             00003-00003               1           2
                         010E1-01739             659
                         01827-01FFF             7D9
        CONST            00003-00003               1           2
                         010E1-01739             100
                         01827-01FFF             100
        EEDATA           0F000-0F0FF             100           2
        ENTRY            00003-00003               1           2
                         010E1-01739             100
                         01827-01FFF             100
        RAM              000EF-000EF               1           1
                         0012A-0016F              46
                         001A0-001EF              50
                         00220-0026F              50
                         002A0-002EF              50
                         00320-0036F              50
                         003A0-003EF              50
                         00420-0046F              50
                         004A0-004EF              50
                         00520-0056F              50
                         005A0-005EF              50
                         00620-0064F              30
        SFR0             00000-0001F              20           1
        SFR1             00080-0009F              20           1
        SFR10            00500-0051F              20           1
        SFR11            00580-0059F              20           1
        SFR12            00600-0061F              20           1
        SFR13            00680-006EF              70           1
        SFR14            00700-0076F              70           1
        SFR15            00780-007EF              70           1
        SFR16            00800-0086F              70           1
        SFR17            00880-008EF              70           1
        SFR18            00900-0096F              70           1
        SFR19            00980-009EF              70           1
        SFR2             00100-0011F              20           1
        SFR20            00A00-00A6F              70           1
        SFR21            00A80-00AEF              70           1
        SFR22            00B00-00B6F              70           1
        SFR23            00B80-00BEF              70           1
        SFR24            00C00-00C6F              70           1
        SFR25            00C80-00CEF              70           1
        SFR26            00D00-00D6F              70           1
        SFR27            00D80-00DEF              70           1
        SFR28            00E00-00E6F              70           1
        SFR29            00E80-00EEF              70           1
        SFR3             00180-0019F              20           1
        SFR30            00F00-00F6F              70           1
        SFR31            00F80-00FEF              70           1
        SFR4             00200-0021F              20           1
        SFR5             00280-0029F              20           1
        SFR6             00300-0031F              20           1
        SFR7             00380-0039F              20           1
        SFR8             00400-0041F              20           1
        SFR9             00480-0049F              20           1
        STRCODE          00003-00003               1           2
                         010E1-01739             659
                         01827-01FFF             7D9
        STRING           00003-00003               1           2
                         010E1-01739             100
                         01827-01FFF             100

                                  Symbol Table

?_I2C1_Read2ByteRegister                                   cstackBANK0  00025
?_VL53L1X_calcMacroPeriod                                  cstackBANK0  00020
?_VL53L1X_decodeTimeout                                    cstackBANK0  0002E
?_VL53L1X_encodeTimeout                                    cstackBANK0  00030
?_VL53L1X_getMeasurementTimingBudget                       cstackBANK0  0005C
?_VL53L1X_read                                             cstackBANK0  00036
?_VL53L1X_timeoutMclksToMicroseconds                       cstackBANK0  0003C
?_VL53L1X_timeoutMicrosecondsToMclks                       cstackBANK0  00020
?___lldiv                                                  cstackCOMMON 00070
?___lmul                                                   cstackCOMMON 00070
?___lwdiv                                                  cstackCOMMON 00070
?___omul                                                   cstackBANK0  00020
?_get_distance_to_wall                                     cstackBANK0  0003C
I2C1_CallbackReturnReset@funPtr                            cstackCOMMON 00079
I2C1_Close@returnValue                                     cstackCOMMON 00071
I2C1_MasterOperation@read                                  cstackBANK0  00023
I2C1_MasterOperation@returnValue                           cstackBANK0  00024
I2C1_MasterSendTxData@data                                 cstackCOMMON 00070
I2C1_Open@address                                          cstackCOMMON 00071
I2C1_Open@returnValue                                      cstackCOMMON 00072
I2C1_Read1ByteRegister@address                             cstackBANK0  0002B
I2C1_Read1ByteRegister@reg                                 cstackBANK0  00025
I2C1_Read1ByteRegister@returnValue                         cstackBANK0  0002C
I2C1_Read2ByteRegister@address                             cstackBANK0  0002B
I2C1_Read2ByteRegister@reg                                 cstackBANK0  00025
I2C1_Read2ByteRegister@returnValue                         cstackBANK0  0002C
I2C1_ReadDataBlock@address                                 cstackBANK0  0002E
I2C1_ReadDataBlock@bufferBlock                             cstackBANK0  0002F
I2C1_ReadDataBlock@data_addr                               cstackBANK0  00027
I2C1_ReadDataBlock@len                                     cstackBANK0  00028
I2C1_ReadDataBlock@reg                                     cstackBANK0  00025
I2C1_SetAddressNackCallback@cb                             cstackCOMMON 00075
I2C1_SetAddressNackCallback@ptr                            cstackCOMMON 00077
I2C1_SetBuffer@buffer                                      cstackCOMMON 00070
I2C1_SetBuffer@bufferSize                                  cstackCOMMON 00072
I2C1_SetCallback@cb                                        cstackCOMMON 00070
I2C1_SetCallback@idx                                       cstackCOMMON 00074
I2C1_SetCallback@ptr                                       cstackCOMMON 00072
I2C1_SetDataCompleteCallback@cb                            cstackCOMMON 00075
I2C1_SetDataCompleteCallback@ptr                           cstackCOMMON 00077
I2C1_Write1ByteRegister@address                            cstackBANK0  00034
I2C1_Write1ByteRegister@data                               cstackBANK0  0002F
I2C1_Write1ByteRegister@reg                                cstackBANK0  0002D
I2C1_Write2ByteRegister@address                            cstackBANK0  00046
I2C1_Write2ByteRegister@data                               cstackBANK0  00040
I2C1_Write2ByteRegister@reg                                cstackBANK0  0003E
I2C1_Write4ByteRegister@address                            cstackBANK0  00043
I2C1_Write4ByteRegister@data                               cstackBANK0  00027
I2C1_Write4ByteRegister@reg                                cstackBANK0  00025
IOCCF4_SetInterruptHandler@InterruptHandler                cstackCOMMON 00070
PWM5_LoadDutyValue@dutyValue                               cstackCOMMON 00070
PWM6_LoadDutyValue@dutyValue                               cstackCOMMON 00070
VL53L1X_calcMacroPeriod@macro_period_us                    cstackBANK0  0002E
VL53L1X_calcMacroPeriod@pll_period_us                      cstackBANK0  00028
VL53L1X_calcMacroPeriod@vcsel_period                       cstackBANK0  0002C
VL53L1X_calcMacroPeriod@vcsel_period_pclks                 cstackBANK0  0002D
VL53L1X_decodeTimeout@reg_val                              cstackBANK0  0002E
VL53L1X_encodeTimeout@ls_byte                              cstackBANK0  0003A
VL53L1X_encodeTimeout@ms_byte                              cstackBANK0  00038
VL53L1X_encodeTimeout@timeout_mclks                        cstackBANK0  00030
VL53L1X_getMeasurementTimingBudget@macro_period_us         cstackBANK0  00064
VL53L1X_getMeasurementTimingBudget@range_config_timeout_us cstackBANK0  00068
VL53L1X_getRangingData@range                               cstackCOMMON 0007C
VL53L1X_setDistanceMode@budget_us                          cstackBANK1  000E7
VL53L1X_setDistanceMode@mode                               cstackBANK1  000EB
VL53L1X_setMeasurementTimingBudget@budget_us               cstackBANK0  00047
VL53L1X_setMeasurementTimingBudget@macro_period_us         cstackBANK0  00057
VL53L1X_setMeasurementTimingBudget@phasecal_timeout_mclks  cstackBANK0  0004F
VL53L1X_setMeasurementTimingBudget@range_config_timeout_us cstackBANK0  00053
VL53L1X_startContinuous@period_ms                          cstackBANK0  00044
VL53L1X_timeoutMclksToMicroseconds@macro_period_us         cstackBANK0  00040
VL53L1X_timeoutMclksToMicroseconds@timeout_mclks           cstackBANK0  0003C
VL53L1X_timeoutMicrosecondsToMclks@macro_period_us         cstackBANK0  00024
VL53L1X_timeoutMicrosecondsToMclks@timeout_us              cstackBANK0  00020
_ANSELA                                                    (abs)        0018C
_ANSELC                                                    (abs)        0018E
_I2C1_CallbackReturnReset                                  text61       0173C
_I2C1_CallbackReturnStop                                   text62       0173A
_I2C1_Close                                                text75       00957
_I2C1_DO_ADDRESS_NACK                                      text38       009BC
_I2C1_DO_IDLE                                              text52       0176E
_I2C1_DO_RCEN                                              text47       00800
_I2C1_DO_RESET                                             text39       01796
_I2C1_DO_RX                                                text48       00C08
_I2C1_DO_RX_ACK                                            text42       01787
_I2C1_DO_RX_NACK_RESTART                                   text40       01791
_I2C1_DO_RX_NACK_STOP                                      text41       0178C
_I2C1_DO_SEND_ADR_READ                                     text51       017EB
_I2C1_DO_SEND_ADR_WRITE                                    text50       017C8
_I2C1_DO_SEND_RESTART                                      text44       0177D
_I2C1_DO_SEND_RESTART_READ                                 text46       01773
_I2C1_DO_SEND_RESTART_WRITE                                text45       01778
_I2C1_DO_SEND_STOP                                         text43       01782
_I2C1_DO_TX                                                text49       00E1E
_I2C1_DO_TX_EMPTY                                          text53       00A43
_I2C1_Initialize                                           text88       017D9
_I2C1_MasterClearIrq                                       text78       0173E
_I2C1_MasterClose                                          text77       01741
_I2C1_MasterDisableIrq                                     text76       01744
_I2C1_MasterEnableRestart                                  text73       0174A
_I2C1_MasterFsm                                            text37       00A15
_I2C1_MasterGetRxData                                      text58       01753
_I2C1_MasterIsNack                                         text55       017A6
_I2C1_MasterOpen                                           text32       00821
_I2C1_MasterOperation                                      text34       00973
_I2C1_MasterSendAck                                        text57       01765
_I2C1_MasterSendNack                                       text59       01761
_I2C1_MasterSendTxData                                     text56       01769
_I2C1_MasterSetIrq                                         text54       01756
_I2C1_MasterStart                                          text74       01747
_I2C1_MasterStartRx                                        text60       01750
_I2C1_MasterStop                                           text72       0174D
_I2C1_MasterWaitForEvent                                   text36       017AC
_I2C1_MasterWrite                                          text33       0179B
_I2C1_Open                                                 text31       00AD4
_I2C1_Poller                                               text35       00814
_I2C1_Read1ByteRegister                                    text29       00C96
_I2C1_Read2ByteRegister                                    text28       00E76
_I2C1_ReadDataBlock                                        text9        00D75
_I2C1_SetAddressNackCallback                               text30       0082E
_I2C1_SetBuffer                                            text71       00858
_I2C1_SetCallback                                          text70       00996
_I2C1_SetDataCompleteCallback                              text69       00807
_I2C1_Status                                               bssBANK1     000A0
_I2C1_Write1ByteRegister                                   text20       00C4F
_I2C1_Write2ByteRegister                                   text19       00DC7
_I2C1_Write4ByteRegister                                   text13       0049E
_INLVLA                                                    (abs)        0038C
_INLVLC                                                    (abs)        0038E
_INTCONbits                                                (abs)        0000B
_INTERRUPT_InterruptManager                                intentry     00004
_IOCCF4_DefaultInterruptHandler                            text92       01759
_IOCCF4_ISR                                                text91       00849
_IOCCF4_InterruptHandler                                   nvBANK2      00128
_IOCCF4_SetInterruptHandler                                text86       017A0
_IOCCFbits                                                 (abs)        00399
_IOCCNbits                                                 (abs)        00398
_IOCCPbits                                                 (abs)        00397
_LATA                                                      (abs)        0010C
_LATC                                                      (abs)        0010E
_LATCbits                                                  (abs)        0010E
_ODCONA                                                    (abs)        0028C
_ODCONC                                                    (abs)        0028E
_OSCCON1                                                   (abs)        00919
_OSCCON3                                                   (abs)        0091B
_OSCEN                                                     (abs)        0091D
_OSCFRQ                                                    (abs)        0091F
_OSCILLATOR_Initialize                                     text87       017E2
_OSCTUNE                                                   (abs)        0091E
_PIE0bits                                                  (abs)        00090
_PIE1bits                                                  (abs)        00091
_PIN_MANAGER_IOC                                           text90       017D0
_PIN_MANAGER_Initialize                                    text85       00B0E
_PIR0bits                                                  (abs)        00010
_PIR1bits                                                  (abs)        00011
_PMD0                                                      (abs)        00911
_PMD1                                                      (abs)        00912
_PMD2                                                      (abs)        00913
_PMD3                                                      (abs)        00914
_PMD4                                                      (abs)        00915
_PMD5                                                      (abs)        00916
_PMD_Initialize                                            text84       017B8
_PR2                                                       (abs)        0001E
_PWM5CON                                                   (abs)        00619
_PWM5DCH                                                   (abs)        00618
_PWM5DCL                                                   (abs)        00617
_PWM5_Initialize                                           text83       017F4
_PWM5_LoadDutyValue                                        text4        008F7
_PWM6CON                                                   (abs)        0061C
_PWM6DCH                                                   (abs)        0061B
_PWM6DCL                                                   (abs)        0061A
_PWM6_Initialize                                           text82       007F4
_PWM6_LoadDutyValue                                        text3        0090D
_PWMTMRSbits                                               (abs)        0061F
_RA4PPS                                                    (abs)        00E94
_RC0PPS                                                    (abs)        00EA0
_RC1PPS                                                    (abs)        00EA1
_RC5PPS                                                    (abs)        00EA5
_SLRCONA                                                   (abs)        0030C
_SLRCONC                                                   (abs)        0030E
_SSP1ADD                                                   (abs)        00212
_SSP1BUF                                                   (abs)        00211
_SSP1CLKPPS                                                (abs)        00E20
_SSP1CON1                                                  (abs)        00215
_SSP1CON1bits                                              (abs)        00215
_SSP1CON2                                                  (abs)        00216
_SSP1CON2bits                                              (abs)        00216
_SSP1DATPPS                                                (abs)        00E21
_SSP1STAT                                                  (abs)        00214
_SSP1STATbits                                              (abs)        00214
_SYSTEM_Initialize                                         text79       00923
_T2CON                                                     (abs)        0001F
_T2CONbits                                                 (abs)        0001F
_TMR2                                                      (abs)        0001D
_TMR2_Initialize                                           text81       017C0
_TRISA                                                     (abs)        0008C
_TRISC                                                     (abs)        0008E
_VL53L1X_calcMacroPeriod                                   text25       00F8A
_VL53L1X_decodeTimeout                                     text24       00A72
_VL53L1X_encodeTimeout                                     text18       00CDF
_VL53L1X_getMeasurementTimingBudget                        text21       00F2A
_VL53L1X_getRangingData                                    text10       00561
_VL53L1X_init                                              text14       0002A
_VL53L1X_read                                              text6        00614
_VL53L1X_readResults                                       text8        00876
_VL53L1X_setDistanceMode                                   text15       001D2
_VL53L1X_setMeasurementTimingBudget                        text16       0033D
_VL53L1X_setupManualCalibration                            text7        0078F
_VL53L1X_startContinuous                                   text12       009E8
_VL53L1X_timeoutMclksToMicroseconds                        text22       006A2
_VL53L1X_timeoutMicrosecondsToMclks                        text17       00BC4
_WDTCON                                                    (abs)        00097
_WDT_Initialize                                            text80       0175D
_WPUA                                                      (abs)        0020C
_WPUC                                                      (abs)        0020E
__Habs1                                                    abs1         00000
__Hbank0                                                   bank0        00000
__Hbank1                                                   bank1        00000
__Hbank10                                                  bank10       00000
__Hbank11                                                  bank11       00000
__Hbank12                                                  bank12       00000
__Hbank13                                                  bank13       00000
__Hbank14                                                  bank14       00000
__Hbank15                                                  bank15       00000
__Hbank16                                                  bank16       00000
__Hbank17                                                  bank17       00000
__Hbank18                                                  bank18       00000
__Hbank19                                                  bank19       00000
__Hbank2                                                   bank2        00000
__Hbank20                                                  bank20       00000
__Hbank21                                                  bank21       00000
__Hbank22                                                  bank22       00000
__Hbank23                                                  bank23       00000
__Hbank24                                                  bank24       00000
__Hbank25                                                  bank25       00000
__Hbank26                                                  bank26       00000
__Hbank27                                                  bank27       00000
__Hbank28                                                  bank28       00000
__Hbank29                                                  bank29       00000
__Hbank3                                                   bank3        00000
__Hbank30                                                  bank30       00000
__Hbank31                                                  bank31       00000
__Hbank4                                                   bank4        00000
__Hbank5                                                   bank5        00000
__Hbank6                                                   bank6        00000
__Hbank7                                                   bank7        00000
__Hbank8                                                   bank8        00000
__Hbank9                                                   bank9        00000
__Hbigram                                                  bigram       00000
__HbssBANK1                                                bssBANK1     00000
__HbssBANK2                                                bssBANK2     00000
__Hcinit                                                   cinit        0002A
__Hclrtext                                                 clrtext      00000
__Hcode                                                    code         00000
__Hcommon                                                  common       00000
__Hconfig                                                  config       0800B
__HcstackBANK0                                             cstackBANK0  00000
__HcstackBANK1                                             cstackBANK1  00000
__HcstackCOMMON                                            cstackCOMMON 00000
__Heeprom_data                                             eeprom_data  00000
__Hend_init                                                end_init     00017
__Hfunctab                                                 functab      00000
__Hheap                                                    heap         00000
__Hidloc                                                   idloc        08004
__Hinit                                                    init         00015
__Hintentry                                                intentry     00015
__Hmaintext                                                maintext     00000
__HnvBANK1                                                 nvBANK1      00000
__HnvBANK2                                                 nvBANK2      00000
__Hpowerup                                                 powerup      00000
__Hram                                                     ram          00000
__Hreset_vec                                               reset_vec    00003
__Hsfr0                                                    sfr0         00000
__Hsfr1                                                    sfr1         00000
__Hsfr10                                                   sfr10        00000
__Hsfr11                                                   sfr11        00000
__Hsfr12                                                   sfr12        00000
__Hsfr13                                                   sfr13        00000
__Hsfr14                                                   sfr14        00000
__Hsfr15                                                   sfr15        00000
__Hsfr16                                                   sfr16        00000
__Hsfr17                                                   sfr17        00000
__Hsfr18                                                   sfr18        00000
__Hsfr19                                                   sfr19        00000
__Hsfr2                                                    sfr2         00000
__Hsfr20                                                   sfr20        00000
__Hsfr21                                                   sfr21        00000
__Hsfr22                                                   sfr22        00000
__Hsfr23                                                   sfr23        00000
__Hsfr24                                                   sfr24        00000
__Hsfr25                                                   sfr25        00000
__Hsfr26                                                   sfr26        00000
__Hsfr27                                                   sfr27        00000
__Hsfr28                                                   sfr28        00000
__Hsfr29                                                   sfr29        00000
__Hsfr3                                                    sfr3         00000
__Hsfr30                                                   sfr30        00000
__Hsfr31                                                   sfr31        00000
__Hsfr4                                                    sfr4         00000
__Hsfr5                                                    sfr5         00000
__Hsfr6                                                    sfr6         00000
__Hsfr7                                                    sfr7         00000
__Hsfr8                                                    sfr8         00000
__Hsfr9                                                    sfr9         00000
__Hspace_0                                                 (abs)        01827
__Hspace_1                                                 (abs)        0012A
__Hspace_2                                                 (abs)        00000
__Hspace_3                                                 (abs)        00000
__Hspace_4                                                 (abs)        10012
__Hstack                                                   stack        00000
__Hstrings                                                 strings      00000
__Hstringtext1                                             stringtext1  00000
__Hstringtext10                                            stringtext10 00000
__Hstringtext11                                            stringtext11 00000
__Hstringtext12                                            stringtext12 00000
__Hstringtext13                                            stringtext13 00000
__Hstringtext14                                            stringtext14 00000
__Hstringtext15                                            stringtext15 00000
__Hstringtext16                                            stringtext16 00000
__Hstringtext17                                            stringtext17 00000
__Hstringtext18                                            stringtext18 00000
__Hstringtext19                                            stringtext19 00000
__Hstringtext2                                             stringtext2  00000
__Hstringtext20                                            stringtext20 00000
__Hstringtext3                                             stringtext3  00000
__Hstringtext4                                             stringtext4  00000
__Hstringtext5                                             stringtext5  00000
__Hstringtext6                                             stringtext6  00000
__Hstringtext7                                             stringtext7  00000
__Hstringtext8                                             stringtext8  00000
__Hstringtext9                                             stringtext9  00000
__Htext                                                    text         00000
__Labs1                                                    abs1         00000
__Lbank0                                                   bank0        00000
__Lbank1                                                   bank1        00000
__Lbank10                                                  bank10       00000
__Lbank11                                                  bank11       00000
__Lbank12                                                  bank12       00000
__Lbank13                                                  bank13       00000
__Lbank14                                                  bank14       00000
__Lbank15                                                  bank15       00000
__Lbank16                                                  bank16       00000
__Lbank17                                                  bank17       00000
__Lbank18                                                  bank18       00000
__Lbank19                                                  bank19       00000
__Lbank2                                                   bank2        00000
__Lbank20                                                  bank20       00000
__Lbank21                                                  bank21       00000
__Lbank22                                                  bank22       00000
__Lbank23                                                  bank23       00000
__Lbank24                                                  bank24       00000
__Lbank25                                                  bank25       00000
__Lbank26                                                  bank26       00000
__Lbank27                                                  bank27       00000
__Lbank28                                                  bank28       00000
__Lbank29                                                  bank29       00000
__Lbank3                                                   bank3        00000
__Lbank30                                                  bank30       00000
__Lbank31                                                  bank31       00000
__Lbank4                                                   bank4        00000
__Lbank5                                                   bank5        00000
__Lbank6                                                   bank6        00000
__Lbank7                                                   bank7        00000
__Lbank8                                                   bank8        00000
__Lbank9                                                   bank9        00000
__Lbigram                                                  bigram       00000
__LbssBANK1                                                bssBANK1     00000
__LbssBANK2                                                bssBANK2     00000
__Lcinit                                                   cinit        00017
__Lclrtext                                                 clrtext      00000
__Lcode                                                    code         00000
__Lcommon                                                  common       00000
__Lconfig                                                  config       00000
__LcstackBANK0                                             cstackBANK0  00000
__LcstackBANK1                                             cstackBANK1  00000
__LcstackCOMMON                                            cstackCOMMON 00000
__Leeprom_data                                             eeprom_data  00000
__Lend_init                                                end_init     00015
__Lfunctab                                                 functab      00000
__Lheap                                                    heap         00000
__Lidloc                                                   idloc        00000
__Linit                                                    init         00015
__Lintentry                                                intentry     00004
__Lmaintext                                                maintext     00000
__LnvBANK1                                                 nvBANK1      00000
__LnvBANK2                                                 nvBANK2      00000
__Lpowerup                                                 powerup      00000
__Lram                                                     ram          00000
__Lreset_vec                                               reset_vec    00000
__Lsfr0                                                    sfr0         00000
__Lsfr1                                                    sfr1         00000
__Lsfr10                                                   sfr10        00000
__Lsfr11                                                   sfr11        00000
__Lsfr12                                                   sfr12        00000
__Lsfr13                                                   sfr13        00000
__Lsfr14                                                   sfr14        00000
__Lsfr15                                                   sfr15        00000
__Lsfr16                                                   sfr16        00000
__Lsfr17                                                   sfr17        00000
__Lsfr18                                                   sfr18        00000
__Lsfr19                                                   sfr19        00000
__Lsfr2                                                    sfr2         00000
__Lsfr20                                                   sfr20        00000
__Lsfr21                                                   sfr21        00000
__Lsfr22                                                   sfr22        00000
__Lsfr23                                                   sfr23        00000
__Lsfr24                                                   sfr24        00000
__Lsfr25                                                   sfr25        00000
__Lsfr26                                                   sfr26        00000
__Lsfr27                                                   sfr27        00000
__Lsfr28                                                   sfr28        00000
__Lsfr29                                                   sfr29        00000
__Lsfr3                                                    sfr3         00000
__Lsfr30                                                   sfr30        00000
__Lsfr31                                                   sfr31        00000
__Lsfr4                                                    sfr4         00000
__Lsfr5                                                    sfr5         00000
__Lsfr6                                                    sfr6         00000
__Lsfr7                                                    sfr7         00000
__Lsfr8                                                    sfr8         00000
__Lsfr9                                                    sfr9         00000
__Lspace_0                                                 (abs)        00000
__Lspace_1                                                 (abs)        00000
__Lspace_2                                                 (abs)        00000
__Lspace_3                                                 (abs)        00000
__Lspace_4                                                 (abs)        00000
__Lstack                                                   stack        00000
__Lstrings                                                 strings      00000
__Lstringtext1                                             stringtext1  00000
__Lstringtext10                                            stringtext10 00000
__Lstringtext11                                            stringtext11 00000
__Lstringtext12                                            stringtext12 00000
__Lstringtext13                                            stringtext13 00000
__Lstringtext14                                            stringtext14 00000
__Lstringtext15                                            stringtext15 00000
__Lstringtext16                                            stringtext16 00000
__Lstringtext17                                            stringtext17 00000
__Lstringtext18                                            stringtext18 00000
__Lstringtext19                                            stringtext19 00000
__Lstringtext2                                             stringtext2  00000
__Lstringtext20                                            stringtext20 00000
__Lstringtext3                                             stringtext3  00000
__Lstringtext4                                             stringtext4  00000
__Lstringtext5                                             stringtext5  00000
__Lstringtext6                                             stringtext6  00000
__Lstringtext7                                             stringtext7  00000
__Lstringtext8                                             stringtext8  00000
__Lstringtext9                                             stringtext9  00000
__Ltext                                                    text         00000
__S0                                                       (abs)        01827
__S1                                                       (abs)        0012A
__S3                                                       (abs)        00000
___heap_hi                                                 (abs)        00000
___heap_lo                                                 (abs)        00000
___int_sp                                                  stack        00000
___latbits                                                 (abs)        00002
___lldiv                                                   text27       00ED0
___lldiv@counter                                           cstackCOMMON 0007D
___lldiv@dividend                                          cstackCOMMON 00074
___lldiv@divisor                                           cstackCOMMON 00070
___lldiv@quotient                                          cstackCOMMON 00079
___lmul                                                    text26       00AA1
___lmul@multiplicand                                       cstackCOMMON 00074
___lmul@multiplier                                         cstackCOMMON 00070
___lmul@product                                            cstackCOMMON 00078
___lwdiv                                                   text11       00B49
___lwdiv@counter                                           cstackCOMMON 00077
___lwdiv@dividend                                          cstackCOMMON 00072
___lwdiv@divisor                                           cstackCOMMON 00070
___lwdiv@quotient                                          cstackCOMMON 00075
___omul                                                    text23       00D29
___omul@multiplicand                                       cstackBANK0  00028
___omul@multiplier                                         cstackBANK0  00020
___omul@product                                            cstackCOMMON 00071
___sp                                                      stack        00000
___stackhi                                                 (abs)        00000
___stacklo                                                 (abs)        00000
__end_of_I2C1_CallbackReturnReset                          text61       0173E
__end_of_I2C1_CallbackReturnStop                           text62       0173C
__end_of_I2C1_Close                                        text75       00973
__end_of_I2C1_DO_ADDRESS_NACK                              text38       009E8
__end_of_I2C1_DO_IDLE                                      text52       01773
__end_of_I2C1_DO_RCEN                                      text47       00807
__end_of_I2C1_DO_RESET                                     text39       0179B
__end_of_I2C1_DO_RX                                        text48       00C4F
__end_of_I2C1_DO_RX_ACK                                    text42       0178C
__end_of_I2C1_DO_RX_NACK_RESTART                           text40       01796
__end_of_I2C1_DO_RX_NACK_STOP                              text41       01791
__end_of_I2C1_DO_SEND_ADR_READ                             text51       017F4
__end_of_I2C1_DO_SEND_ADR_WRITE                            text50       017D0
__end_of_I2C1_DO_SEND_RESTART                              text44       01782
__end_of_I2C1_DO_SEND_RESTART_READ                         text46       01778
__end_of_I2C1_DO_SEND_RESTART_WRITE                        text45       0177D
__end_of_I2C1_DO_SEND_STOP                                 text43       01787
__end_of_I2C1_DO_TX                                        text49       00E76
__end_of_I2C1_DO_TX_EMPTY                                  text53       00A72
__end_of_I2C1_Initialize                                   text88       017E2
__end_of_I2C1_MasterClearIrq                               text78       01741
__end_of_I2C1_MasterClose                                  text77       01744
__end_of_I2C1_MasterDisableIrq                             text76       01747
__end_of_I2C1_MasterEnableRestart                          text73       0174D
__end_of_I2C1_MasterFsm                                    text37       00A43
__end_of_I2C1_MasterGetRxData                              text58       01756
__end_of_I2C1_MasterIsNack                                 text55       017AC
__end_of_I2C1_MasterOpen                                   text32       0082E
__end_of_I2C1_MasterOperation                              text34       00996
__end_of_I2C1_MasterSendAck                                text57       01769
__end_of_I2C1_MasterSendNack                               text59       01765
__end_of_I2C1_MasterSendTxData                             text56       0176E
__end_of_I2C1_MasterSetIrq                                 text54       01759
__end_of_I2C1_MasterStart                                  text74       0174A
__end_of_I2C1_MasterStartRx                                text60       01753
__end_of_I2C1_MasterStop                                   text72       01750
__end_of_I2C1_MasterWaitForEvent                           text36       017B2
__end_of_I2C1_MasterWrite                                  text33       017A0
__end_of_I2C1_Open                                         text31       00B0E
__end_of_I2C1_Poller                                       text35       00821
__end_of_I2C1_Read1ByteRegister                            text29       00CDF
__end_of_I2C1_Read2ByteRegister                            text28       00ED0
__end_of_I2C1_ReadDataBlock                                text9        00DC7
__end_of_I2C1_SetAddressNackCallback                       text30       0083B
__end_of_I2C1_SetBuffer                                    text71       00867
__end_of_I2C1_SetCallback                                  text70       009BC
__end_of_I2C1_SetDataCompleteCallback                      text69       00814
__end_of_I2C1_Write1ByteRegister                           text20       00C96
__end_of_I2C1_Write2ByteRegister                           text19       00E1E
__end_of_I2C1_Write4ByteRegister                           text13       00561
__end_of_INTERRUPT_InterruptManager                        intentry     00015
__end_of_IOCCF4_DefaultInterruptHandler                    text92       0175D
__end_of_IOCCF4_ISR                                        text91       00858
__end_of_IOCCF4_SetInterruptHandler                        text86       017A6
__end_of_OSCILLATOR_Initialize                             text87       017EB
__end_of_PIN_MANAGER_IOC                                   text90       017D9
__end_of_PIN_MANAGER_Initialize                            text85       00B49
__end_of_PMD_Initialize                                    text84       017C0
__end_of_PWM5_Initialize                                   text83       01800
__end_of_PWM5_LoadDutyValue                                text4        0090D
__end_of_PWM6_Initialize                                   text82       00800
__end_of_PWM6_LoadDutyValue                                text3        00923
__end_of_SYSTEM_Initialize                                 text79       0093C
__end_of_TMR2_Initialize                                   text81       017C8
__end_of_TargetRate                                        stringtext6  01825
__end_of_TargetRate@vl53l1x$F2464                          stringtext7  01827
__end_of_TargetRate@vl53l1x$F2589                          stringtext5  01823
__end_of_TimingGuard                                       stringtext4  01821
__end_of_TimingGuard@vl53l1x$F2463                         stringtext3  0181D
__end_of_TimingGuard@vl53l1x$F2588                         stringtext2  01819
__end_of_VL53L1X_calcMacroPeriod                           text25       01000
__end_of_VL53L1X_decodeTimeout                             text24       00AA1
__end_of_VL53L1X_encodeTimeout                             text18       00D29
__end_of_VL53L1X_getMeasurementTimingBudget                text21       00F8A
__end_of_VL53L1X_getRangingData                            text10       00614
__end_of_VL53L1X_init                                      text14       001D2
__end_of_VL53L1X_read                                      text6        006A2
__end_of_VL53L1X_readResults                               text8        00889
__end_of_VL53L1X_setDistanceMode                           text15       0033D
__end_of_VL53L1X_setMeasurementTimingBudget                text16       0049E
__end_of_VL53L1X_setupManualCalibration                    text7        007F4
__end_of_VL53L1X_startContinuous                           text12       00A15
__end_of_VL53L1X_timeoutMclksToMicroseconds                text22       00719
__end_of_VL53L1X_timeoutMicrosecondsToMclks                text17       00C08
__end_of_WDT_Initialize                                    text80       01761
__end_of___lldiv                                           text27       00F2A
__end_of___lmul                                            text26       00AD4
__end_of___lwdiv                                           text11       00B85
__end_of___omul                                            text23       00D75
__end_of__initialization                                   cinit        00026
__end_of_get_distance_to_wall                              text5        00BC4
__end_of_i2c1_fsmStateTable                                stringtext1  01020
__end_of_m_control_init                                    text2        00876
__end_of_m_go_forward                                      text1        00849
__end_of_main                                              maintext     0078F
__end_of_rd1RegCompleteHandler                             text67       008B5
__end_of_rd2RegCompleteHandler                             text66       008CB
__end_of_rdBlkRegCompleteHandler                           text63       00957
__end_of_wr1RegCompleteHandler                             text65       008E1
__end_of_wr2RegCompleteHandler                             text64       008F7
__end_of_wr4RegCompleteHandler                             text68       0089F
__initialization                                           cinit        00017
__pbssBANK1                                                bssBANK1     000A0
__pbssBANK2                                                bssBANK2     00120
__pcstackBANK0                                             cstackBANK0  00020
__pcstackBANK1                                             cstackBANK1  000E7
__pcstackCOMMON                                            cstackCOMMON 00070
__pintentry                                                intentry     00004
__pmaintext                                                maintext     00719
__pnvBANK1                                                 nvBANK1      000EE
__pnvBANK2                                                 nvBANK2      00126
__pstringtext1                                             stringtext1  01000
__pstringtext10                                            stringtext10 0105F
__pstringtext11                                            stringtext11 01073
__pstringtext12                                            stringtext12 01086
__pstringtext13                                            stringtext13 01098
__pstringtext14                                            stringtext14 010A9
__pstringtext15                                            stringtext15 010B8
__pstringtext16                                            stringtext16 010C7
__pstringtext17                                            stringtext17 010D5
__pstringtext18                                            stringtext18 01800
__pstringtext19                                            stringtext19 0180B
__pstringtext2                                             stringtext2  01815
__pstringtext20                                            stringtext20 00000
__pstringtext3                                             stringtext3  01819
__pstringtext4                                             stringtext4  0181D
__pstringtext5                                             stringtext5  01821
__pstringtext6                                             stringtext6  01823
__pstringtext7                                             stringtext7  01825
__pstringtext8                                             stringtext8  01020
__pstringtext9                                             stringtext9  01040
__ptext1                                                   text1        0083B
__ptext10                                                  text10       00561
__ptext11                                                  text11       00B49
__ptext12                                                  text12       009E8
__ptext13                                                  text13       0049E
__ptext14                                                  text14       0002A
__ptext15                                                  text15       001D2
__ptext16                                                  text16       0033D
__ptext17                                                  text17       00BC4
__ptext18                                                  text18       00CDF
__ptext19                                                  text19       00DC7
__ptext2                                                   text2        00867
__ptext20                                                  text20       00C4F
__ptext21                                                  text21       00F2A
__ptext22                                                  text22       006A2
__ptext23                                                  text23       00D29
__ptext24                                                  text24       00A72
__ptext25                                                  text25       00F8A
__ptext26                                                  text26       00AA1
__ptext27                                                  text27       00ED0
__ptext28                                                  text28       00E76
__ptext29                                                  text29       00C96
__ptext3                                                   text3        0090D
__ptext30                                                  text30       0082E
__ptext31                                                  text31       00AD4
__ptext32                                                  text32       00821
__ptext33                                                  text33       0179B
__ptext34                                                  text34       00973
__ptext35                                                  text35       00814
__ptext36                                                  text36       017AC
__ptext37                                                  text37       00A15
__ptext38                                                  text38       009BC
__ptext39                                                  text39       01796
__ptext4                                                   text4        008F7
__ptext40                                                  text40       01791
__ptext41                                                  text41       0178C
__ptext42                                                  text42       01787
__ptext43                                                  text43       01782
__ptext44                                                  text44       0177D
__ptext45                                                  text45       01778
__ptext46                                                  text46       01773
__ptext47                                                  text47       00800
__ptext48                                                  text48       00C08
__ptext49                                                  text49       00E1E
__ptext5                                                   text5        00B85
__ptext50                                                  text50       017C8
__ptext51                                                  text51       017EB
__ptext52                                                  text52       0176E
__ptext53                                                  text53       00A43
__ptext54                                                  text54       01756
__ptext55                                                  text55       017A6
__ptext56                                                  text56       01769
__ptext57                                                  text57       01765
__ptext58                                                  text58       01753
__ptext59                                                  text59       01761
__ptext6                                                   text6        00614
__ptext60                                                  text60       01750
__ptext61                                                  text61       0173C
__ptext62                                                  text62       0173A
__ptext63                                                  text63       0093C
__ptext64                                                  text64       008E1
__ptext65                                                  text65       008CB
__ptext66                                                  text66       008B5
__ptext67                                                  text67       0089F
__ptext68                                                  text68       00889
__ptext69                                                  text69       00807
__ptext7                                                   text7        0078F
__ptext70                                                  text70       00996
__ptext71                                                  text71       00858
__ptext72                                                  text72       0174D
__ptext73                                                  text73       0174A
__ptext74                                                  text74       01747
__ptext75                                                  text75       00957
__ptext76                                                  text76       01744
__ptext77                                                  text77       01741
__ptext78                                                  text78       0173E
__ptext79                                                  text79       00923
__ptext8                                                   text8        00876
__ptext80                                                  text80       0175D
__ptext81                                                  text81       017C0
__ptext82                                                  text82       007F4
__ptext83                                                  text83       017F4
__ptext84                                                  text84       017B8
__ptext85                                                  text85       00B0E
__ptext86                                                  text86       017A0
__ptext87                                                  text87       017E2
__ptext88                                                  text88       017D9
__ptext9                                                   text9        00D75
__ptext90                                                  text90       017D0
__ptext91                                                  text91       00849
__ptext92                                                  text92       01759
_address                                                   nvBANK1      000EE
_calibrated                                                bssBANK1     000D1
_did_timeout                                               bssBANK1     000D2
_distance                                                  bssBANK1     000CB
_distance_mode                                             bssBANK1     000CE
_fast_osc_frequency                                        bssBANK1     000E5
_get_distance_to_wall                                      text5        00B85
_i2c1_fsmStateTable                                        stringtext1  01000
_iid                                                       nvBANK2      00126
_m_control_init                                            text2        00867
_m_go_forward                                              text1        0083B
_main                                                      maintext     00719
_motordrive                                                bssBANK1     000D3
_osc_calibrate_val                                         bssBANK2     00120
_ranging_data                                              bssBANK1     000BE
_rd1RegCompleteHandler                                     text67       0089F
_rd2RegCompleteHandler                                     text66       008B5
_rdBlkRegCompleteHandler                                   text63       0093C
_results                                                   bssBANK1     000D4
_saved_vhv_init                                            bssBANK1     000D0
_saved_vhv_timeout                                         bssBANK1     000CF
_speed                                                     bssBANK1     000C9
_wr1RegCompleteHandler                                     text65       008CB
_wr2RegCompleteHandler                                     text64       008E1
_wr4RegCompleteHandler                                     text68       00889
btemp                                                      (abs)        0007E
clear_ram0                                                 clrtext      017B2
end_of_initialization                                      cinit        00026
get_distance_to_wall@ave                                   cstackBANK0  00042
get_distance_to_wall@i                                     cstackBANK0  00040
int$flags                                                  (abs)        0007E
intlevel0                                                  functab      00000
intlevel1                                                  functab      00000
intlevel2                                                  functab      00000
intlevel3                                                  functab      00000
intlevel4                                                  functab      00000
intlevel5                                                  functab      00000
m_go_forward@speed                                         cstackCOMMON 00074
rd1RegCompleteHandler@ptr                                  cstackCOMMON 00079
rd2RegCompleteHandler@ptr                                  cstackCOMMON 00079
rdBlkRegCompleteHandler@ptr                                cstackCOMMON 00079
reset_vec                                                  reset_vec    00000
start                                                      init         00015
start_initialization                                       cinit        00017
wr1RegCompleteHandler@ptr                                  cstackCOMMON 00079
wr2RegCompleteHandler@ptr                                  cstackCOMMON 00079
wr4RegCompleteHandler@ptr                                  cstackCOMMON 00079
wtemp0                                                     (abs)        0007E


MODULE INFORMATION

Module		Function		Class		Link	Load	Size
mcc_generated_files/examples/i2c1_master_example.c
		_wr1RegCompleteHandler		CODE           	08CB	0000	22
		_wr2RegCompleteHandler		CODE           	08E1	0000	22
		_wr4RegCompleteHandler		CODE           	0889	0000	22
		_I2C1_ReadDataBlock		CODE           	0D75	0000	82
		_I2C1_Write1ByteRegister		CODE           	0C4F	0000	71
		_I2C1_Write2ByteRegister		CODE           	0DC7	0000	87
		_I2C1_Write4ByteRegister		CODE           	049E	0000	195
		_rdBlkRegCompleteHandler		CODE           	093C	0000	27
		_rd1RegCompleteHandler		CODE           	089F	0000	22
		_rd2RegCompleteHandler		CODE           	08B5	0000	22
		_I2C1_Read1ByteRegister		CODE           	0C96	0000	73
		_I2C1_Read2ByteRegister		CODE           	0E76	0000	90

mcc_generated_files/examples/i2c1_master_example.c estimated size: 735

mcc_generated_files/pwm6.c
		_PWM6_LoadDutyValue		CODE           	090D	0000	22
		_PWM6_Initialize		CODE           	07F4	0000	12

mcc_generated_files/pwm6.c estimated size: 34

mcc_generated_files/i2c1_master.c
		_I2C1_DO_SEND_RESTART		CODE           	177D	0000	5
		_I2C1_DO_TX_EMPTY		CODE           	0A43	0000	47
		_I2C1_DO_SEND_RESTART_READ		CODE           	1773	0000	5
		_I2C1_CallbackReturnStop		CODE           	173A	0000	2
		_I2C1_DO_RX    		CODE           	0C08	0000	71
		_I2C1_DO_TX    		CODE           	0E1E	0000	88
		_I2C1_SetAddressNackCallback		CODE           	082E	0000	13
		_I2C1_DO_IDLE  		CODE           	176E	0000	5
		_I2C1_MasterOpen		CODE           	0821	0000	13
		_I2C1_DO_RCEN  		CODE           	0800	0000	7
		_I2C1_MasterSendTxData		CODE           	1769	0000	5
		_I2C1_MasterStop		CODE           	174D	0000	3
		_I2C1_CallbackReturnReset		CODE           	173C	0000	2
		_I2C1_DO_RESET 		CODE           	1796	0000	5
		_I2C1_MasterStartRx		CODE           	1750	0000	3
		_I2C1_Poller   		CODE           	0814	0000	13
		_I2C1_DO_RX_ACK		CODE           	1787	0000	5
		_I2C1_MasterWaitForEvent		CODE           	17AC	0000	6
		_I2C1_MasterSendNack		CODE           	1761	0000	4
		_I2C1_DO_RX_NACK_RESTART		CODE           	1791	0000	5
		_I2C1_MasterDisableIrq		CODE           	1744	0000	3
		_I2C1_MasterOperation		CODE           	0973	0000	35
		_I2C1_SetCallback		CODE           	0996	0000	38
		_I2C1_MasterEnableRestart		CODE           	174A	0000	3
		_I2C1_Open     		CODE           	0AD4	0000	58
		_I2C1_DO_ADDRESS_NACK		CODE           	09BC	0000	44
		_I2C1_SetBuffer		CODE           	0858	0000	15
		_I2C1_DO_SEND_RESTART_WRITE		CODE           	1778	0000	5
		_I2C1_MasterClose		CODE           	1741	0000	3
		_I2C1_MasterWrite		CODE           	179B	0000	5
		_I2C1_Initialize		CODE           	17D9	0000	9
		_I2C1_Close    		CODE           	0957	0000	28
		_I2C1_MasterIsNack		CODE           	17A6	0000	6
		_I2C1_MasterStart		CODE           	1747	0000	3
		_I2C1_DO_SEND_ADR_WRITE		CODE           	17C8	0000	8
		_I2C1_MasterClearIrq		CODE           	173E	0000	3
		_I2C1_SetDataCompleteCallback		CODE           	0807	0000	13
		_I2C1_DO_SEND_STOP		CODE           	1782	0000	5
		_I2C1_MasterSendAck		CODE           	1765	0000	4
		_I2C1_MasterFsm		CODE           	0A15	0000	46
		_I2C1_MasterGetRxData		CODE           	1753	0000	3
		_I2C1_MasterSetIrq		CODE           	1756	0000	3
		_I2C1_DO_SEND_ADR_READ		CODE           	17EB	0000	9
		_I2C1_DO_RX_NACK_STOP		CODE           	178C	0000	5

mcc_generated_files/i2c1_master.c estimated size: 661

mcc_generated_files/tmr2.c
		_TMR2_Initialize		CODE           	17C0	0000	8

mcc_generated_files/tmr2.c estimated size: 8

mcc_generated_files/interrupt_manager.c
		_INTERRUPT_InterruptManager		CODE           	0004	0000	17

mcc_generated_files/interrupt_manager.c estimated size: 17

C:\Program Files\Microchip\xc8\v2.36\pic\sources\c99\common\Umul32.c
		___lmul        		CODE           	0AA1	0000	51

C:\Program Files\Microchip\xc8\v2.36\pic\sources\c99\common\Umul32.c estimated size: 51

mcc_generated_files/pin_manager.c
		_PIN_MANAGER_Initialize		CODE           	0B0E	0000	59
		_IOCCF4_DefaultInterruptHandler		CODE           	1759	0000	4
		_IOCCF4_ISR    		CODE           	0849	0000	15
		_PIN_MANAGER_IOC		CODE           	17D0	0000	9
		_IOCCF4_SetInterruptHandler		CODE           	17A0	0000	6

mcc_generated_files/pin_manager.c estimated size: 93

C:\Program Files\Microchip\xc8\v2.36\pic\sources\c99\common\__lldiv.c
		___lldiv       		CODE           	0ED0	0000	90

C:\Program Files\Microchip\xc8\v2.36\pic\sources\c99\common\__lldiv.c estimated size: 90

C:\Program Files\Microchip\xc8\v2.36\pic\sources\c99\common\lwdiv.c
		___lwdiv       		CODE           	0B49	0000	60

C:\Program Files\Microchip\xc8\v2.36\pic\sources\c99\common\lwdiv.c estimated size: 60

shared
		_TimingGuard@vl53l1x$F2588		STRCODE        	0000	0000	0
		_TimingGuard   		STRCODE        	0000	0000	0
		_TimingGuard@vl53l1x$F2463		STRCODE        	0000	0000	0
		_TargetRate@vl53l1x$F2589		STRCODE        	0000	0000	0
		__initialization		CODE           	0017	0000	15
		_TargetRate    		STRCODE        	0000	0000	0
		_i2c1_fsmStateTable		STRCODE        	1000	0000	32
		_TargetRate@vl53l1x$F2464		STRCODE        	0000	0000	0

shared estimated size: 47

mcc_generated_files/pwm5.c
		_PWM5_LoadDutyValue		CODE           	08F7	0000	22
		_PWM5_Initialize		CODE           	17F4	0000	12

mcc_generated_files/pwm5.c estimated size: 34

mcc_generated_files/mcc.c
		_WDT_Initialize		CODE           	175D	0000	4
		_PMD_Initialize		CODE           	17B8	0000	8
		_OSCILLATOR_Initialize		CODE           	17E2	0000	9
		_SYSTEM_Initialize		CODE           	0923	0000	25

mcc_generated_files/mcc.c estimated size: 46

motor_control.c
		_m_go_forward  		CODE           	083B	0000	14
		_get_distance_to_wall		CODE           	0B85	0000	63
		_m_control_init		CODE           	0867	0000	15

motor_control.c estimated size: 92

main.c
		_main          		CODE           	0719	0000	118

main.c estimated size: 118

vl53l1x.c
		_VL53L1X_getMeasurementTimingBudget		CODE           	0F2A	0000	96
		_VL53L1X_setMeasurementTimingBudget		CODE           	033D	0000	353
		_VL53L1X_setDistanceMode		CODE           	01D2	0000	363
		_VL53L1X_readResults		CODE           	0876	0000	19
		_VL53L1X_startContinuous		CODE           	09E8	0000	45
		_VL53L1X_read  		CODE           	0614	0000	142
		_VL53L1X_init  		CODE           	002A	0000	424
		_VL53L1X_timeoutMicrosecondsToMclks		CODE           	0BC4	0000	68
		_VL53L1X_getRangingData		CODE           	0561	0000	179
		_VL53L1X_decodeTimeout		CODE           	0A72	0000	47
		_VL53L1X_encodeTimeout		CODE           	0CDF	0000	74
		_VL53L1X_timeoutMclksToMicroseconds		CODE           	06A2	0000	119
		_VL53L1X_setupManualCalibration		CODE           	078F	0000	101
		_VL53L1X_calcMacroPeriod		CODE           	0F8A	0000	118

vl53l1x.c estimated size: 2148

C:\Program Files\Microchip\xc8\v2.36\pic\sources\c99\common\Umul64.c
		___omul        		CODE           	0D29	0000	76

C:\Program Files\Microchip\xc8\v2.36\pic\sources\c99\common\Umul64.c estimated size: 76

