:1000000080311528053008007E1480312100101E33
:100010000A280B2813282000101E0F281028132848
:100020009731132780317E10090080311728A030C6
:1000300084000030850047309631EE268031220062
:10004000A001A101A201A301A401A5017E1020002D
:1000500084319E2C29302000EE006E082100EE0035
:100060000F302000A5000130A60021006E088D3160
:100070009A258031200026082200A70020002508AC
:100080002200A60000302000AD00AE00AF0121002C
:100090006E088B3173238031A0300032890B4D28DC
:1000A00000302000AD00AE00AF01AF0A21006E08A5
:1000B0008B317323803129302000EF009630EE0021
:1000C0007F30890B6128EE0B6128EF0B6128063029
:1000D0002000A5000030A60021006E088D319A2571
:1000E0008031200026082100E6002000250821009C
:1000F000E500DE302000A5000030A60021006E08DB
:100100008D319A258031200026082200A30020008E
:1001100025082200A20024302000BE000030BF00CD
:100120000030C0000A30C10021006E088C31EB2481
:10013000803131302000AD000030AE000230EE00E2
:100140006E08AF0021006E088B317323803136308A
:100150002000AD000030AE000830EE006E08AF00A9
:1001600021006E088B317323803137302000AD00C1
:100170000030AE001030EE006E08AF0021006E08B7
:100180008B317323803139302000AD000030AE0058
:10019000AF01AF0A21006E088B31732380313E30EE
:1001A0002000AD000030AE00FF30EE006E08AF0062
:1001B00021006E088B31732380313F302000AD0069
:1001C0000030AE00AF0121006E088B317323803107
:1001D00040302000AD000030AE000230EE006E086E
:1001E000AF0021006E088B31732380315030200026
:1001F000BE000030BF000030C000C10021006E080A
:100200008C31EB24803152302000BE000030BF0022
:100210000030C000C10021006E088C31EB24803119
:1002200057302000AD000030AE003830EE006E08D0
:10023000AF0021006E088B317323803164302000C1
:10024000BE000030BF006830C0000130C100210096
:100250006E088C31EB24803166302000BE00003007
:10026000BF00C030C0000030C10021006E088C31DA
:10027000EB24803171302000AD000030AE00AF01C2
:10028000AF0A21006E088B31732380317C3020004F
:10029000AD000030AE00AF01AF0A21006E088B3117
:1002A000732380317E302000AD000030AE0002307C
:1002B000EE006E08AF0021006E088B317323803191
:1002C00082302000AD000030AE00AF0121006E088A
:1002D0008B317323803177302000AD000030AE00C9
:1002E000AF01AF0A21006E088B317323803181305A
:1002F0002000AD000030AE008B30EE006E08AF0085
:1003000021006E088B317323803154302000BE00F1
:100310000030BF000030C000C830C10021006E08AE
:100320008C31EB2480314F302000AD000030AE0026
:100330000230EE006E08AF0021006E088B3173238F
:10034000803102308131D221803100302000CA005A
:100350000030C900C330C8005030C70083313D238E
:1003600080311E302000BE000030BF002230A500CA
:100370000030A60021006E088D319A2580312000C2
:100380002508EE002608EF00EE35EF0DEE35EF0DF7
:100390006E08C0006F08C10021006E088C31EB248C
:1003A000803108002100EB008E314E268131200083
:1003B0005F082100EA0020005E082100E90020001B
:1003C0005D082100E80020005C082100E7000E2BFA
:1003D0006030AD000030AE000730EC006C08AF00BC
:1003E00021006E088B317323813163302000AD0012
:1003F0000030AE000530EC006C08AF0021006E0844
:100400008B317323813169302000AD000030AE00A4
:100410003830EC006C08AF0021006E088B3173237C
:10042000813178302000AD000030AE000730EC00A4
:100430006C08AF0021006E088B3173238131793055
:100440002000AD000030AE000530EC006C08AF00BD
:1004500021006E088B31732381317A302000AD008A
:100460000030AE000630EC006C08AF0021006E08D2
:100470008B31732381317B302000AD000030AE0022
:100480000630EC006C08AF0021006E088B3173233E
:100490008131222B6030AD000030AE000B30EC001B
:1004A0006C08AF0021006E088B31732381316330FB
:1004B0002000AD000030AE000930EC006C08AF0049
:1004C00021006E088B317323813169302000AD002B
:1004D0000030AE007830EC006C08AF0021006E08F0
:1004E0008B317323813178302000AD000030AE00B5
:1004F0000B30EC006C08AF0021006E088B317323C9
:10050000813179302000AD000030AE000930EC00C0
:100510006C08AF0021006E088B31732381317A3073
:100520002000AD000030AE000A30EC006C08AF00D7
:1005300021006E088B31732381317B302000AD00A8
:100540000030AE000A30EC006C08AF0021006E08ED
:100550008B3173238131222B6030AD000030AE002F
:100560000F30EC006C08AF0021006E088B31732354
:10057000813163302000AD000030AE000D30EC0062
:100580006C08AF0021006E088B3173238131693014
:100590002000AD000030AE00B830EC006C08AF00B9
:1005A00021006E088B317323813178302000AD003B
:1005B0000030AE000F30EC006C08AF0021006E0878
:1005C0008B317323813179302000AD000030AE00D3
:1005D0000D30EC006C08AF0021006E088B317323E6
:1005E00081317A302000AD000030AE000E30EC00DA
:1005F0006C08AF0021006E088B31732381317B3092
:100600002000AD000030AE000E30EC006C08AF00F2
:1006100021006E088B3173238131222B6B0820005F
:10062000EC00ED016D08003A0319172B3C2B6C0808
:10063000003A0319E829013A03194A2A033A03192F
:10064000AC2A3C2B21006A082000CA00210069085E
:100650002000C900210068082000C80021006708A8
:100660002000C70083313D23813121006B08200029
:10067000EC006C082100CE00080020004A08031D91
:100680004B2B4908031D4B2BB13047021130483B1F
:1006900003184B2B4C2B4D2B9D2CB0302000CB0046
:1006A0001130CC000030CD000030CE004B08C70226
:1006B0004C08C83B4D08C93B4E08CA3B4A08D60007
:1006C0004908D5004808D4004708D3005608031D40
:1006D000732BE1305302C830543B1030553B031CA0
:1006E000722B732B742B9D2C01302000D636D50C29
:1006F000D40CD30C890B752B6030A5000030A600FC
:1007000021006E088B31BA2383318F311327833157
:1007100020002308DA002208D9002108D800200888
:10072000D7000030A3000030A2000330A100E83061
:10073000A0005A08A7005908A6005808A5005708A5
:10074000A4008A31E822833120002308D200220845
:10075000D1002108D0002008CF005208031DB92B7A
:100760005108031DB92B01305002031CB82BB92BC3
:10077000C22B00302000D2000030D1000030D00069
:10078000FF30CF004B302000AD000030AE004F08EE
:10079000CB004B08AF0021006E088B3173238331EF
:1007A0005A302000BE000030BF000030A3000030EF
:1007B000A2000030A1000130A0005A08A70059088B
:1007C000A6005808A5005708A4008A31E822833102
:1007D00020002308B3002208B2002108B10020083D
:1007E000B0008C310324833120003108C10030086F
:1007F000C00021006E088C31EB2483315E30200074
:10080000BE000030BF005608A3005508A2005408DF
:10081000A1005308A0005A08A7005908A6005808CC
:10082000A5005708A4008A31E8228331200023085C
:10083000B3002208B2002108B1002008B0008C31BA
:100840000324833120003108C1003008C00021009A
:100850006E088C31EB24833163302000A50000301A
:10086000A60021006E088B31BA2383318F31132704
:10087000833120002308DA002208D9002108D8009B
:100880002008D7005C30BE000030BF000030A3005D
:100890000030A2000030A1000130A0005A08A700DB
:1008A0005908A6005808A5005708A4008A31E82274
:1008B000833120002308B3002208B2002108B100D0
:1008C0002008B0008C310324833120003108C1009E
:1008D0003008C00021006E088C31EB248331613078
:1008E0002000BE000030BF005608A3005508A2003B
:1008F0005408A1005308A0005A08A7005908A600F0
:100900005808A5005708A4008A31E8228331200046
:100910002308B3002208B2002108B1002008B0006B
:100920008C310324833120003108C1003008C0001D
:1009300021006E088C31EB248331080088316D2052
:10094000843180312A20843100302000C7000030FB
:10095000C6000030C5003230C40089310C2184311A
:100960009731AF2784318B170B1722008E150D306E
:100970002100ED002D30EC00D730890BBD2CEC0BA5
:10098000BD2CED0BBD2C003222008E110D3021004C
:10099000ED002D30EC00D730890BCC2CEC0BCC2C9F
:1009A000ED0BCC2C003222008E150D302100ED0015
:1009B0002D30EC00D730890BDB2CEC0BDB2CED0B56
:1009C000DB2C003222008E1121005303031DE92C81
:1009D000EA2CCD2D22008E158A31A92284312000E7
:1009E0003D082100CA0020003C082100C900033056
:1009F000F0000030F1004A08F3004908F2008A31A3
:100A00006D22843171082200A1007008A000FF301F
:100A1000F4000030F500973183278431293021001C
:100A2000ED009630EC007F30890B142DEC0B142D6B
:100A3000ED0B142D3F30F4000130F5009731832782
:100A4000843129302100ED009630EC007F30890B95
:100A5000272DEC0B272DED0B272D6F30F4000130E7
:100A6000F50097318327843129302100ED0096303D
:100A7000EC007F30890B3A2DEC0B3A2DED0B3A2D23
:100A80009F30F4000130F5009731832784312930FD
:100A90002100ED009630EC007F30890B4D2DEC0BE2
:100AA0004D2DED0B4D2DCF30F4000130F500973179
:100AB0008327843129302100ED009630EC007F300F
:100AC000890B602DEC0B602DED0B602DFF30F400D9
:100AD0000130F50097318327843129302100ED0062
:100AE0009630EC007F30890B732DEC0B732DED0BE2
:100AF000732D3F30F4000230F500973183278431A5
:100B000029302100ED009630EC007F30890B862DD6
:100B1000EC0B862DED0B862D6F30F4000230F500C6
:100B200097318327843129302100ED009630EC0085
:100B30007F30890B992DEC0B992DED0B992D9F3062
:100B4000F4000230F50097318327843129302100E9
:100B5000ED009630EC007F30890BAC2DEC0BAC2D0A
:100B6000ED0BAC2DCF30F4000230F5009731832728
:100B7000843129302100ED009630EC007F30890B64
:100B8000BF2DEC0BBF2DED0BBF2DFF30F40002305D
:100B9000F500973183278431E42C22008E11E42C58
:100BA000803115282000C300200043088931F82136
:100BB0008531003A0319DD2DDE2DD42D20002708C4
:100BC000AB002808AC002908AD002A08AE00183098
:100BD000AE36AD0CAC0CAB0C890BE82D0030AF0081
:100BE000FF30B0000030B1000030B2002708B30081
:100BF0002808B4002908B5002A08B6000830B6361F
:100C0000B50CB40CB30C890BFF2D3308AF053408B9
:100C1000B0053508B1053608B2050030B700003020
:100C2000B800FF30B9000030BA002708BB00280820
:100C3000BC002908BD002A08BE000830BB35BC0D29
:100C4000BD0DBE0D890B1E2E3B08B7053C08B8052F
:100C50003D08B9053E08BA052708BF002808C000AE
:100C60002908C1002A08C2001830BF35C00DC10DC7
:100C7000C20D890B352E3F08B7044008B80441085F
:100C8000B9044208BA043708AF043808B004390878
:100C9000B1043A08B2042F08AB043008AC043108A0
:100CA000AD043208AE042E08AA002D08A9002C08B5
:100CB000A8002B08A700BE30F5001730F60027303B
:100CC000AB002B08F70097314F278531200026080D
:100CD000AC002508AB002C08AB00AC012508AE0029
:100CE000AD012B082D04A5002C082E04A6002530EC
:100CF000F0000030F1000230F2000030F3009731D4
:100D0000A02785310030F500F600F70197317627EE
:100D100085319631D72685318831A1208531013A38
:100D20000319932E942E8C2E080021006208FD00DA
:100D30006108FC0000302000A0000430A100003059
:100D4000A2000030A3007C08F0007D08F100F20151
:100D5000F3010030F7000030F6000730F500DB301B
:100D6000F4008931C521863170082000A007710880
:100D7000A13D7208A23D7308A33D0B30A336A20C1F
:100D8000A10CA00C890BBE2E21082100BF00200061
:100D900020082100BE00152F0530A00020082100EA
:100DA000C000472F0D30A00020082100C000472FB1
:100DB0000A30A00020082100C000472F0430A00006
:100DC00020082100C000472F0230A0002008210089
:100DD000C000472F2100C001C00A472F0730A000E4
:100DE00020082100C000472F0930A0002008210062
:100DF000C000472F0330A00020082100C000472F6B
:100E000021005608031D052F062F0D2F0630200048
:100E1000A00020082100C000472FC001472FFF304D
:100E2000A00020082100C000472F54082000A00087
:100E3000A1012108003A03191E2F0F2F2008013AA3
:100E40000319CC2E033A0319CC2E013A0319CC2EE8
:100E5000073A0319E42E013A0319DE2E033A031967
:100E6000EA2E013A0319EE2E0F3A0319FA2E013A2F
:100E70000319002F053A0319F42E013A0319D22E53
:100E80001C3A0319CC2E033A0319D82E0F2F080051
:100E90008831022087310330D43E86008701403FED
:100EA0002000B800413FB9003908B800B90121005D
:100EB00057082000BB00BA0138083A042100D700C7
:100EC000200039083B042100D8000730D43E8600BA
:100ED0008701403F2000B800413FB9003908B80001
:100EE000B90121005B082000BB00BA0138083A04B0
:100EF0002100DB00200039083B042100DC000D301C
:100F0000D43E86008701403F2000B800413FB90031
:100F10003908B800B901210061082000BB00BA01FE
:100F200038083A042100E100200039083B04210080
:100F3000E2000F30D43E86008701403F2000B80019
:100F4000413FB9003908B800B90121006308200009
:100F5000BB00BA0138083A042100E3002000390838
:100F60003B042100E4005108031DB72FB82FBE2F0A
:100F70008E31AE2687312100D101D10A86319526E6
:100F8000873186302000AD000030AE00AF01AF0ADF
:100F900021006E088B317323873121006208200005
:100FA000B700210061082000B6000800F4007008B6
:100FB00071040319DC2FDD2FEE2F7435A03E86005F
:100FC00087017008C03F7108C13F7208F3007408C0
:100FD000AC3E8600870173088100FB2F7435A03E6C
:100FE000860087010030C03F0830C13F7408AC3E26
:100FF0008600870181010800240096121616080059
:101000000130080089302000A5000030A600D4304F
:10101000B3003308A7001130A8000030A900210058
:101020006E088C319924883108007908F000FF3966
:10103000031D0030F1000130F2000030F300973161
:10104000A02788310030F500F600F70197314F27CF
:101050008831043008007908F000FF39031D0030A2
:10106000F1000230F2000030F3009731A027883100
:101070000030F500F600F70197314F278831043032
:1010800008007108F3007008F200F336F20CF33632
:10109000F20C72082C00980070080339F200053039
:1010A000F235FF3E031D5028723597000800710885
:1010B000F3007008F200F336F20CF336F20C72080B
:1010C0002C009B0070080339F2000530F235FF3E1A
:1010D000031D662872359A0008009631FB26883178
:1010E00097311C2788318A31322288319731252760
:1010F000883196319D268831973143278831973141
:101100000327883197313727883108007908023E54
:1011100086008701403FF000413FF10079088600DA
:101120008701403FF200413FF3009731A02788310B
:101130000030F500F600F70197314F278831023073
:101140000800F101F10A2100BD18A728A828BB2832
:101150003D11FF30F0007008B60096317E268831D0
:1011600096318426883196318126883121003C08C9
:10117000F0007008F100710808002000A300A4012D
:10118000A40A2100BD18C528C628DD28BD142000EA
:10119000A40123080319CD28CE28D2282100BB01A1
:1011A000BB0AD7280230FD007D082100BB00963124
:1011B0008726883197315C27883120002408080071
:1011C00021003D100230FA007A08BC00EF28963169
:1011D000B92688310B299631BE2688310B292E0875
:1011E000FA007A08F9000430A03E86008701413FEA
:1011F0008A00403F0A008831FB00FC017C08003A6D
:1012000003190329EB287B08023A0319E728013A5E
:101210000319E728EB2808006C302000A5000030F7
:10122000A6000030AA000030A9000030A8006430F9
:10123000A70021006E088531D22589318630200033
:10124000AD000030AE00AF01AF0A21006E088B3157
:101250007323893187302000AD000030AE0040306C
:10126000C8004808AF0021006E088B317323893114
:10127000080096317E26893121003D1C40294129F4
:101280004F299631E2268931003A03194829492924
:101290004F290F302000A00020082100BB002100B2
:1012A0003B082000A000A101A035A10D00302007BF
:1012B00084009030213D8500013F8A00003F0A00F4
:1012C00089312000A20022082100BB000800210073
:1012D000BD1577299631B9268931952996319626FB
:1012E0008931033095299631BE26893195292C08FC
:1012F000FA007A08F90021088A0020080A008931DA
:10130000FB00FC017C08003A0319872973297B083C
:10131000013A03197329033A03196A29013A031997
:101320006A29073A03196E29732908000130200041
:10133000B2000030B3000030B4000030B500FF3020
:101340002E05B60000302F05B7003608B800370864
:10135000B900BA01BB012F08890AB229B835B90D05
:10136000BA0DBB0D890BAE293808B2073908B33D59
:101370003A08B43D3B08B53D3508B1003408B0002B
:101380003308AF003208AE0008000030FB00003028
:10139000FA000030F9000030F800701CD029D12983
:1013A000D9297408F8077508F93D7608FA3D7708D9
:1013B000FB3D0130F435F50DF60DF70D890BDA29FB
:1013C0000130F336F20CF10CF00C890BE1297308B3
:1013D000720471047004031DEE29EF29CD297B08E6
:1013E000F3007A08F2007908F1007808F0000800AC
:1013F000F100F201F20A21003D19FF29002A302AEA
:101400007108F0007008B600BD103D153D100E309B
:10141000F0007008BB00F430B4000130B500BD1519
:101420000030A0000830A100AC010030A20008305C
:10143000A300AD010030A4000830A500AE010030CB
:10144000A6000830A700AF010230A8000030A900B4
:10145000B00196317E268931973169278931F201B1
:1014600072080800203022008C008E010730210015
:101470008C0017308E002C3023008E0037308C000B
:1014800024008C018E0125008C018E01373026004E
:101490008C003F308E003F3027008C003F308E00A4
:1014A0001912181217169930F0001630F100963103
:1014B000DC268A312100101619303D00A0001130C1
:1014C0003C00A00002303D0094001830A100033021
:1014D000A50010303C00A1000800F501F6017008DD
:1014E00071040319742A752AA42AF701F70A812ABC
:1014F0000130F035F10D890B792A0130F4007408C0
:10150000F707F11F842A852A782A0130F535F60D70
:10151000890B862A71087302031D902A70087202D3
:10152000031C932A942A992A7008F2027108F33B4B
:1015300075140130F136F00C890B9A2A0130F7024C
:10154000031DA32AA42A852A7608F1007508F00055
:1015500008002000C201C301C001C1018731482732
:101560008A3120003608C2073708C33D0130C00762
:101570000030C13D4108803ABE0080303E02031D6C
:10158000C32A08304002031CC62AC72AAE2A2000FC
:101590004308BF004208BE00BF36BE0CBF36BE0CBB
:1015A000BF36BE0C3E08C2003F08C3000D304302E8
:1015B000AD3003194202031CDE2ADF2AE32AAC30D5
:1015C000C2000D30C3004308BD004208BC00080043
:1015D00020002708F3002608F2002508F10024085F
:1015E000F0002408A8002508A9002608AA0027085A
:1015F000AB000130AB36AA0CA90CA80C890BFA2A57
:101600002008AC002108AD002208AE002308AF007E
:101610000C30AC35AD0DAE0DAF0D890B092B2C0880
:10162000A8072D08A93D2E08AA3D2F08AB3D2B0881
:10163000F7002A08F6002908F5002808F4008D3183
:10164000F4258A3173082000A3007208A2007108F3
:10165000A1007008A0000800963193268B31FA0093
:10166000210037088600380887007A088100013099
:10167000B7070030B83D0130B9020030BA3B390835
:101680003A040319442B452B4A2B8731FC278B3115
:101690000530722BBD15542B9631CD268B31722B14
:1016A0009631C8268B31722B2C08FA007A08F90083
:1016B00021088A0020080A008B31FB00FC017C080D
:1016C000003A0319642B502B7B08013A0319502B65
:1016D000033A03194C2B013A03194C2B073A03190F
:1016E000502B502B08002000B40020003408893112
:1016F000F8218B31003A03197E2B7F2B752B153087
:10170000F5000830F6002F302000B0003008F70058
:1017100097314F278B3120002E08B1002D08B000E3
:101720003108B000B1012D08B300B2013008320415
:10173000AD0031083304AE002D30F0000030F10070
:101740000230F2000030F3009731A0278B310030D7
:10175000F500F600F701973176278B319631D726C1
:101760008B318831A1208B31013A0319B82BB92B69
:10177000B12B08002000AB00AC012608A80025080A
:10178000A7002808A700A8012508AA00A901270882
:101790002904A50028082A04A60020002B08893166
:1017A000F8218B31003A0319D62BD72BCD2BD4300F
:1017B000F5001730F6002C302000A7002708F700AE
:1017C00097314F278B312530F0000030F100023087
:1017D000F2000030F3009731A0278B310030F50084
:1017E000F600F701973176278B319631D7268B316A
:1017F0008831A1208B31013A0319FF2B002CF82BE3
:1018000020002C0808002000B801B9013308320478
:101810003104300403190D2C0E2C4A2CFF303007F4
:10182000BA00FF30313DBB00FF30323DBC00FF301D
:10183000333DBD00262C0130BD36BC0CBB0CBA0CB0
:10184000890B1C2C0130B8070030B93D00303A0537
:10185000B400FF303B05B500FF303C05B600FF305B
:101860003D05B7003708360435043404031D392C10
:101870003A2C1B2CFF303A05B40000303B05B50074
:101880003808B700B60134083604B000350837040C
:10189000B1004C2CB001B10108007130860000305D
:1018A00087000830F00000301E00F00B542C2000A0
:1018B000201C5B2C5C2C6C2C2808F1072908F23DBD
:1018C0002A08F33D2B08F43D2C08F53D2D08F63D84
:1018D0002E08F73D2F08F83DA835A90DAA0DAB0D30
:1018E000AC0DAD0DAE0DAF0DA736A60CA50CA40C1E
:1018F000A30CA20CA10CA00C200821042204230498
:101900002404250426042704031D872C882C572C27
:101910007108A0007208A1007308A2007408A30057
:101920007508A4007608A5007708A6007808A70027
:1019300008002000AE002708AA00AB012A08B10069
:101940002B08B2002908B0002808AF0020002E089C
:101950008931F8218C31003A0319AF2CB02CA62C18
:101960008630F5000830F6002F302000AA002A0843
:10197000F70097314F278C3120002608AB0025084F
:10198000AA002B08AA00AB012508AD00AC012A086B
:101990002C04A5002B082D04A6002530F0000030F3
:1019A000F1000230F2000030F3009731A0278C31B3
:1019B0000030F500F600F701973176278C3196312B
:1019C000D7268C318831A1208C31013A0319E92CBA
:1019D000EA2CE22C08002000C600200046088931CD
:1019E000F8218C31003A0319F62CF72CED2C20004D
:1019F0004108C3004008C2004308C200C3014008B8
:101A0000C500C40142084404C00043084504C100A5
:101A10002B30F5000830F6004030C2004208F700D5
:101A200097314F278C3120003F08C3003E08C20089
:101A30004308C200C3013E08C500C4014208440473
:101A4000BE0043084504BF003E30F0000030F10006
:101A50000230F2000030F3009731A0278C310030C3
:101A6000F500F600F701973176278C319631D726AD
:101A70008C318831A1208C31013A0319402D412D40
:101A8000392D08009631E2268D31003A0319492D8F
:101A90004A2D7A2D572D9631AF268D31992D9631BD
:101AA000B4268D31992D9631BE268D31992D210088
:101AB0002F08FA007A08F9000630A03E8600870158
:101AC000413F8A00403F0A008D31FB00FC017C0849
:101AD000003A03196C2D532D7B08013A0319532D3D
:101AE000033A03194B2D013A03194F2D073A0319F5
:101AF000532D532D21003D103808FB003708FA0004
:101B0000B70A0319B80A7A0886007B08870001081B
:101B10009631A5268D3101302100B9020030BA3B43
:101B200039083A04031D952D962D982D0630992DD0
:101B3000033008002000AB00AC01AD0120002B08F1
:101B40008931F8218D31003A0319A72DA82D9E2D3A
:101B5000EA30F5001730F6002C302000A7002708E7
:101B6000F70097314F278D3120002608A80025085F
:101B7000A7002808A700A8012508AA00A90127088E
:101B80002904A50028082A04A6002530F00000300A
:101B9000F1000230F2000030F3009731A0278D31C0
:101BA0000030F500F600F701973176278D31963138
:101BB000D7268D318831A1208D31013A0319E12DCD
:101BC000E22DDA2D20002D08A8002C08A7002808F7
:101BD000A700A8012C08AA00A90127082904A5002C
:101BE00028082A04A60008000030FC000030FB0092
:101BF0000030FA000030F9007308720471047004B8
:101C00000319032E042E452EFD01FD0A122E01306C
:101C1000F035F10DF20DF30D890B082E0130F800AF
:101C20007808FD07F31F152E162E072E0130F93503
:101C3000FA0DFB0DFC0D890B172E73087702031D9F
:101C40002B2E72087602031D2B2E71087502031DC0
:101C50002B2E70087402031C2E2E2F2E382E700887
:101C6000F4027108F53B7208F63B7308F73B7914F0
:101C70000130F336F20CF10CF00C890B392E0130E7
:101C8000FD02031D442E452E162E7C08F3007B0812
:101C9000F2007A08F1007908F000080060302000B6
:101CA000A5000030A60021006E088B31BA238E31CA
:101CB0008F3113278E3120002308E7002208E60029
:101CC0002108E5002008E4005E30A5000030A600F1
:101CD00021006E088D319A258E3120002608AF0034
:101CE0002508AE00893196218E3120003108BF00D1
:101CF0003008BE002F08BD002E08BC006708C300D6
:101D00006608C2006508C1006408C0008F318927D9
:101D10008E3120003F08EB003E08EA003D08E90054
:101D20003C08E8006808E0006908E1006A08E20091
:101D30006B08E3000130E035E10DE20DE30D890BA6
:101D40009B2EB0306007DC001130613DDD000030BB
:101D5000623DDE000030633DDF0008000B302000F4
:101D6000A5000030A60021006E088B31BA238E3109
:101D70002000B50035082100D00008302000A50063
:101D80000030A60021006E088B31BA238E3120006E
:101D9000B50035082100CF000B302000AD00003029
:101DA000AE00210050087F392000B5003508AF0093
:101DB00021006E088B3173238E3108302000AD0076
:101DC0000030AE0021004F0803390C3E2000B50062
:101DD0003508AF0021006E088B3173238E314D30F2
:101DE0002000AD000030AE00AF01AF0A21006E0848
:101DF0008B3173238E3147302000AD000030AE00B0
:101E0000D830A5000030A60021006E088B31BA231F
:101E10008E312000B5003508AF0021006E088B31EF
:101E200073238E3108002000AC0021006508F0000B
:101E30006608F100F201F3014030F7000030F600CF
:101E40000030F5000030F4008D31F4258F31730837
:101E50002000AB007208AA007108A9007008A80051
:101E60002C35023EA4002408AD002B08F3002A08FC
:101E7000F2002908F1002808F0000030F7000030D7
:101E8000F6000930F5000030F4008931C5218F31AA
:101E900073082000B1007208B0007108AF0070082C
:101EA000AE000630B136B00CAF0CAE0C890B522F21
:101EB0002D08A400A501A601A7012708F300260804
:101EC000F2002508F1002408F0003108F70030087E
:101ED000F6002F08F5002E08F4008931C5218F3156
:101EE00073082000B1007208B0007108AF007008DC
:101EF000AE000630B136B00CAF0CAE0C890B7A2FA9
:101F00003108A3003008A2002F08A1002E08A0006D
:101F1000080000302000C4000830C5000030C600B2
:101F20000030C7000030C8000030C9000030CA00CF
:101F30000030CB003C08CC003D08CD003E08CE0070
:101F40003F08CF00D001D101D201D3015308A7002F
:101F50005208A6005108A5005008A4004F08A3008D
:101F60004E08A2004D08A1004C08A0004008D40073
:101F70004108D5004208D6004308D700D801D9014E
:101F8000DA01DB015B08AF005A08AE005908AD006A
:101F90005808AC005708AB005608AA005508A9001D
:101FA0005408A8008C314D248F3120002030860049
:101FB00000308700403FC407413FC53D423FC63D1A
:101FC000433FC73D443FC83D453FC93D463FCA3DED
:101FD000473FCB3D0C302000CB36CA0CC90CC80C97
:101FE000C70CC60CC50CC40C890BEB2F200047088E
:101FF000BF004608BE004508BD004408BC000800FC
:10200000AA3416342E3417340B34173442340D34BA
:102010002C340B34F434163467340934AF341634AA
:10202000B4341634B9341634BE341634C3341634CA
:10203000C8341634CD341634D2341634E03408346F
:10204000723461346E3467346534203476346134EC
:102050006C34693464342C3420346E346F3420345E
:1020600077347234613470342034633468346534C6
:1020700063346B3420346634613469346C34003436
:10208000723461346E3467346534203476346134AC
:102090006C34693464342C3420346D3469346E34D7
:1020A0002034723461346E346734653420346334E0
:0E20B0006C3469347034703465346434003438
:102CFC002000911108002400951208002100911168
:102D0C00080024001614080024009614080024005F
:102D1C001615080024009615080024001108080058
:102D2C002000911508002100D301D30A08001630A9
:102D3C002100970008002400961616160800F000D3
:102D4C0070082400910008002100BD10BC010E3059
:102D5C00080096318A2696310130080096318A2671
:102D6C0096310230080096318A26963101300800DF
:102D7C0096318D269631003008008731FC2796312C
:102D8C00053008009631A12696310A30080096319C
:102D9C00A1269631093008002100BD10BC010E306F
:102DAC00080000308831BD209631080071082200DF
:102DBC00A9007008A80008002400160E890C890CC4
:102DCC00013908002000911DEC2EED2EE82E080094
:102DDC00640080010131890BEF2E003421003D107D
:102DEC009631902696310430080032009101920100
:102DFC0093019401950196010800FF3020009E007C
:102E0C009D0191107F309F00080021003D14363544
:102E1C009631A5269731033008002700191E172F6D
:102E2C00182F1B2F973191279731080024009401FC
:102E3C000830950096019F30920095120800603082
:102E4C00320099009B019D0107309F009E010800F4
:102E5C0021003D140314360D9631A526973105300B
:102E6C00080080302C0099007F309800C03097000B
:102E7C001F08FC3901389F00080080302C009C0092
:102E8C007F309B00C0309A001F08F33904389F0034
:102E9C0008007608F1007508F0007708F80078084B
:102EAC00F20000308731D62797310800632F963116
:102EBC00E82697318931392197312100BD18672FC8
:102ECC00682F5D2F08002400951A6D2F6E2F752F1B
:102EDC0094010830950096019F30920095160800D9
:102EEC007608F1007508F0007708F8007808F20011
:102EFC0002308731D627973108000030F000F100FE
:102F0C008831572097317508F1007408F00088312A
:102F1C004120973108002200280829040319972F13
:102F2C00982F9D2F29088A0028080A00973127001E
:102F3C00191208002100BD1DA42FA52FAE2F71085A
:102F4C00B8007008B7007308BA007208B900BD1158
:102F5C0008002100D3010030F000F100883141203D
:102F6C0097310030F000F10088315720973108007C
:102F7C007908F000FF39031D0030F1000430F20035
:102F8C000030F3009731A02797310030F500F600A0
:102F9C00F70197314F279731043008007908F0007A
:102FAC00FF39031D0030F1000130F2000030F30056
:102FBC009731A02797310030F500F600F7019731D3
:102FCC004F279731023008007908F000FF39031DB4
:102FDC000030F1000230F2000030F3009731A027EE
:102FEC0097310030F500F600F70197314F279731F4
:102FFC0002300800733479346E34633468347234BC
:10300C006F346E3469347A346134743469346F34A7
:10301C006E34203469346E34743400346F34753447
:10302C00743420346F346634203462346F34753425
:10303C006E346434733420346634613469346C34E3
:10304C0000347834743461346C346B34203473341D
:10305C00693467346E3461346C34203466346134D2
:10306C0069346C3400347734723461347034203405
:10307C007434613472346734653474342034663497
:10308C00613469346C3400346D3469346E342034FA
:10309C00723461346E346734653420346634613490
:1030AC0069346C34003475346E346B346E346F3474
:1030BC0077346E342034733474346134743475342E
:1030CC00733400346834613472346434773461346A
:1030DC007234653420346634613469346C340034B1
:1030EC00723461346E346734653420347634613430
:1030FC006C346934643400347334693467346D343B
:10310C00613420346634613469346C3400346E3488
:10311C006F342034753470346434613474346534F1
:10312C000034B034113400340034B0341134003471
:10313C000034B03411340034003400340A34003418
:06314C000A3400340A34CD
:020000040001F9
:08000000FF3FFF3FFF3FFF3F00
:08000E00EC3FF33FFF3FFF3F11
:00000001FF
