

Microchip MPLAB XC8 Assembler V2.36 build 20220127204148 
                                                                                               Sun Nov 20 09:20:00 2022

Microchip MPLAB XC8 C Compiler v2.36 (Free license) build 20220127204148 Og1 
     1                           	processor	16F18325
     2                           	pagewidth 120
     3                           	opt	flic
     4                           	psect	stringtext1,global,class=STRCODE,delta=2,noexec
     5                           	psect	stringtext2,global,class=STRCODE,delta=2,noexec
     6                           	psect	stringtext3,global,class=STRCODE,delta=2,noexec
     7                           	psect	stringtext4,global,class=STRCODE,delta=2,noexec
     8                           	psect	stringtext5,global,class=STRCODE,delta=2,noexec
     9                           	psect	stringtext6,global,class=STRCODE,delta=2,noexec
    10                           	psect	stringtext7,global,class=STRCODE,delta=2,noexec
    11                           	psect	nvBANK1,global,class=BANK1,space=1,delta=1,noexec
    12                           	psect	nvBANK2,global,class=BANK2,space=1,delta=1,noexec
    13                           	psect	stringtext8,global,class=STRCODE,delta=2,noexec
    14                           	psect	stringtext9,global,class=STRCODE,delta=2,noexec
    15                           	psect	stringtext10,global,class=STRCODE,delta=2,noexec
    16                           	psect	stringtext11,global,class=STRCODE,delta=2,noexec
    17                           	psect	stringtext12,global,class=STRCODE,delta=2,noexec
    18                           	psect	stringtext13,global,class=STRCODE,delta=2,noexec
    19                           	psect	stringtext14,global,class=STRCODE,delta=2,noexec
    20                           	psect	stringtext15,global,class=STRCODE,delta=2,noexec
    21                           	psect	stringtext16,global,class=STRCODE,delta=2,noexec
    22                           	psect	stringtext17,global,class=STRCODE,delta=2,noexec
    23                           	psect	stringtext18,global,class=STRCODE,delta=2,noexec
    24                           	psect	stringtext19,global,class=STRCODE,delta=2,noexec
    25                           	psect	stringtext20,global,class=STRCODE,delta=2,noexec
    26                           	psect	cinit,global,class=CODE,merge=1,delta=2
    27                           	psect	bssBANK1,global,class=BANK1,space=1,delta=1,noexec
    28                           	psect	bssBANK2,global,class=BANK2,space=1,delta=1,noexec
    29                           	psect	clrtext,global,class=CODE,delta=2
    30                           	psect	cstackBANK1,global,class=BANK1,space=1,delta=1,noexec
    31                           	psect	cstackCOMMON,global,class=COMMON,space=1,delta=1,noexec
    32                           	psect	cstackBANK0,global,class=BANK0,space=1,delta=1,noexec
    33                           	psect	maintext,global,class=CODE,merge=1,split=1,delta=2
    34                           	psect	text1,local,class=CODE,merge=1,delta=2
    35                           	psect	text2,local,class=CODE,merge=1,delta=2
    36                           	psect	text3,local,class=CODE,merge=1,delta=2
    37                           	psect	text4,local,class=CODE,merge=1,delta=2
    38                           	psect	text5,local,class=CODE,merge=1,delta=2
    39                           	psect	text6,local,class=CODE,merge=1,delta=2
    40                           	psect	text7,local,class=CODE,merge=1,delta=2
    41                           	psect	text8,local,class=CODE,merge=1,delta=2
    42                           	psect	text9,local,class=CODE,merge=1,delta=2
    43                           	psect	text10,local,class=CODE,merge=1,delta=2
    44                           	psect	text11,local,class=CODE,merge=1,delta=2,group=1
    45                           	psect	text12,local,class=CODE,merge=1,delta=2
    46                           	psect	text13,local,class=CODE,merge=1,delta=2
    47                           	psect	text14,local,class=CODE,merge=1,delta=2
    48                           	psect	text15,local,class=CODE,merge=1,delta=2
    49                           	psect	text16,local,class=CODE,merge=1,delta=2
    50                           	psect	text17,local,class=CODE,merge=1,delta=2
    51                           	psect	text18,local,class=CODE,merge=1,delta=2
    52                           	psect	text19,local,class=CODE,merge=1,delta=2
    53                           	psect	text20,local,class=CODE,merge=1,delta=2
    54                           	psect	text21,local,class=CODE,merge=1,delta=2
    55                           	psect	text22,local,class=CODE,merge=1,delta=2
    56                           	psect	text23,local,class=CODE,merge=1,delta=2,group=1
    57                           	psect	text24,local,class=CODE,merge=1,delta=2
    58                           	psect	text25,local,class=CODE,merge=1,delta=2
    59                           	psect	text26,local,class=CODE,merge=1,delta=2,group=1
    60                           	psect	text27,local,class=CODE,merge=1,delta=2,group=1
    61                           	psect	text28,local,class=CODE,merge=1,delta=2
    62                           	psect	text29,local,class=CODE,merge=1,delta=2
    63                           	psect	text30,local,class=CODE,merge=1,delta=2
    64                           	psect	text31,local,class=CODE,merge=1,delta=2
    65                           	psect	text32,local,class=CODE,merge=1,inline,delta=2
    66                           	psect	text33,local,class=CODE,merge=1,delta=2
    67                           	psect	text34,local,class=CODE,merge=1,delta=2
    68                           	psect	text35,local,class=CODE,merge=1,delta=2
    69                           	psect	text36,local,class=CODE,merge=1,inline,delta=2
    70                           	psect	text37,local,class=CODE,merge=1,inline,delta=2
    71                           	psect	text38,local,class=CODE,merge=1,delta=2
    72                           	psect	text39,local,class=CODE,merge=1,delta=2
    73                           	psect	text40,local,class=CODE,merge=1,delta=2
    74                           	psect	text41,local,class=CODE,merge=1,delta=2
    75                           	psect	text42,local,class=CODE,merge=1,delta=2
    76                           	psect	text43,local,class=CODE,merge=1,delta=2
    77                           	psect	text44,local,class=CODE,merge=1,delta=2
    78                           	psect	text45,local,class=CODE,merge=1,delta=2
    79                           	psect	text46,local,class=CODE,merge=1,delta=2
    80                           	psect	text47,local,class=CODE,merge=1,delta=2
    81                           	psect	text48,local,class=CODE,merge=1,delta=2
    82                           	psect	text49,local,class=CODE,merge=1,delta=2
    83                           	psect	text50,local,class=CODE,merge=1,delta=2
    84                           	psect	text51,local,class=CODE,merge=1,delta=2
    85                           	psect	text52,local,class=CODE,merge=1,delta=2
    86                           	psect	text53,local,class=CODE,merge=1,delta=2
    87                           	psect	text54,local,class=CODE,merge=1,inline,delta=2
    88                           	psect	text55,local,class=CODE,merge=1,inline,delta=2
    89                           	psect	text56,local,class=CODE,merge=1,inline,delta=2
    90                           	psect	text57,local,class=CODE,merge=1,inline,delta=2
    91                           	psect	text58,local,class=CODE,merge=1,inline,delta=2
    92                           	psect	text59,local,class=CODE,merge=1,inline,delta=2
    93                           	psect	text60,local,class=CODE,merge=1,inline,delta=2
    94                           	psect	text61,local,class=CODE,merge=1,delta=2
    95                           	psect	text62,local,class=CODE,merge=1,delta=2
    96                           	psect	text63,local,class=CODE,merge=1,delta=2
    97                           	psect	text64,local,class=CODE,merge=1,delta=2
    98                           	psect	text65,local,class=CODE,merge=1,delta=2
    99                           	psect	text66,local,class=CODE,merge=1,delta=2
   100                           	psect	text67,local,class=CODE,merge=1,delta=2
   101                           	psect	text68,local,class=CODE,merge=1,delta=2
   102                           	psect	text69,local,class=CODE,merge=1,delta=2
   103                           	psect	text70,local,class=CODE,merge=1,delta=2
   104                           	psect	text71,local,class=CODE,merge=1,delta=2
   105                           	psect	text72,local,class=CODE,merge=1,inline,delta=2
   106                           	psect	text73,local,class=CODE,merge=1,inline,delta=2
   107                           	psect	text74,local,class=CODE,merge=1,inline,delta=2
   108                           	psect	text75,local,class=CODE,merge=1,delta=2
   109                           	psect	text76,local,class=CODE,merge=1,inline,delta=2
   110                           	psect	text77,local,class=CODE,merge=1,inline,delta=2
   111                           	psect	text78,local,class=CODE,merge=1,inline,delta=2
   112                           	psect	text79,local,class=CODE,merge=1,delta=2
   113                           	psect	text80,local,class=CODE,merge=1,delta=2
   114                           	psect	text81,local,class=CODE,merge=1,delta=2
   115                           	psect	text82,local,class=CODE,merge=1,delta=2
   116                           	psect	text83,local,class=CODE,merge=1,delta=2
   117                           	psect	text84,local,class=CODE,merge=1,delta=2
   118                           	psect	text85,local,class=CODE,merge=1,delta=2
   119                           	psect	text86,local,class=CODE,merge=1,delta=2
   120                           	psect	text87,local,class=CODE,merge=1,delta=2
   121                           	psect	text88,local,class=CODE,merge=1,delta=2
   122                           	psect	intentry,global,class=CODE,delta=2
   123                           	psect	text90,local,class=CODE,merge=1,delta=2
   124                           	psect	text91,local,class=CODE,merge=1,delta=2
   125                           	psect	text92,local,class=CODE,merge=1,delta=2
   126                           	psect	idloc,global,abs,ovrld,class=IDLOC,space=5,delta=2,noexec
   127                           	psect	config,global,abs,ovrld,class=CONFIG,space=4,delta=2,noexec
   128                           	dabs	1,0x7E,2
   129  0000                     
   130                           ; Generated 19/07/2022 GMT
   131                           ; 
   132                           ; Copyright © 2022, Microchip Technology Inc. and its subsidiaries ("Microchip")
   133                           ; All rights reserved.
   134                           ; 
   135                           ; This software is developed by Microchip Technology Inc. and its subsidiaries ("Microch
      +                          ip").
   136                           ; 
   137                           ; Redistribution and use in source and binary forms, with or without modification, are
   138                           ; permitted provided that the following conditions are met:
   139                           ; 
   140                           ;     1. Redistributions of source code must retain the above copyright notice, this lis
      +                          t of
   141                           ;        conditions and the following disclaimer.
   142                           ; 
   143                           ;     2. Redistributions in binary form must reproduce the above copyright notice, this 
      +                          list
   144                           ;        of conditions and the following disclaimer in the documentation and/or other
   145                           ;        materials provided with the distribution. Publication is not required when
   146                           ;        this file is used in an embedded application.
   147                           ; 
   148                           ;     3. Microchip's name may not be used to endorse or promote products derived from th
      +                          is
   149                           ;        software without specific prior written permission.
   150                           ; 
   151                           ; THIS SOFTWARE IS PROVIDED BY MICROCHIP "AS IS" AND ANY EXPRESS OR IMPLIED WARRANTIES,
   152                           ; INCLUDING, BUT NOT LIMITED TO, THE IMPLIED WARRANTIES OF MERCHANTABILITY AND FITNESS F
      +                          OR
   153                           ; PURPOSE ARE DISCLAIMED.  IN NO EVENT SHALL MICROCHIP BE LIABLE FOR ANY DIRECT, INDIREC
      +                          T,
   154                           ; INCIDENTAL, SPECIAL, EXEMPLARY, OR CONSEQUENTIAL DAMAGES (INCLUDING BUT NOT LIMITED TO
   155                           ; PROCUREMENT OF SUBSTITUTE GOODS OR SERVICES; LOSS OF USE, DATA OR PROFITS; OR BUSINESS
   156                           ; INTERRUPTION) HOWSOEVER CAUSED AND ON ANY THEORY OF LIABILITY, WHETHER IN CONTRACT, ST
      +                          RICT
   157                           ; LIABILITY, OR TORT (INCLUDING NEGLIGENCE OR OTHERWISE) ARISING IN ANY WAY OUT OF THE U
      +                          SE OF
   158                           ; THIS SOFTWARE, EVEN IF ADVISED OF THE POSSIBILITY OF SUCH DAMAGE.
   159                           ; 
   160                           ; 
   161                           ; Code-generator required, PIC16F18325 Definitions
   162                           ; 
   163                           ; SFR Addresses
   164  0000                     	;# 
   165  0001                     	;# 
   166  0002                     	;# 
   167  0003                     	;# 
   168  0004                     	;# 
   169  0005                     	;# 
   170  0006                     	;# 
   171  0007                     	;# 
   172  0008                     	;# 
   173  0009                     	;# 
   174  000A                     	;# 
   175  000B                     	;# 
   176  000C                     	;# 
   177  000E                     	;# 
   178  0010                     	;# 
   179  0011                     	;# 
   180  0012                     	;# 
   181  0013                     	;# 
   182  0014                     	;# 
   183  0015                     	;# 
   184  0015                     	;# 
   185  0016                     	;# 
   186  0016                     	;# 
   187  0017                     	;# 
   188  0018                     	;# 
   189  0019                     	;# 
   190  0019                     	;# 
   191  001A                     	;# 
   192  001B                     	;# 
   193  001C                     	;# 
   194  001D                     	;# 
   195  001E                     	;# 
   196  001F                     	;# 
   197  008C                     	;# 
   198  008E                     	;# 
   199  0090                     	;# 
   200  0091                     	;# 
   201  0092                     	;# 
   202  0093                     	;# 
   203  0094                     	;# 
   204  0097                     	;# 
   205  009B                     	;# 
   206  009B                     	;# 
   207  009C                     	;# 
   208  009D                     	;# 
   209  009E                     	;# 
   210  009F                     	;# 
   211  010C                     	;# 
   212  010E                     	;# 
   213  0111                     	;# 
   214  0112                     	;# 
   215  0113                     	;# 
   216  0114                     	;# 
   217  0115                     	;# 
   218  0116                     	;# 
   219  0117                     	;# 
   220  0118                     	;# 
   221  0119                     	;# 
   222  018C                     	;# 
   223  018E                     	;# 
   224  0197                     	;# 
   225  0199                     	;# 
   226  0199                     	;# 
   227  0199                     	;# 
   228  019A                     	;# 
   229  019A                     	;# 
   230  019A                     	;# 
   231  019B                     	;# 
   232  019B                     	;# 
   233  019B                     	;# 
   234  019B                     	;# 
   235  019B                     	;# 
   236  019C                     	;# 
   237  019C                     	;# 
   238  019C                     	;# 
   239  019D                     	;# 
   240  019D                     	;# 
   241  019D                     	;# 
   242  019E                     	;# 
   243  019E                     	;# 
   244  019E                     	;# 
   245  019F                     	;# 
   246  019F                     	;# 
   247  019F                     	;# 
   248  019F                     	;# 
   249  019F                     	;# 
   250  020C                     	;# 
   251  020E                     	;# 
   252  0211                     	;# 
   253  0211                     	;# 
   254  0212                     	;# 
   255  0212                     	;# 
   256  0213                     	;# 
   257  0213                     	;# 
   258  0214                     	;# 
   259  0214                     	;# 
   260  0215                     	;# 
   261  0215                     	;# 
   262  0215                     	;# 
   263  0215                     	;# 
   264  0216                     	;# 
   265  0216                     	;# 
   266  0217                     	;# 
   267  0217                     	;# 
   268  0219                     	;# 
   269  021A                     	;# 
   270  021B                     	;# 
   271  021C                     	;# 
   272  021D                     	;# 
   273  021D                     	;# 
   274  021E                     	;# 
   275  021F                     	;# 
   276  028C                     	;# 
   277  028E                     	;# 
   278  0291                     	;# 
   279  0291                     	;# 
   280  0292                     	;# 
   281  0293                     	;# 
   282  0294                     	;# 
   283  0295                     	;# 
   284  0295                     	;# 
   285  0296                     	;# 
   286  0297                     	;# 
   287  0298                     	;# 
   288  029F                     	;# 
   289  030C                     	;# 
   290  030E                     	;# 
   291  0311                     	;# 
   292  0311                     	;# 
   293  0312                     	;# 
   294  0313                     	;# 
   295  0314                     	;# 
   296  0315                     	;# 
   297  0315                     	;# 
   298  0316                     	;# 
   299  0317                     	;# 
   300  0318                     	;# 
   301  038C                     	;# 
   302  038E                     	;# 
   303  0391                     	;# 
   304  0392                     	;# 
   305  0393                     	;# 
   306  0397                     	;# 
   307  0398                     	;# 
   308  0399                     	;# 
   309  039A                     	;# 
   310  039C                     	;# 
   311  039D                     	;# 
   312  039E                     	;# 
   313  039F                     	;# 
   314  0411                     	;# 
   315  0411                     	;# 
   316  0412                     	;# 
   317  0413                     	;# 
   318  0414                     	;# 
   319  0415                     	;# 
   320  0416                     	;# 
   321  0417                     	;# 
   322  0418                     	;# 
   323  0418                     	;# 
   324  0419                     	;# 
   325  041A                     	;# 
   326  041B                     	;# 
   327  041C                     	;# 
   328  041D                     	;# 
   329  041E                     	;# 
   330  041F                     	;# 
   331  0498                     	;# 
   332  0498                     	;# 
   333  0499                     	;# 
   334  049A                     	;# 
   335  049B                     	;# 
   336  049B                     	;# 
   337  049C                     	;# 
   338  049D                     	;# 
   339  049E                     	;# 
   340  049F                     	;# 
   341  0617                     	;# 
   342  0618                     	;# 
   343  0619                     	;# 
   344  0619                     	;# 
   345  061A                     	;# 
   346  061B                     	;# 
   347  061C                     	;# 
   348  061C                     	;# 
   349  061F                     	;# 
   350  0691                     	;# 
   351  0692                     	;# 
   352  0693                     	;# 
   353  0694                     	;# 
   354  0695                     	;# 
   355  0696                     	;# 
   356  0697                     	;# 
   357  0698                     	;# 
   358  0699                     	;# 
   359  0711                     	;# 
   360  0712                     	;# 
   361  0713                     	;# 
   362  0714                     	;# 
   363  0715                     	;# 
   364  0716                     	;# 
   365  0717                     	;# 
   366  0718                     	;# 
   367  0719                     	;# 
   368  0891                     	;# 
   369  0891                     	;# 
   370  0891                     	;# 
   371  0891                     	;# 
   372  0891                     	;# 
   373  0891                     	;# 
   374  0892                     	;# 
   375  0892                     	;# 
   376  0892                     	;# 
   377  0893                     	;# 
   378  0893                     	;# 
   379  0893                     	;# 
   380  0893                     	;# 
   381  0893                     	;# 
   382  0893                     	;# 
   383  0894                     	;# 
   384  0894                     	;# 
   385  0894                     	;# 
   386  0895                     	;# 
   387  0895                     	;# 
   388  0895                     	;# 
   389  0896                     	;# 
   390  0896                     	;# 
   391  0896                     	;# 
   392  089B                     	;# 
   393  0911                     	;# 
   394  0912                     	;# 
   395  0913                     	;# 
   396  0914                     	;# 
   397  0915                     	;# 
   398  0916                     	;# 
   399  0918                     	;# 
   400  0919                     	;# 
   401  091A                     	;# 
   402  091B                     	;# 
   403  091C                     	;# 
   404  091D                     	;# 
   405  091E                     	;# 
   406  091F                     	;# 
   407  0E0F                     	;# 
   408  0E10                     	;# 
   409  0E11                     	;# 
   410  0E12                     	;# 
   411  0E13                     	;# 
   412  0E14                     	;# 
   413  0E15                     	;# 
   414  0E16                     	;# 
   415  0E17                     	;# 
   416  0E18                     	;# 
   417  0E19                     	;# 
   418  0E1A                     	;# 
   419  0E1B                     	;# 
   420  0E1C                     	;# 
   421  0E1D                     	;# 
   422  0E1E                     	;# 
   423  0E1F                     	;# 
   424  0E20                     	;# 
   425  0E21                     	;# 
   426  0E22                     	;# 
   427  0E24                     	;# 
   428  0E25                     	;# 
   429  0E28                     	;# 
   430  0E29                     	;# 
   431  0E2A                     	;# 
   432  0E2B                     	;# 
   433  0E2C                     	;# 
   434  0E2D                     	;# 
   435  0E2E                     	;# 
   436  0E2F                     	;# 
   437  0E90                     	;# 
   438  0E91                     	;# 
   439  0E92                     	;# 
   440  0E94                     	;# 
   441  0E95                     	;# 
   442  0EA0                     	;# 
   443  0EA1                     	;# 
   444  0EA2                     	;# 
   445  0EA3                     	;# 
   446  0EA4                     	;# 
   447  0EA5                     	;# 
   448  0F0F                     	;# 
   449  0F10                     	;# 
   450  0F11                     	;# 
   451  0F12                     	;# 
   452  0F13                     	;# 
   453  0F14                     	;# 
   454  0F15                     	;# 
   455  0F16                     	;# 
   456  0F17                     	;# 
   457  0F18                     	;# 
   458  0F19                     	;# 
   459  0F1A                     	;# 
   460  0F1B                     	;# 
   461  0F1C                     	;# 
   462  0F1D                     	;# 
   463  0F1E                     	;# 
   464  0F1F                     	;# 
   465  0F20                     	;# 
   466  0F21                     	;# 
   467  0F22                     	;# 
   468  0F23                     	;# 
   469  0F24                     	;# 
   470  0F25                     	;# 
   471  0F26                     	;# 
   472  0F27                     	;# 
   473  0F28                     	;# 
   474  0F29                     	;# 
   475  0F2A                     	;# 
   476  0F2B                     	;# 
   477  0F2C                     	;# 
   478  0F2D                     	;# 
   479  0F2E                     	;# 
   480  0F2F                     	;# 
   481  0F30                     	;# 
   482  0F31                     	;# 
   483  0F32                     	;# 
   484  0F33                     	;# 
   485  0F34                     	;# 
   486  0F35                     	;# 
   487  0F36                     	;# 
   488  0F37                     	;# 
   489  0FE4                     	;# 
   490  0FE5                     	;# 
   491  0FE6                     	;# 
   492  0FE7                     	;# 
   493  0FE8                     	;# 
   494  0FE9                     	;# 
   495  0FEA                     	;# 
   496  0FEB                     	;# 
   497  0FED                     	;# 
   498  0FEE                     	;# 
   499  0FEF                     	;# 
   500  0000                     	;# 
   501  0001                     	;# 
   502  0002                     	;# 
   503  0003                     	;# 
   504  0004                     	;# 
   505  0005                     	;# 
   506  0006                     	;# 
   507  0007                     	;# 
   508  0008                     	;# 
   509  0009                     	;# 
   510  000A                     	;# 
   511  000B                     	;# 
   512  000C                     	;# 
   513  000E                     	;# 
   514  0010                     	;# 
   515  0011                     	;# 
   516  0012                     	;# 
   517  0013                     	;# 
   518  0014                     	;# 
   519  0015                     	;# 
   520  0015                     	;# 
   521  0016                     	;# 
   522  0016                     	;# 
   523  0017                     	;# 
   524  0018                     	;# 
   525  0019                     	;# 
   526  0019                     	;# 
   527  001A                     	;# 
   528  001B                     	;# 
   529  001C                     	;# 
   530  001D                     	;# 
   531  001E                     	;# 
   532  001F                     	;# 
   533  008C                     	;# 
   534  008E                     	;# 
   535  0090                     	;# 
   536  0091                     	;# 
   537  0092                     	;# 
   538  0093                     	;# 
   539  0094                     	;# 
   540  0097                     	;# 
   541  009B                     	;# 
   542  009B                     	;# 
   543  009C                     	;# 
   544  009D                     	;# 
   545  009E                     	;# 
   546  009F                     	;# 
   547  010C                     	;# 
   548  010E                     	;# 
   549  0111                     	;# 
   550  0112                     	;# 
   551  0113                     	;# 
   552  0114                     	;# 
   553  0115                     	;# 
   554  0116                     	;# 
   555  0117                     	;# 
   556  0118                     	;# 
   557  0119                     	;# 
   558  018C                     	;# 
   559  018E                     	;# 
   560  0197                     	;# 
   561  0199                     	;# 
   562  0199                     	;# 
   563  0199                     	;# 
   564  019A                     	;# 
   565  019A                     	;# 
   566  019A                     	;# 
   567  019B                     	;# 
   568  019B                     	;# 
   569  019B                     	;# 
   570  019B                     	;# 
   571  019B                     	;# 
   572  019C                     	;# 
   573  019C                     	;# 
   574  019C                     	;# 
   575  019D                     	;# 
   576  019D                     	;# 
   577  019D                     	;# 
   578  019E                     	;# 
   579  019E                     	;# 
   580  019E                     	;# 
   581  019F                     	;# 
   582  019F                     	;# 
   583  019F                     	;# 
   584  019F                     	;# 
   585  019F                     	;# 
   586  020C                     	;# 
   587  020E                     	;# 
   588  0211                     	;# 
   589  0211                     	;# 
   590  0212                     	;# 
   591  0212                     	;# 
   592  0213                     	;# 
   593  0213                     	;# 
   594  0214                     	;# 
   595  0214                     	;# 
   596  0215                     	;# 
   597  0215                     	;# 
   598  0215                     	;# 
   599  0215                     	;# 
   600  0216                     	;# 
   601  0216                     	;# 
   602  0217                     	;# 
   603  0217                     	;# 
   604  0219                     	;# 
   605  021A                     	;# 
   606  021B                     	;# 
   607  021C                     	;# 
   608  021D                     	;# 
   609  021D                     	;# 
   610  021E                     	;# 
   611  021F                     	;# 
   612  028C                     	;# 
   613  028E                     	;# 
   614  0291                     	;# 
   615  0291                     	;# 
   616  0292                     	;# 
   617  0293                     	;# 
   618  0294                     	;# 
   619  0295                     	;# 
   620  0295                     	;# 
   621  0296                     	;# 
   622  0297                     	;# 
   623  0298                     	;# 
   624  029F                     	;# 
   625  030C                     	;# 
   626  030E                     	;# 
   627  0311                     	;# 
   628  0311                     	;# 
   629  0312                     	;# 
   630  0313                     	;# 
   631  0314                     	;# 
   632  0315                     	;# 
   633  0315                     	;# 
   634  0316                     	;# 
   635  0317                     	;# 
   636  0318                     	;# 
   637  038C                     	;# 
   638  038E                     	;# 
   639  0391                     	;# 
   640  0392                     	;# 
   641  0393                     	;# 
   642  0397                     	;# 
   643  0398                     	;# 
   644  0399                     	;# 
   645  039A                     	;# 
   646  039C                     	;# 
   647  039D                     	;# 
   648  039E                     	;# 
   649  039F                     	;# 
   650  0411                     	;# 
   651  0411                     	;# 
   652  0412                     	;# 
   653  0413                     	;# 
   654  0414                     	;# 
   655  0415                     	;# 
   656  0416                     	;# 
   657  0417                     	;# 
   658  0418                     	;# 
   659  0418                     	;# 
   660  0419                     	;# 
   661  041A                     	;# 
   662  041B                     	;# 
   663  041C                     	;# 
   664  041D                     	;# 
   665  041E                     	;# 
   666  041F                     	;# 
   667  0498                     	;# 
   668  0498                     	;# 
   669  0499                     	;# 
   670  049A                     	;# 
   671  049B                     	;# 
   672  049B                     	;# 
   673  049C                     	;# 
   674  049D                     	;# 
   675  049E                     	;# 
   676  049F                     	;# 
   677  0617                     	;# 
   678  0618                     	;# 
   679  0619                     	;# 
   680  0619                     	;# 
   681  061A                     	;# 
   682  061B                     	;# 
   683  061C                     	;# 
   684  061C                     	;# 
   685  061F                     	;# 
   686  0691                     	;# 
   687  0692                     	;# 
   688  0693                     	;# 
   689  0694                     	;# 
   690  0695                     	;# 
   691  0696                     	;# 
   692  0697                     	;# 
   693  0698                     	;# 
   694  0699                     	;# 
   695  0711                     	;# 
   696  0712                     	;# 
   697  0713                     	;# 
   698  0714                     	;# 
   699  0715                     	;# 
   700  0716                     	;# 
   701  0717                     	;# 
   702  0718                     	;# 
   703  0719                     	;# 
   704  0891                     	;# 
   705  0891                     	;# 
   706  0891                     	;# 
   707  0891                     	;# 
   708  0891                     	;# 
   709  0891                     	;# 
   710  0892                     	;# 
   711  0892                     	;# 
   712  0892                     	;# 
   713  0893                     	;# 
   714  0893                     	;# 
   715  0893                     	;# 
   716  0893                     	;# 
   717  0893                     	;# 
   718  0893                     	;# 
   719  0894                     	;# 
   720  0894                     	;# 
   721  0894                     	;# 
   722  0895                     	;# 
   723  0895                     	;# 
   724  0895                     	;# 
   725  0896                     	;# 
   726  0896                     	;# 
   727  0896                     	;# 
   728  089B                     	;# 
   729  0911                     	;# 
   730  0912                     	;# 
   731  0913                     	;# 
   732  0914                     	;# 
   733  0915                     	;# 
   734  0916                     	;# 
   735  0918                     	;# 
   736  0919                     	;# 
   737  091A                     	;# 
   738  091B                     	;# 
   739  091C                     	;# 
   740  091D                     	;# 
   741  091E                     	;# 
   742  091F                     	;# 
   743  0E0F                     	;# 
   744  0E10                     	;# 
   745  0E11                     	;# 
   746  0E12                     	;# 
   747  0E13                     	;# 
   748  0E14                     	;# 
   749  0E15                     	;# 
   750  0E16                     	;# 
   751  0E17                     	;# 
   752  0E18                     	;# 
   753  0E19                     	;# 
   754  0E1A                     	;# 
   755  0E1B                     	;# 
   756  0E1C                     	;# 
   757  0E1D                     	;# 
   758  0E1E                     	;# 
   759  0E1F                     	;# 
   760  0E20                     	;# 
   761  0E21                     	;# 
   762  0E22                     	;# 
   763  0E24                     	;# 
   764  0E25                     	;# 
   765  0E28                     	;# 
   766  0E29                     	;# 
   767  0E2A                     	;# 
   768  0E2B                     	;# 
   769  0E2C                     	;# 
   770  0E2D                     	;# 
   771  0E2E                     	;# 
   772  0E2F                     	;# 
   773  0E90                     	;# 
   774  0E91                     	;# 
   775  0E92                     	;# 
   776  0E94                     	;# 
   777  0E95                     	;# 
   778  0EA0                     	;# 
   779  0EA1                     	;# 
   780  0EA2                     	;# 
   781  0EA3                     	;# 
   782  0EA4                     	;# 
   783  0EA5                     	;# 
   784  0F0F                     	;# 
   785  0F10                     	;# 
   786  0F11                     	;# 
   787  0F12                     	;# 
   788  0F13                     	;# 
   789  0F14                     	;# 
   790  0F15                     	;# 
   791  0F16                     	;# 
   792  0F17                     	;# 
   793  0F18                     	;# 
   794  0F19                     	;# 
   795  0F1A                     	;# 
   796  0F1B                     	;# 
   797  0F1C                     	;# 
   798  0F1D                     	;# 
   799  0F1E                     	;# 
   800  0F1F                     	;# 
   801  0F20                     	;# 
   802  0F21                     	;# 
   803  0F22                     	;# 
   804  0F23                     	;# 
   805  0F24                     	;# 
   806  0F25                     	;# 
   807  0F26                     	;# 
   808  0F27                     	;# 
   809  0F28                     	;# 
   810  0F29                     	;# 
   811  0F2A                     	;# 
   812  0F2B                     	;# 
   813  0F2C                     	;# 
   814  0F2D                     	;# 
   815  0F2E                     	;# 
   816  0F2F                     	;# 
   817  0F30                     	;# 
   818  0F31                     	;# 
   819  0F32                     	;# 
   820  0F33                     	;# 
   821  0F34                     	;# 
   822  0F35                     	;# 
   823  0F36                     	;# 
   824  0F37                     	;# 
   825  0FE4                     	;# 
   826  0FE5                     	;# 
   827  0FE6                     	;# 
   828  0FE7                     	;# 
   829  0FE8                     	;# 
   830  0FE9                     	;# 
   831  0FEA                     	;# 
   832  0FEB                     	;# 
   833  0FED                     	;# 
   834  0FEE                     	;# 
   835  0FEF                     	;# 
   836  0000                     	;# 
   837  0001                     	;# 
   838  0002                     	;# 
   839  0003                     	;# 
   840  0004                     	;# 
   841  0005                     	;# 
   842  0006                     	;# 
   843  0007                     	;# 
   844  0008                     	;# 
   845  0009                     	;# 
   846  000A                     	;# 
   847  000B                     	;# 
   848  000C                     	;# 
   849  000E                     	;# 
   850  0010                     	;# 
   851  0011                     	;# 
   852  0012                     	;# 
   853  0013                     	;# 
   854  0014                     	;# 
   855  0015                     	;# 
   856  0015                     	;# 
   857  0016                     	;# 
   858  0016                     	;# 
   859  0017                     	;# 
   860  0018                     	;# 
   861  0019                     	;# 
   862  0019                     	;# 
   863  001A                     	;# 
   864  001B                     	;# 
   865  001C                     	;# 
   866  001D                     	;# 
   867  001E                     	;# 
   868  001F                     	;# 
   869  008C                     	;# 
   870  008E                     	;# 
   871  0090                     	;# 
   872  0091                     	;# 
   873  0092                     	;# 
   874  0093                     	;# 
   875  0094                     	;# 
   876  0097                     	;# 
   877  009B                     	;# 
   878  009B                     	;# 
   879  009C                     	;# 
   880  009D                     	;# 
   881  009E                     	;# 
   882  009F                     	;# 
   883  010C                     	;# 
   884  010E                     	;# 
   885  0111                     	;# 
   886  0112                     	;# 
   887  0113                     	;# 
   888  0114                     	;# 
   889  0115                     	;# 
   890  0116                     	;# 
   891  0117                     	;# 
   892  0118                     	;# 
   893  0119                     	;# 
   894  018C                     	;# 
   895  018E                     	;# 
   896  0197                     	;# 
   897  0199                     	;# 
   898  0199                     	;# 
   899  0199                     	;# 
   900  019A                     	;# 
   901  019A                     	;# 
   902  019A                     	;# 
   903  019B                     	;# 
   904  019B                     	;# 
   905  019B                     	;# 
   906  019B                     	;# 
   907  019B                     	;# 
   908  019C                     	;# 
   909  019C                     	;# 
   910  019C                     	;# 
   911  019D                     	;# 
   912  019D                     	;# 
   913  019D                     	;# 
   914  019E                     	;# 
   915  019E                     	;# 
   916  019E                     	;# 
   917  019F                     	;# 
   918  019F                     	;# 
   919  019F                     	;# 
   920  019F                     	;# 
   921  019F                     	;# 
   922  020C                     	;# 
   923  020E                     	;# 
   924  0211                     	;# 
   925  0211                     	;# 
   926  0212                     	;# 
   927  0212                     	;# 
   928  0213                     	;# 
   929  0213                     	;# 
   930  0214                     	;# 
   931  0214                     	;# 
   932  0215                     	;# 
   933  0215                     	;# 
   934  0215                     	;# 
   935  0215                     	;# 
   936  0216                     	;# 
   937  0216                     	;# 
   938  0217                     	;# 
   939  0217                     	;# 
   940  0219                     	;# 
   941  021A                     	;# 
   942  021B                     	;# 
   943  021C                     	;# 
   944  021D                     	;# 
   945  021D                     	;# 
   946  021E                     	;# 
   947  021F                     	;# 
   948  028C                     	;# 
   949  028E                     	;# 
   950  0291                     	;# 
   951  0291                     	;# 
   952  0292                     	;# 
   953  0293                     	;# 
   954  0294                     	;# 
   955  0295                     	;# 
   956  0295                     	;# 
   957  0296                     	;# 
   958  0297                     	;# 
   959  0298                     	;# 
   960  029F                     	;# 
   961  030C                     	;# 
   962  030E                     	;# 
   963  0311                     	;# 
   964  0311                     	;# 
   965  0312                     	;# 
   966  0313                     	;# 
   967  0314                     	;# 
   968  0315                     	;# 
   969  0315                     	;# 
   970  0316                     	;# 
   971  0317                     	;# 
   972  0318                     	;# 
   973  038C                     	;# 
   974  038E                     	;# 
   975  0391                     	;# 
   976  0392                     	;# 
   977  0393                     	;# 
   978  0397                     	;# 
   979  0398                     	;# 
   980  0399                     	;# 
   981  039A                     	;# 
   982  039C                     	;# 
   983  039D                     	;# 
   984  039E                     	;# 
   985  039F                     	;# 
   986  0411                     	;# 
   987  0411                     	;# 
   988  0412                     	;# 
   989  0413                     	;# 
   990  0414                     	;# 
   991  0415                     	;# 
   992  0416                     	;# 
   993  0417                     	;# 
   994  0418                     	;# 
   995  0418                     	;# 
   996  0419                     	;# 
   997  041A                     	;# 
   998  041B                     	;# 
   999  041C                     	;# 
  1000  041D                     	;# 
  1001  041E                     	;# 
  1002  041F                     	;# 
  1003  0498                     	;# 
  1004  0498                     	;# 
  1005  0499                     	;# 
  1006  049A                     	;# 
  1007  049B                     	;# 
  1008  049B                     	;# 
  1009  049C                     	;# 
  1010  049D                     	;# 
  1011  049E                     	;# 
  1012  049F                     	;# 
  1013  0617                     	;# 
  1014  0618                     	;# 
  1015  0619                     	;# 
  1016  0619                     	;# 
  1017  061A                     	;# 
  1018  061B                     	;# 
  1019  061C                     	;# 
  1020  061C                     	;# 
  1021  061F                     	;# 
  1022  0691                     	;# 
  1023  0692                     	;# 
  1024  0693                     	;# 
  1025  0694                     	;# 
  1026  0695                     	;# 
  1027  0696                     	;# 
  1028  0697                     	;# 
  1029  0698                     	;# 
  1030  0699                     	;# 
  1031  0711                     	;# 
  1032  0712                     	;# 
  1033  0713                     	;# 
  1034  0714                     	;# 
  1035  0715                     	;# 
  1036  0716                     	;# 
  1037  0717                     	;# 
  1038  0718                     	;# 
  1039  0719                     	;# 
  1040  0891                     	;# 
  1041  0891                     	;# 
  1042  0891                     	;# 
  1043  0891                     	;# 
  1044  0891                     	;# 
  1045  0891                     	;# 
  1046  0892                     	;# 
  1047  0892                     	;# 
  1048  0892                     	;# 
  1049  0893                     	;# 
  1050  0893                     	;# 
  1051  0893                     	;# 
  1052  0893                     	;# 
  1053  0893                     	;# 
  1054  0893                     	;# 
  1055  0894                     	;# 
  1056  0894                     	;# 
  1057  0894                     	;# 
  1058  0895                     	;# 
  1059  0895                     	;# 
  1060  0895                     	;# 
  1061  0896                     	;# 
  1062  0896                     	;# 
  1063  0896                     	;# 
  1064  089B                     	;# 
  1065  0911                     	;# 
  1066  0912                     	;# 
  1067  0913                     	;# 
  1068  0914                     	;# 
  1069  0915                     	;# 
  1070  0916                     	;# 
  1071  0918                     	;# 
  1072  0919                     	;# 
  1073  091A                     	;# 
  1074  091B                     	;# 
  1075  091C                     	;# 
  1076  091D                     	;# 
  1077  091E                     	;# 
  1078  091F                     	;# 
  1079  0E0F                     	;# 
  1080  0E10                     	;# 
  1081  0E11                     	;# 
  1082  0E12                     	;# 
  1083  0E13                     	;# 
  1084  0E14                     	;# 
  1085  0E15                     	;# 
  1086  0E16                     	;# 
  1087  0E17                     	;# 
  1088  0E18                     	;# 
  1089  0E19                     	;# 
  1090  0E1A                     	;# 
  1091  0E1B                     	;# 
  1092  0E1C                     	;# 
  1093  0E1D                     	;# 
  1094  0E1E                     	;# 
  1095  0E1F                     	;# 
  1096  0E20                     	;# 
  1097  0E21                     	;# 
  1098  0E22                     	;# 
  1099  0E24                     	;# 
  1100  0E25                     	;# 
  1101  0E28                     	;# 
  1102  0E29                     	;# 
  1103  0E2A                     	;# 
  1104  0E2B                     	;# 
  1105  0E2C                     	;# 
  1106  0E2D                     	;# 
  1107  0E2E                     	;# 
  1108  0E2F                     	;# 
  1109  0E90                     	;# 
  1110  0E91                     	;# 
  1111  0E92                     	;# 
  1112  0E94                     	;# 
  1113  0E95                     	;# 
  1114  0EA0                     	;# 
  1115  0EA1                     	;# 
  1116  0EA2                     	;# 
  1117  0EA3                     	;# 
  1118  0EA4                     	;# 
  1119  0EA5                     	;# 
  1120  0F0F                     	;# 
  1121  0F10                     	;# 
  1122  0F11                     	;# 
  1123  0F12                     	;# 
  1124  0F13                     	;# 
  1125  0F14                     	;# 
  1126  0F15                     	;# 
  1127  0F16                     	;# 
  1128  0F17                     	;# 
  1129  0F18                     	;# 
  1130  0F19                     	;# 
  1131  0F1A                     	;# 
  1132  0F1B                     	;# 
  1133  0F1C                     	;# 
  1134  0F1D                     	;# 
  1135  0F1E                     	;# 
  1136  0F1F                     	;# 
  1137  0F20                     	;# 
  1138  0F21                     	;# 
  1139  0F22                     	;# 
  1140  0F23                     	;# 
  1141  0F24                     	;# 
  1142  0F25                     	;# 
  1143  0F26                     	;# 
  1144  0F27                     	;# 
  1145  0F28                     	;# 
  1146  0F29                     	;# 
  1147  0F2A                     	;# 
  1148  0F2B                     	;# 
  1149  0F2C                     	;# 
  1150  0F2D                     	;# 
  1151  0F2E                     	;# 
  1152  0F2F                     	;# 
  1153  0F30                     	;# 
  1154  0F31                     	;# 
  1155  0F32                     	;# 
  1156  0F33                     	;# 
  1157  0F34                     	;# 
  1158  0F35                     	;# 
  1159  0F36                     	;# 
  1160  0F37                     	;# 
  1161  0FE4                     	;# 
  1162  0FE5                     	;# 
  1163  0FE6                     	;# 
  1164  0FE7                     	;# 
  1165  0FE8                     	;# 
  1166  0FE9                     	;# 
  1167  0FEA                     	;# 
  1168  0FEB                     	;# 
  1169  0FED                     	;# 
  1170  0FEE                     	;# 
  1171  0FEF                     	;# 
  1172  0000                     	;# 
  1173  0001                     	;# 
  1174  0002                     	;# 
  1175  0003                     	;# 
  1176  0004                     	;# 
  1177  0005                     	;# 
  1178  0006                     	;# 
  1179  0007                     	;# 
  1180  0008                     	;# 
  1181  0009                     	;# 
  1182  000A                     	;# 
  1183  000B                     	;# 
  1184  000C                     	;# 
  1185  000E                     	;# 
  1186  0010                     	;# 
  1187  0011                     	;# 
  1188  0012                     	;# 
  1189  0013                     	;# 
  1190  0014                     	;# 
  1191  0015                     	;# 
  1192  0015                     	;# 
  1193  0016                     	;# 
  1194  0016                     	;# 
  1195  0017                     	;# 
  1196  0018                     	;# 
  1197  0019                     	;# 
  1198  0019                     	;# 
  1199  001A                     	;# 
  1200  001B                     	;# 
  1201  001C                     	;# 
  1202  001D                     	;# 
  1203  001E                     	;# 
  1204  001F                     	;# 
  1205  008C                     	;# 
  1206  008E                     	;# 
  1207  0090                     	;# 
  1208  0091                     	;# 
  1209  0092                     	;# 
  1210  0093                     	;# 
  1211  0094                     	;# 
  1212  0097                     	;# 
  1213  009B                     	;# 
  1214  009B                     	;# 
  1215  009C                     	;# 
  1216  009D                     	;# 
  1217  009E                     	;# 
  1218  009F                     	;# 
  1219  010C                     	;# 
  1220  010E                     	;# 
  1221  0111                     	;# 
  1222  0112                     	;# 
  1223  0113                     	;# 
  1224  0114                     	;# 
  1225  0115                     	;# 
  1226  0116                     	;# 
  1227  0117                     	;# 
  1228  0118                     	;# 
  1229  0119                     	;# 
  1230  018C                     	;# 
  1231  018E                     	;# 
  1232  0197                     	;# 
  1233  0199                     	;# 
  1234  0199                     	;# 
  1235  0199                     	;# 
  1236  019A                     	;# 
  1237  019A                     	;# 
  1238  019A                     	;# 
  1239  019B                     	;# 
  1240  019B                     	;# 
  1241  019B                     	;# 
  1242  019B                     	;# 
  1243  019B                     	;# 
  1244  019C                     	;# 
  1245  019C                     	;# 
  1246  019C                     	;# 
  1247  019D                     	;# 
  1248  019D                     	;# 
  1249  019D                     	;# 
  1250  019E                     	;# 
  1251  019E                     	;# 
  1252  019E                     	;# 
  1253  019F                     	;# 
  1254  019F                     	;# 
  1255  019F                     	;# 
  1256  019F                     	;# 
  1257  019F                     	;# 
  1258  020C                     	;# 
  1259  020E                     	;# 
  1260  0211                     	;# 
  1261  0211                     	;# 
  1262  0212                     	;# 
  1263  0212                     	;# 
  1264  0213                     	;# 
  1265  0213                     	;# 
  1266  0214                     	;# 
  1267  0214                     	;# 
  1268  0215                     	;# 
  1269  0215                     	;# 
  1270  0215                     	;# 
  1271  0215                     	;# 
  1272  0216                     	;# 
  1273  0216                     	;# 
  1274  0217                     	;# 
  1275  0217                     	;# 
  1276  0219                     	;# 
  1277  021A                     	;# 
  1278  021B                     	;# 
  1279  021C                     	;# 
  1280  021D                     	;# 
  1281  021D                     	;# 
  1282  021E                     	;# 
  1283  021F                     	;# 
  1284  028C                     	;# 
  1285  028E                     	;# 
  1286  0291                     	;# 
  1287  0291                     	;# 
  1288  0292                     	;# 
  1289  0293                     	;# 
  1290  0294                     	;# 
  1291  0295                     	;# 
  1292  0295                     	;# 
  1293  0296                     	;# 
  1294  0297                     	;# 
  1295  0298                     	;# 
  1296  029F                     	;# 
  1297  030C                     	;# 
  1298  030E                     	;# 
  1299  0311                     	;# 
  1300  0311                     	;# 
  1301  0312                     	;# 
  1302  0313                     	;# 
  1303  0314                     	;# 
  1304  0315                     	;# 
  1305  0315                     	;# 
  1306  0316                     	;# 
  1307  0317                     	;# 
  1308  0318                     	;# 
  1309  038C                     	;# 
  1310  038E                     	;# 
  1311  0391                     	;# 
  1312  0392                     	;# 
  1313  0393                     	;# 
  1314  0397                     	;# 
  1315  0398                     	;# 
  1316  0399                     	;# 
  1317  039A                     	;# 
  1318  039C                     	;# 
  1319  039D                     	;# 
  1320  039E                     	;# 
  1321  039F                     	;# 
  1322  0411                     	;# 
  1323  0411                     	;# 
  1324  0412                     	;# 
  1325  0413                     	;# 
  1326  0414                     	;# 
  1327  0415                     	;# 
  1328  0416                     	;# 
  1329  0417                     	;# 
  1330  0418                     	;# 
  1331  0418                     	;# 
  1332  0419                     	;# 
  1333  041A                     	;# 
  1334  041B                     	;# 
  1335  041C                     	;# 
  1336  041D                     	;# 
  1337  041E                     	;# 
  1338  041F                     	;# 
  1339  0498                     	;# 
  1340  0498                     	;# 
  1341  0499                     	;# 
  1342  049A                     	;# 
  1343  049B                     	;# 
  1344  049B                     	;# 
  1345  049C                     	;# 
  1346  049D                     	;# 
  1347  049E                     	;# 
  1348  049F                     	;# 
  1349  0617                     	;# 
  1350  0618                     	;# 
  1351  0619                     	;# 
  1352  0619                     	;# 
  1353  061A                     	;# 
  1354  061B                     	;# 
  1355  061C                     	;# 
  1356  061C                     	;# 
  1357  061F                     	;# 
  1358  0691                     	;# 
  1359  0692                     	;# 
  1360  0693                     	;# 
  1361  0694                     	;# 
  1362  0695                     	;# 
  1363  0696                     	;# 
  1364  0697                     	;# 
  1365  0698                     	;# 
  1366  0699                     	;# 
  1367  0711                     	;# 
  1368  0712                     	;# 
  1369  0713                     	;# 
  1370  0714                     	;# 
  1371  0715                     	;# 
  1372  0716                     	;# 
  1373  0717                     	;# 
  1374  0718                     	;# 
  1375  0719                     	;# 
  1376  0891                     	;# 
  1377  0891                     	;# 
  1378  0891                     	;# 
  1379  0891                     	;# 
  1380  0891                     	;# 
  1381  0891                     	;# 
  1382  0892                     	;# 
  1383  0892                     	;# 
  1384  0892                     	;# 
  1385  0893                     	;# 
  1386  0893                     	;# 
  1387  0893                     	;# 
  1388  0893                     	;# 
  1389  0893                     	;# 
  1390  0893                     	;# 
  1391  0894                     	;# 
  1392  0894                     	;# 
  1393  0894                     	;# 
  1394  0895                     	;# 
  1395  0895                     	;# 
  1396  0895                     	;# 
  1397  0896                     	;# 
  1398  0896                     	;# 
  1399  0896                     	;# 
  1400  089B                     	;# 
  1401  0911                     	;# 
  1402  0912                     	;# 
  1403  0913                     	;# 
  1404  0914                     	;# 
  1405  0915                     	;# 
  1406  0916                     	;# 
  1407  0918                     	;# 
  1408  0919                     	;# 
  1409  091A                     	;# 
  1410  091B                     	;# 
  1411  091C                     	;# 
  1412  091D                     	;# 
  1413  091E                     	;# 
  1414  091F                     	;# 
  1415  0E0F                     	;# 
  1416  0E10                     	;# 
  1417  0E11                     	;# 
  1418  0E12                     	;# 
  1419  0E13                     	;# 
  1420  0E14                     	;# 
  1421  0E15                     	;# 
  1422  0E16                     	;# 
  1423  0E17                     	;# 
  1424  0E18                     	;# 
  1425  0E19                     	;# 
  1426  0E1A                     	;# 
  1427  0E1B                     	;# 
  1428  0E1C                     	;# 
  1429  0E1D                     	;# 
  1430  0E1E                     	;# 
  1431  0E1F                     	;# 
  1432  0E20                     	;# 
  1433  0E21                     	;# 
  1434  0E22                     	;# 
  1435  0E24                     	;# 
  1436  0E25                     	;# 
  1437  0E28                     	;# 
  1438  0E29                     	;# 
  1439  0E2A                     	;# 
  1440  0E2B                     	;# 
  1441  0E2C                     	;# 
  1442  0E2D                     	;# 
  1443  0E2E                     	;# 
  1444  0E2F                     	;# 
  1445  0E90                     	;# 
  1446  0E91                     	;# 
  1447  0E92                     	;# 
  1448  0E94                     	;# 
  1449  0E95                     	;# 
  1450  0EA0                     	;# 
  1451  0EA1                     	;# 
  1452  0EA2                     	;# 
  1453  0EA3                     	;# 
  1454  0EA4                     	;# 
  1455  0EA5                     	;# 
  1456  0F0F                     	;# 
  1457  0F10                     	;# 
  1458  0F11                     	;# 
  1459  0F12                     	;# 
  1460  0F13                     	;# 
  1461  0F14                     	;# 
  1462  0F15                     	;# 
  1463  0F16                     	;# 
  1464  0F17                     	;# 
  1465  0F18                     	;# 
  1466  0F19                     	;# 
  1467  0F1A                     	;# 
  1468  0F1B                     	;# 
  1469  0F1C                     	;# 
  1470  0F1D                     	;# 
  1471  0F1E                     	;# 
  1472  0F1F                     	;# 
  1473  0F20                     	;# 
  1474  0F21                     	;# 
  1475  0F22                     	;# 
  1476  0F23                     	;# 
  1477  0F24                     	;# 
  1478  0F25                     	;# 
  1479  0F26                     	;# 
  1480  0F27                     	;# 
  1481  0F28                     	;# 
  1482  0F29                     	;# 
  1483  0F2A                     	;# 
  1484  0F2B                     	;# 
  1485  0F2C                     	;# 
  1486  0F2D                     	;# 
  1487  0F2E                     	;# 
  1488  0F2F                     	;# 
  1489  0F30                     	;# 
  1490  0F31                     	;# 
  1491  0F32                     	;# 
  1492  0F33                     	;# 
  1493  0F34                     	;# 
  1494  0F35                     	;# 
  1495  0F36                     	;# 
  1496  0F37                     	;# 
  1497  0FE4                     	;# 
  1498  0FE5                     	;# 
  1499  0FE6                     	;# 
  1500  0FE7                     	;# 
  1501  0FE8                     	;# 
  1502  0FE9                     	;# 
  1503  0FEA                     	;# 
  1504  0FEB                     	;# 
  1505  0FED                     	;# 
  1506  0FEE                     	;# 
  1507  0FEF                     	;# 
  1508  0000                     	;# 
  1509  0001                     	;# 
  1510  0002                     	;# 
  1511  0003                     	;# 
  1512  0004                     	;# 
  1513  0005                     	;# 
  1514  0006                     	;# 
  1515  0007                     	;# 
  1516  0008                     	;# 
  1517  0009                     	;# 
  1518  000A                     	;# 
  1519  000B                     	;# 
  1520  000C                     	;# 
  1521  000E                     	;# 
  1522  0010                     	;# 
  1523  0011                     	;# 
  1524  0012                     	;# 
  1525  0013                     	;# 
  1526  0014                     	;# 
  1527  0015                     	;# 
  1528  0015                     	;# 
  1529  0016                     	;# 
  1530  0016                     	;# 
  1531  0017                     	;# 
  1532  0018                     	;# 
  1533  0019                     	;# 
  1534  0019                     	;# 
  1535  001A                     	;# 
  1536  001B                     	;# 
  1537  001C                     	;# 
  1538  001D                     	;# 
  1539  001E                     	;# 
  1540  001F                     	;# 
  1541  008C                     	;# 
  1542  008E                     	;# 
  1543  0090                     	;# 
  1544  0091                     	;# 
  1545  0092                     	;# 
  1546  0093                     	;# 
  1547  0094                     	;# 
  1548  0097                     	;# 
  1549  009B                     	;# 
  1550  009B                     	;# 
  1551  009C                     	;# 
  1552  009D                     	;# 
  1553  009E                     	;# 
  1554  009F                     	;# 
  1555  010C                     	;# 
  1556  010E                     	;# 
  1557  0111                     	;# 
  1558  0112                     	;# 
  1559  0113                     	;# 
  1560  0114                     	;# 
  1561  0115                     	;# 
  1562  0116                     	;# 
  1563  0117                     	;# 
  1564  0118                     	;# 
  1565  0119                     	;# 
  1566  018C                     	;# 
  1567  018E                     	;# 
  1568  0197                     	;# 
  1569  0199                     	;# 
  1570  0199                     	;# 
  1571  0199                     	;# 
  1572  019A                     	;# 
  1573  019A                     	;# 
  1574  019A                     	;# 
  1575  019B                     	;# 
  1576  019B                     	;# 
  1577  019B                     	;# 
  1578  019B                     	;# 
  1579  019B                     	;# 
  1580  019C                     	;# 
  1581  019C                     	;# 
  1582  019C                     	;# 
  1583  019D                     	;# 
  1584  019D                     	;# 
  1585  019D                     	;# 
  1586  019E                     	;# 
  1587  019E                     	;# 
  1588  019E                     	;# 
  1589  019F                     	;# 
  1590  019F                     	;# 
  1591  019F                     	;# 
  1592  019F                     	;# 
  1593  019F                     	;# 
  1594  020C                     	;# 
  1595  020E                     	;# 
  1596  0211                     	;# 
  1597  0211                     	;# 
  1598  0212                     	;# 
  1599  0212                     	;# 
  1600  0213                     	;# 
  1601  0213                     	;# 
  1602  0214                     	;# 
  1603  0214                     	;# 
  1604  0215                     	;# 
  1605  0215                     	;# 
  1606  0215                     	;# 
  1607  0215                     	;# 
  1608  0216                     	;# 
  1609  0216                     	;# 
  1610  0217                     	;# 
  1611  0217                     	;# 
  1612  0219                     	;# 
  1613  021A                     	;# 
  1614  021B                     	;# 
  1615  021C                     	;# 
  1616  021D                     	;# 
  1617  021D                     	;# 
  1618  021E                     	;# 
  1619  021F                     	;# 
  1620  028C                     	;# 
  1621  028E                     	;# 
  1622  0291                     	;# 
  1623  0291                     	;# 
  1624  0292                     	;# 
  1625  0293                     	;# 
  1626  0294                     	;# 
  1627  0295                     	;# 
  1628  0295                     	;# 
  1629  0296                     	;# 
  1630  0297                     	;# 
  1631  0298                     	;# 
  1632  029F                     	;# 
  1633  030C                     	;# 
  1634  030E                     	;# 
  1635  0311                     	;# 
  1636  0311                     	;# 
  1637  0312                     	;# 
  1638  0313                     	;# 
  1639  0314                     	;# 
  1640  0315                     	;# 
  1641  0315                     	;# 
  1642  0316                     	;# 
  1643  0317                     	;# 
  1644  0318                     	;# 
  1645  038C                     	;# 
  1646  038E                     	;# 
  1647  0391                     	;# 
  1648  0392                     	;# 
  1649  0393                     	;# 
  1650  0397                     	;# 
  1651  0398                     	;# 
  1652  0399                     	;# 
  1653  039A                     	;# 
  1654  039C                     	;# 
  1655  039D                     	;# 
  1656  039E                     	;# 
  1657  039F                     	;# 
  1658  0411                     	;# 
  1659  0411                     	;# 
  1660  0412                     	;# 
  1661  0413                     	;# 
  1662  0414                     	;# 
  1663  0415                     	;# 
  1664  0416                     	;# 
  1665  0417                     	;# 
  1666  0418                     	;# 
  1667  0418                     	;# 
  1668  0419                     	;# 
  1669  041A                     	;# 
  1670  041B                     	;# 
  1671  041C                     	;# 
  1672  041D                     	;# 
  1673  041E                     	;# 
  1674  041F                     	;# 
  1675  0498                     	;# 
  1676  0498                     	;# 
  1677  0499                     	;# 
  1678  049A                     	;# 
  1679  049B                     	;# 
  1680  049B                     	;# 
  1681  049C                     	;# 
  1682  049D                     	;# 
  1683  049E                     	;# 
  1684  049F                     	;# 
  1685  0617                     	;# 
  1686  0618                     	;# 
  1687  0619                     	;# 
  1688  0619                     	;# 
  1689  061A                     	;# 
  1690  061B                     	;# 
  1691  061C                     	;# 
  1692  061C                     	;# 
  1693  061F                     	;# 
  1694  0691                     	;# 
  1695  0692                     	;# 
  1696  0693                     	;# 
  1697  0694                     	;# 
  1698  0695                     	;# 
  1699  0696                     	;# 
  1700  0697                     	;# 
  1701  0698                     	;# 
  1702  0699                     	;# 
  1703  0711                     	;# 
  1704  0712                     	;# 
  1705  0713                     	;# 
  1706  0714                     	;# 
  1707  0715                     	;# 
  1708  0716                     	;# 
  1709  0717                     	;# 
  1710  0718                     	;# 
  1711  0719                     	;# 
  1712  0891                     	;# 
  1713  0891                     	;# 
  1714  0891                     	;# 
  1715  0891                     	;# 
  1716  0891                     	;# 
  1717  0891                     	;# 
  1718  0892                     	;# 
  1719  0892                     	;# 
  1720  0892                     	;# 
  1721  0893                     	;# 
  1722  0893                     	;# 
  1723  0893                     	;# 
  1724  0893                     	;# 
  1725  0893                     	;# 
  1726  0893                     	;# 
  1727  0894                     	;# 
  1728  0894                     	;# 
  1729  0894                     	;# 
  1730  0895                     	;# 
  1731  0895                     	;# 
  1732  0895                     	;# 
  1733  0896                     	;# 
  1734  0896                     	;# 
  1735  0896                     	;# 
  1736  089B                     	;# 
  1737  0911                     	;# 
  1738  0912                     	;# 
  1739  0913                     	;# 
  1740  0914                     	;# 
  1741  0915                     	;# 
  1742  0916                     	;# 
  1743  0918                     	;# 
  1744  0919                     	;# 
  1745  091A                     	;# 
  1746  091B                     	;# 
  1747  091C                     	;# 
  1748  091D                     	;# 
  1749  091E                     	;# 
  1750  091F                     	;# 
  1751  0E0F                     	;# 
  1752  0E10                     	;# 
  1753  0E11                     	;# 
  1754  0E12                     	;# 
  1755  0E13                     	;# 
  1756  0E14                     	;# 
  1757  0E15                     	;# 
  1758  0E16                     	;# 
  1759  0E17                     	;# 
  1760  0E18                     	;# 
  1761  0E19                     	;# 
  1762  0E1A                     	;# 
  1763  0E1B                     	;# 
  1764  0E1C                     	;# 
  1765  0E1D                     	;# 
  1766  0E1E                     	;# 
  1767  0E1F                     	;# 
  1768  0E20                     	;# 
  1769  0E21                     	;# 
  1770  0E22                     	;# 
  1771  0E24                     	;# 
  1772  0E25                     	;# 
  1773  0E28                     	;# 
  1774  0E29                     	;# 
  1775  0E2A                     	;# 
  1776  0E2B                     	;# 
  1777  0E2C                     	;# 
  1778  0E2D                     	;# 
  1779  0E2E                     	;# 
  1780  0E2F                     	;# 
  1781  0E90                     	;# 
  1782  0E91                     	;# 
  1783  0E92                     	;# 
  1784  0E94                     	;# 
  1785  0E95                     	;# 
  1786  0EA0                     	;# 
  1787  0EA1                     	;# 
  1788  0EA2                     	;# 
  1789  0EA3                     	;# 
  1790  0EA4                     	;# 
  1791  0EA5                     	;# 
  1792  0F0F                     	;# 
  1793  0F10                     	;# 
  1794  0F11                     	;# 
  1795  0F12                     	;# 
  1796  0F13                     	;# 
  1797  0F14                     	;# 
  1798  0F15                     	;# 
  1799  0F16                     	;# 
  1800  0F17                     	;# 
  1801  0F18                     	;# 
  1802  0F19                     	;# 
  1803  0F1A                     	;# 
  1804  0F1B                     	;# 
  1805  0F1C                     	;# 
  1806  0F1D                     	;# 
  1807  0F1E                     	;# 
  1808  0F1F                     	;# 
  1809  0F20                     	;# 
  1810  0F21                     	;# 
  1811  0F22                     	;# 
  1812  0F23                     	;# 
  1813  0F24                     	;# 
  1814  0F25                     	;# 
  1815  0F26                     	;# 
  1816  0F27                     	;# 
  1817  0F28                     	;# 
  1818  0F29                     	;# 
  1819  0F2A                     	;# 
  1820  0F2B                     	;# 
  1821  0F2C                     	;# 
  1822  0F2D                     	;# 
  1823  0F2E                     	;# 
  1824  0F2F                     	;# 
  1825  0F30                     	;# 
  1826  0F31                     	;# 
  1827  0F32                     	;# 
  1828  0F33                     	;# 
  1829  0F34                     	;# 
  1830  0F35                     	;# 
  1831  0F36                     	;# 
  1832  0F37                     	;# 
  1833  0FE4                     	;# 
  1834  0FE5                     	;# 
  1835  0FE6                     	;# 
  1836  0FE7                     	;# 
  1837  0FE8                     	;# 
  1838  0FE9                     	;# 
  1839  0FEA                     	;# 
  1840  0FEB                     	;# 
  1841  0FED                     	;# 
  1842  0FEE                     	;# 
  1843  0FEF                     	;# 
  1844  0000                     	;# 
  1845  0001                     	;# 
  1846  0002                     	;# 
  1847  0003                     	;# 
  1848  0004                     	;# 
  1849  0005                     	;# 
  1850  0006                     	;# 
  1851  0007                     	;# 
  1852  0008                     	;# 
  1853  0009                     	;# 
  1854  000A                     	;# 
  1855  000B                     	;# 
  1856  000C                     	;# 
  1857  000E                     	;# 
  1858  0010                     	;# 
  1859  0011                     	;# 
  1860  0012                     	;# 
  1861  0013                     	;# 
  1862  0014                     	;# 
  1863  0015                     	;# 
  1864  0015                     	;# 
  1865  0016                     	;# 
  1866  0016                     	;# 
  1867  0017                     	;# 
  1868  0018                     	;# 
  1869  0019                     	;# 
  1870  0019                     	;# 
  1871  001A                     	;# 
  1872  001B                     	;# 
  1873  001C                     	;# 
  1874  001D                     	;# 
  1875  001E                     	;# 
  1876  001F                     	;# 
  1877  008C                     	;# 
  1878  008E                     	;# 
  1879  0090                     	;# 
  1880  0091                     	;# 
  1881  0092                     	;# 
  1882  0093                     	;# 
  1883  0094                     	;# 
  1884  0097                     	;# 
  1885  009B                     	;# 
  1886  009B                     	;# 
  1887  009C                     	;# 
  1888  009D                     	;# 
  1889  009E                     	;# 
  1890  009F                     	;# 
  1891  010C                     	;# 
  1892  010E                     	;# 
  1893  0111                     	;# 
  1894  0112                     	;# 
  1895  0113                     	;# 
  1896  0114                     	;# 
  1897  0115                     	;# 
  1898  0116                     	;# 
  1899  0117                     	;# 
  1900  0118                     	;# 
  1901  0119                     	;# 
  1902  018C                     	;# 
  1903  018E                     	;# 
  1904  0197                     	;# 
  1905  0199                     	;# 
  1906  0199                     	;# 
  1907  0199                     	;# 
  1908  019A                     	;# 
  1909  019A                     	;# 
  1910  019A                     	;# 
  1911  019B                     	;# 
  1912  019B                     	;# 
  1913  019B                     	;# 
  1914  019B                     	;# 
  1915  019B                     	;# 
  1916  019C                     	;# 
  1917  019C                     	;# 
  1918  019C                     	;# 
  1919  019D                     	;# 
  1920  019D                     	;# 
  1921  019D                     	;# 
  1922  019E                     	;# 
  1923  019E                     	;# 
  1924  019E                     	;# 
  1925  019F                     	;# 
  1926  019F                     	;# 
  1927  019F                     	;# 
  1928  019F                     	;# 
  1929  019F                     	;# 
  1930  020C                     	;# 
  1931  020E                     	;# 
  1932  0211                     	;# 
  1933  0211                     	;# 
  1934  0212                     	;# 
  1935  0212                     	;# 
  1936  0213                     	;# 
  1937  0213                     	;# 
  1938  0214                     	;# 
  1939  0214                     	;# 
  1940  0215                     	;# 
  1941  0215                     	;# 
  1942  0215                     	;# 
  1943  0215                     	;# 
  1944  0216                     	;# 
  1945  0216                     	;# 
  1946  0217                     	;# 
  1947  0217                     	;# 
  1948  0219                     	;# 
  1949  021A                     	;# 
  1950  021B                     	;# 
  1951  021C                     	;# 
  1952  021D                     	;# 
  1953  021D                     	;# 
  1954  021E                     	;# 
  1955  021F                     	;# 
  1956  028C                     	;# 
  1957  028E                     	;# 
  1958  0291                     	;# 
  1959  0291                     	;# 
  1960  0292                     	;# 
  1961  0293                     	;# 
  1962  0294                     	;# 
  1963  0295                     	;# 
  1964  0295                     	;# 
  1965  0296                     	;# 
  1966  0297                     	;# 
  1967  0298                     	;# 
  1968  029F                     	;# 
  1969  030C                     	;# 
  1970  030E                     	;# 
  1971  0311                     	;# 
  1972  0311                     	;# 
  1973  0312                     	;# 
  1974  0313                     	;# 
  1975  0314                     	;# 
  1976  0315                     	;# 
  1977  0315                     	;# 
  1978  0316                     	;# 
  1979  0317                     	;# 
  1980  0318                     	;# 
  1981  038C                     	;# 
  1982  038E                     	;# 
  1983  0391                     	;# 
  1984  0392                     	;# 
  1985  0393                     	;# 
  1986  0397                     	;# 
  1987  0398                     	;# 
  1988  0399                     	;# 
  1989  039A                     	;# 
  1990  039C                     	;# 
  1991  039D                     	;# 
  1992  039E                     	;# 
  1993  039F                     	;# 
  1994  0411                     	;# 
  1995  0411                     	;# 
  1996  0412                     	;# 
  1997  0413                     	;# 
  1998  0414                     	;# 
  1999  0415                     	;# 
  2000  0416                     	;# 
  2001  0417                     	;# 
  2002  0418                     	;# 
  2003  0418                     	;# 
  2004  0419                     	;# 
  2005  041A                     	;# 
  2006  041B                     	;# 
  2007  041C                     	;# 
  2008  041D                     	;# 
  2009  041E                     	;# 
  2010  041F                     	;# 
  2011  0498                     	;# 
  2012  0498                     	;# 
  2013  0499                     	;# 
  2014  049A                     	;# 
  2015  049B                     	;# 
  2016  049B                     	;# 
  2017  049C                     	;# 
  2018  049D                     	;# 
  2019  049E                     	;# 
  2020  049F                     	;# 
  2021  0617                     	;# 
  2022  0618                     	;# 
  2023  0619                     	;# 
  2024  0619                     	;# 
  2025  061A                     	;# 
  2026  061B                     	;# 
  2027  061C                     	;# 
  2028  061C                     	;# 
  2029  061F                     	;# 
  2030  0691                     	;# 
  2031  0692                     	;# 
  2032  0693                     	;# 
  2033  0694                     	;# 
  2034  0695                     	;# 
  2035  0696                     	;# 
  2036  0697                     	;# 
  2037  0698                     	;# 
  2038  0699                     	;# 
  2039  0711                     	;# 
  2040  0712                     	;# 
  2041  0713                     	;# 
  2042  0714                     	;# 
  2043  0715                     	;# 
  2044  0716                     	;# 
  2045  0717                     	;# 
  2046  0718                     	;# 
  2047  0719                     	;# 
  2048  0891                     	;# 
  2049  0891                     	;# 
  2050  0891                     	;# 
  2051  0891                     	;# 
  2052  0891                     	;# 
  2053  0891                     	;# 
  2054  0892                     	;# 
  2055  0892                     	;# 
  2056  0892                     	;# 
  2057  0893                     	;# 
  2058  0893                     	;# 
  2059  0893                     	;# 
  2060  0893                     	;# 
  2061  0893                     	;# 
  2062  0893                     	;# 
  2063  0894                     	;# 
  2064  0894                     	;# 
  2065  0894                     	;# 
  2066  0895                     	;# 
  2067  0895                     	;# 
  2068  0895                     	;# 
  2069  0896                     	;# 
  2070  0896                     	;# 
  2071  0896                     	;# 
  2072  089B                     	;# 
  2073  0911                     	;# 
  2074  0912                     	;# 
  2075  0913                     	;# 
  2076  0914                     	;# 
  2077  0915                     	;# 
  2078  0916                     	;# 
  2079  0918                     	;# 
  2080  0919                     	;# 
  2081  091A                     	;# 
  2082  091B                     	;# 
  2083  091C                     	;# 
  2084  091D                     	;# 
  2085  091E                     	;# 
  2086  091F                     	;# 
  2087  0E0F                     	;# 
  2088  0E10                     	;# 
  2089  0E11                     	;# 
  2090  0E12                     	;# 
  2091  0E13                     	;# 
  2092  0E14                     	;# 
  2093  0E15                     	;# 
  2094  0E16                     	;# 
  2095  0E17                     	;# 
  2096  0E18                     	;# 
  2097  0E19                     	;# 
  2098  0E1A                     	;# 
  2099  0E1B                     	;# 
  2100  0E1C                     	;# 
  2101  0E1D                     	;# 
  2102  0E1E                     	;# 
  2103  0E1F                     	;# 
  2104  0E20                     	;# 
  2105  0E21                     	;# 
  2106  0E22                     	;# 
  2107  0E24                     	;# 
  2108  0E25                     	;# 
  2109  0E28                     	;# 
  2110  0E29                     	;# 
  2111  0E2A                     	;# 
  2112  0E2B                     	;# 
  2113  0E2C                     	;# 
  2114  0E2D                     	;# 
  2115  0E2E                     	;# 
  2116  0E2F                     	;# 
  2117  0E90                     	;# 
  2118  0E91                     	;# 
  2119  0E92                     	;# 
  2120  0E94                     	;# 
  2121  0E95                     	;# 
  2122  0EA0                     	;# 
  2123  0EA1                     	;# 
  2124  0EA2                     	;# 
  2125  0EA3                     	;# 
  2126  0EA4                     	;# 
  2127  0EA5                     	;# 
  2128  0F0F                     	;# 
  2129  0F10                     	;# 
  2130  0F11                     	;# 
  2131  0F12                     	;# 
  2132  0F13                     	;# 
  2133  0F14                     	;# 
  2134  0F15                     	;# 
  2135  0F16                     	;# 
  2136  0F17                     	;# 
  2137  0F18                     	;# 
  2138  0F19                     	;# 
  2139  0F1A                     	;# 
  2140  0F1B                     	;# 
  2141  0F1C                     	;# 
  2142  0F1D                     	;# 
  2143  0F1E                     	;# 
  2144  0F1F                     	;# 
  2145  0F20                     	;# 
  2146  0F21                     	;# 
  2147  0F22                     	;# 
  2148  0F23                     	;# 
  2149  0F24                     	;# 
  2150  0F25                     	;# 
  2151  0F26                     	;# 
  2152  0F27                     	;# 
  2153  0F28                     	;# 
  2154  0F29                     	;# 
  2155  0F2A                     	;# 
  2156  0F2B                     	;# 
  2157  0F2C                     	;# 
  2158  0F2D                     	;# 
  2159  0F2E                     	;# 
  2160  0F2F                     	;# 
  2161  0F30                     	;# 
  2162  0F31                     	;# 
  2163  0F32                     	;# 
  2164  0F33                     	;# 
  2165  0F34                     	;# 
  2166  0F35                     	;# 
  2167  0F36                     	;# 
  2168  0F37                     	;# 
  2169  0FE4                     	;# 
  2170  0FE5                     	;# 
  2171  0FE6                     	;# 
  2172  0FE7                     	;# 
  2173  0FE8                     	;# 
  2174  0FE9                     	;# 
  2175  0FEA                     	;# 
  2176  0FEB                     	;# 
  2177  0FED                     	;# 
  2178  0FEE                     	;# 
  2179  0FEF                     	;# 
  2180  0000                     	;# 
  2181  0001                     	;# 
  2182  0002                     	;# 
  2183  0003                     	;# 
  2184  0004                     	;# 
  2185  0005                     	;# 
  2186  0006                     	;# 
  2187  0007                     	;# 
  2188  0008                     	;# 
  2189  0009                     	;# 
  2190  000A                     	;# 
  2191  000B                     	;# 
  2192  000C                     	;# 
  2193  000E                     	;# 
  2194  0010                     	;# 
  2195  0011                     	;# 
  2196  0012                     	;# 
  2197  0013                     	;# 
  2198  0014                     	;# 
  2199  0015                     	;# 
  2200  0015                     	;# 
  2201  0016                     	;# 
  2202  0016                     	;# 
  2203  0017                     	;# 
  2204  0018                     	;# 
  2205  0019                     	;# 
  2206  0019                     	;# 
  2207  001A                     	;# 
  2208  001B                     	;# 
  2209  001C                     	;# 
  2210  001D                     	;# 
  2211  001E                     	;# 
  2212  001F                     	;# 
  2213  008C                     	;# 
  2214  008E                     	;# 
  2215  0090                     	;# 
  2216  0091                     	;# 
  2217  0092                     	;# 
  2218  0093                     	;# 
  2219  0094                     	;# 
  2220  0097                     	;# 
  2221  009B                     	;# 
  2222  009B                     	;# 
  2223  009C                     	;# 
  2224  009D                     	;# 
  2225  009E                     	;# 
  2226  009F                     	;# 
  2227  010C                     	;# 
  2228  010E                     	;# 
  2229  0111                     	;# 
  2230  0112                     	;# 
  2231  0113                     	;# 
  2232  0114                     	;# 
  2233  0115                     	;# 
  2234  0116                     	;# 
  2235  0117                     	;# 
  2236  0118                     	;# 
  2237  0119                     	;# 
  2238  018C                     	;# 
  2239  018E                     	;# 
  2240  0197                     	;# 
  2241  0199                     	;# 
  2242  0199                     	;# 
  2243  0199                     	;# 
  2244  019A                     	;# 
  2245  019A                     	;# 
  2246  019A                     	;# 
  2247  019B                     	;# 
  2248  019B                     	;# 
  2249  019B                     	;# 
  2250  019B                     	;# 
  2251  019B                     	;# 
  2252  019C                     	;# 
  2253  019C                     	;# 
  2254  019C                     	;# 
  2255  019D                     	;# 
  2256  019D                     	;# 
  2257  019D                     	;# 
  2258  019E                     	;# 
  2259  019E                     	;# 
  2260  019E                     	;# 
  2261  019F                     	;# 
  2262  019F                     	;# 
  2263  019F                     	;# 
  2264  019F                     	;# 
  2265  019F                     	;# 
  2266  020C                     	;# 
  2267  020E                     	;# 
  2268  0211                     	;# 
  2269  0211                     	;# 
  2270  0212                     	;# 
  2271  0212                     	;# 
  2272  0213                     	;# 
  2273  0213                     	;# 
  2274  0214                     	;# 
  2275  0214                     	;# 
  2276  0215                     	;# 
  2277  0215                     	;# 
  2278  0215                     	;# 
  2279  0215                     	;# 
  2280  0216                     	;# 
  2281  0216                     	;# 
  2282  0217                     	;# 
  2283  0217                     	;# 
  2284  0219                     	;# 
  2285  021A                     	;# 
  2286  021B                     	;# 
  2287  021C                     	;# 
  2288  021D                     	;# 
  2289  021D                     	;# 
  2290  021E                     	;# 
  2291  021F                     	;# 
  2292  028C                     	;# 
  2293  028E                     	;# 
  2294  0291                     	;# 
  2295  0291                     	;# 
  2296  0292                     	;# 
  2297  0293                     	;# 
  2298  0294                     	;# 
  2299  0295                     	;# 
  2300  0295                     	;# 
  2301  0296                     	;# 
  2302  0297                     	;# 
  2303  0298                     	;# 
  2304  029F                     	;# 
  2305  030C                     	;# 
  2306  030E                     	;# 
  2307  0311                     	;# 
  2308  0311                     	;# 
  2309  0312                     	;# 
  2310  0313                     	;# 
  2311  0314                     	;# 
  2312  0315                     	;# 
  2313  0315                     	;# 
  2314  0316                     	;# 
  2315  0317                     	;# 
  2316  0318                     	;# 
  2317  038C                     	;# 
  2318  038E                     	;# 
  2319  0391                     	;# 
  2320  0392                     	;# 
  2321  0393                     	;# 
  2322  0397                     	;# 
  2323  0398                     	;# 
  2324  0399                     	;# 
  2325  039A                     	;# 
  2326  039C                     	;# 
  2327  039D                     	;# 
  2328  039E                     	;# 
  2329  039F                     	;# 
  2330  0411                     	;# 
  2331  0411                     	;# 
  2332  0412                     	;# 
  2333  0413                     	;# 
  2334  0414                     	;# 
  2335  0415                     	;# 
  2336  0416                     	;# 
  2337  0417                     	;# 
  2338  0418                     	;# 
  2339  0418                     	;# 
  2340  0419                     	;# 
  2341  041A                     	;# 
  2342  041B                     	;# 
  2343  041C                     	;# 
  2344  041D                     	;# 
  2345  041E                     	;# 
  2346  041F                     	;# 
  2347  0498                     	;# 
  2348  0498                     	;# 
  2349  0499                     	;# 
  2350  049A                     	;# 
  2351  049B                     	;# 
  2352  049B                     	;# 
  2353  049C                     	;# 
  2354  049D                     	;# 
  2355  049E                     	;# 
  2356  049F                     	;# 
  2357  0617                     	;# 
  2358  0618                     	;# 
  2359  0619                     	;# 
  2360  0619                     	;# 
  2361  061A                     	;# 
  2362  061B                     	;# 
  2363  061C                     	;# 
  2364  061C                     	;# 
  2365  061F                     	;# 
  2366  0691                     	;# 
  2367  0692                     	;# 
  2368  0693                     	;# 
  2369  0694                     	;# 
  2370  0695                     	;# 
  2371  0696                     	;# 
  2372  0697                     	;# 
  2373  0698                     	;# 
  2374  0699                     	;# 
  2375  0711                     	;# 
  2376  0712                     	;# 
  2377  0713                     	;# 
  2378  0714                     	;# 
  2379  0715                     	;# 
  2380  0716                     	;# 
  2381  0717                     	;# 
  2382  0718                     	;# 
  2383  0719                     	;# 
  2384  0891                     	;# 
  2385  0891                     	;# 
  2386  0891                     	;# 
  2387  0891                     	;# 
  2388  0891                     	;# 
  2389  0891                     	;# 
  2390  0892                     	;# 
  2391  0892                     	;# 
  2392  0892                     	;# 
  2393  0893                     	;# 
  2394  0893                     	;# 
  2395  0893                     	;# 
  2396  0893                     	;# 
  2397  0893                     	;# 
  2398  0893                     	;# 
  2399  0894                     	;# 
  2400  0894                     	;# 
  2401  0894                     	;# 
  2402  0895                     	;# 
  2403  0895                     	;# 
  2404  0895                     	;# 
  2405  0896                     	;# 
  2406  0896                     	;# 
  2407  0896                     	;# 
  2408  089B                     	;# 
  2409  0911                     	;# 
  2410  0912                     	;# 
  2411  0913                     	;# 
  2412  0914                     	;# 
  2413  0915                     	;# 
  2414  0916                     	;# 
  2415  0918                     	;# 
  2416  0919                     	;# 
  2417  091A                     	;# 
  2418  091B                     	;# 
  2419  091C                     	;# 
  2420  091D                     	;# 
  2421  091E                     	;# 
  2422  091F                     	;# 
  2423  0E0F                     	;# 
  2424  0E10                     	;# 
  2425  0E11                     	;# 
  2426  0E12                     	;# 
  2427  0E13                     	;# 
  2428  0E14                     	;# 
  2429  0E15                     	;# 
  2430  0E16                     	;# 
  2431  0E17                     	;# 
  2432  0E18                     	;# 
  2433  0E19                     	;# 
  2434  0E1A                     	;# 
  2435  0E1B                     	;# 
  2436  0E1C                     	;# 
  2437  0E1D                     	;# 
  2438  0E1E                     	;# 
  2439  0E1F                     	;# 
  2440  0E20                     	;# 
  2441  0E21                     	;# 
  2442  0E22                     	;# 
  2443  0E24                     	;# 
  2444  0E25                     	;# 
  2445  0E28                     	;# 
  2446  0E29                     	;# 
  2447  0E2A                     	;# 
  2448  0E2B                     	;# 
  2449  0E2C                     	;# 
  2450  0E2D                     	;# 
  2451  0E2E                     	;# 
  2452  0E2F                     	;# 
  2453  0E90                     	;# 
  2454  0E91                     	;# 
  2455  0E92                     	;# 
  2456  0E94                     	;# 
  2457  0E95                     	;# 
  2458  0EA0                     	;# 
  2459  0EA1                     	;# 
  2460  0EA2                     	;# 
  2461  0EA3                     	;# 
  2462  0EA4                     	;# 
  2463  0EA5                     	;# 
  2464  0F0F                     	;# 
  2465  0F10                     	;# 
  2466  0F11                     	;# 
  2467  0F12                     	;# 
  2468  0F13                     	;# 
  2469  0F14                     	;# 
  2470  0F15                     	;# 
  2471  0F16                     	;# 
  2472  0F17                     	;# 
  2473  0F18                     	;# 
  2474  0F19                     	;# 
  2475  0F1A                     	;# 
  2476  0F1B                     	;# 
  2477  0F1C                     	;# 
  2478  0F1D                     	;# 
  2479  0F1E                     	;# 
  2480  0F1F                     	;# 
  2481  0F20                     	;# 
  2482  0F21                     	;# 
  2483  0F22                     	;# 
  2484  0F23                     	;# 
  2485  0F24                     	;# 
  2486  0F25                     	;# 
  2487  0F26                     	;# 
  2488  0F27                     	;# 
  2489  0F28                     	;# 
  2490  0F29                     	;# 
  2491  0F2A                     	;# 
  2492  0F2B                     	;# 
  2493  0F2C                     	;# 
  2494  0F2D                     	;# 
  2495  0F2E                     	;# 
  2496  0F2F                     	;# 
  2497  0F30                     	;# 
  2498  0F31                     	;# 
  2499  0F32                     	;# 
  2500  0F33                     	;# 
  2501  0F34                     	;# 
  2502  0F35                     	;# 
  2503  0F36                     	;# 
  2504  0F37                     	;# 
  2505  0FE4                     	;# 
  2506  0FE5                     	;# 
  2507  0FE6                     	;# 
  2508  0FE7                     	;# 
  2509  0FE8                     	;# 
  2510  0FE9                     	;# 
  2511  0FEA                     	;# 
  2512  0FEB                     	;# 
  2513  0FED                     	;# 
  2514  0FEE                     	;# 
  2515  0FEF                     	;# 
  2516  0000                     	;# 
  2517  0001                     	;# 
  2518  0002                     	;# 
  2519  0003                     	;# 
  2520  0004                     	;# 
  2521  0005                     	;# 
  2522  0006                     	;# 
  2523  0007                     	;# 
  2524  0008                     	;# 
  2525  0009                     	;# 
  2526  000A                     	;# 
  2527  000B                     	;# 
  2528  000C                     	;# 
  2529  000E                     	;# 
  2530  0010                     	;# 
  2531  0011                     	;# 
  2532  0012                     	;# 
  2533  0013                     	;# 
  2534  0014                     	;# 
  2535  0015                     	;# 
  2536  0015                     	;# 
  2537  0016                     	;# 
  2538  0016                     	;# 
  2539  0017                     	;# 
  2540  0018                     	;# 
  2541  0019                     	;# 
  2542  0019                     	;# 
  2543  001A                     	;# 
  2544  001B                     	;# 
  2545  001C                     	;# 
  2546  001D                     	;# 
  2547  001E                     	;# 
  2548  001F                     	;# 
  2549  008C                     	;# 
  2550  008E                     	;# 
  2551  0090                     	;# 
  2552  0091                     	;# 
  2553  0092                     	;# 
  2554  0093                     	;# 
  2555  0094                     	;# 
  2556  0097                     	;# 
  2557  009B                     	;# 
  2558  009B                     	;# 
  2559  009C                     	;# 
  2560  009D                     	;# 
  2561  009E                     	;# 
  2562  009F                     	;# 
  2563  010C                     	;# 
  2564  010E                     	;# 
  2565  0111                     	;# 
  2566  0112                     	;# 
  2567  0113                     	;# 
  2568  0114                     	;# 
  2569  0115                     	;# 
  2570  0116                     	;# 
  2571  0117                     	;# 
  2572  0118                     	;# 
  2573  0119                     	;# 
  2574  018C                     	;# 
  2575  018E                     	;# 
  2576  0197                     	;# 
  2577  0199                     	;# 
  2578  0199                     	;# 
  2579  0199                     	;# 
  2580  019A                     	;# 
  2581  019A                     	;# 
  2582  019A                     	;# 
  2583  019B                     	;# 
  2584  019B                     	;# 
  2585  019B                     	;# 
  2586  019B                     	;# 
  2587  019B                     	;# 
  2588  019C                     	;# 
  2589  019C                     	;# 
  2590  019C                     	;# 
  2591  019D                     	;# 
  2592  019D                     	;# 
  2593  019D                     	;# 
  2594  019E                     	;# 
  2595  019E                     	;# 
  2596  019E                     	;# 
  2597  019F                     	;# 
  2598  019F                     	;# 
  2599  019F                     	;# 
  2600  019F                     	;# 
  2601  019F                     	;# 
  2602  020C                     	;# 
  2603  020E                     	;# 
  2604  0211                     	;# 
  2605  0211                     	;# 
  2606  0212                     	;# 
  2607  0212                     	;# 
  2608  0213                     	;# 
  2609  0213                     	;# 
  2610  0214                     	;# 
  2611  0214                     	;# 
  2612  0215                     	;# 
  2613  0215                     	;# 
  2614  0215                     	;# 
  2615  0215                     	;# 
  2616  0216                     	;# 
  2617  0216                     	;# 
  2618  0217                     	;# 
  2619  0217                     	;# 
  2620  0219                     	;# 
  2621  021A                     	;# 
  2622  021B                     	;# 
  2623  021C                     	;# 
  2624  021D                     	;# 
  2625  021D                     	;# 
  2626  021E                     	;# 
  2627  021F                     	;# 
  2628  028C                     	;# 
  2629  028E                     	;# 
  2630  0291                     	;# 
  2631  0291                     	;# 
  2632  0292                     	;# 
  2633  0293                     	;# 
  2634  0294                     	;# 
  2635  0295                     	;# 
  2636  0295                     	;# 
  2637  0296                     	;# 
  2638  0297                     	;# 
  2639  0298                     	;# 
  2640  029F                     	;# 
  2641  030C                     	;# 
  2642  030E                     	;# 
  2643  0311                     	;# 
  2644  0311                     	;# 
  2645  0312                     	;# 
  2646  0313                     	;# 
  2647  0314                     	;# 
  2648  0315                     	;# 
  2649  0315                     	;# 
  2650  0316                     	;# 
  2651  0317                     	;# 
  2652  0318                     	;# 
  2653  038C                     	;# 
  2654  038E                     	;# 
  2655  0391                     	;# 
  2656  0392                     	;# 
  2657  0393                     	;# 
  2658  0397                     	;# 
  2659  0398                     	;# 
  2660  0399                     	;# 
  2661  039A                     	;# 
  2662  039C                     	;# 
  2663  039D                     	;# 
  2664  039E                     	;# 
  2665  039F                     	;# 
  2666  0411                     	;# 
  2667  0411                     	;# 
  2668  0412                     	;# 
  2669  0413                     	;# 
  2670  0414                     	;# 
  2671  0415                     	;# 
  2672  0416                     	;# 
  2673  0417                     	;# 
  2674  0418                     	;# 
  2675  0418                     	;# 
  2676  0419                     	;# 
  2677  041A                     	;# 
  2678  041B                     	;# 
  2679  041C                     	;# 
  2680  041D                     	;# 
  2681  041E                     	;# 
  2682  041F                     	;# 
  2683  0498                     	;# 
  2684  0498                     	;# 
  2685  0499                     	;# 
  2686  049A                     	;# 
  2687  049B                     	;# 
  2688  049B                     	;# 
  2689  049C                     	;# 
  2690  049D                     	;# 
  2691  049E                     	;# 
  2692  049F                     	;# 
  2693  0617                     	;# 
  2694  0618                     	;# 
  2695  0619                     	;# 
  2696  0619                     	;# 
  2697  061A                     	;# 
  2698  061B                     	;# 
  2699  061C                     	;# 
  2700  061C                     	;# 
  2701  061F                     	;# 
  2702  0691                     	;# 
  2703  0692                     	;# 
  2704  0693                     	;# 
  2705  0694                     	;# 
  2706  0695                     	;# 
  2707  0696                     	;# 
  2708  0697                     	;# 
  2709  0698                     	;# 
  2710  0699                     	;# 
  2711  0711                     	;# 
  2712  0712                     	;# 
  2713  0713                     	;# 
  2714  0714                     	;# 
  2715  0715                     	;# 
  2716  0716                     	;# 
  2717  0717                     	;# 
  2718  0718                     	;# 
  2719  0719                     	;# 
  2720  0891                     	;# 
  2721  0891                     	;# 
  2722  0891                     	;# 
  2723  0891                     	;# 
  2724  0891                     	;# 
  2725  0891                     	;# 
  2726  0892                     	;# 
  2727  0892                     	;# 
  2728  0892                     	;# 
  2729  0893                     	;# 
  2730  0893                     	;# 
  2731  0893                     	;# 
  2732  0893                     	;# 
  2733  0893                     	;# 
  2734  0893                     	;# 
  2735  0894                     	;# 
  2736  0894                     	;# 
  2737  0894                     	;# 
  2738  0895                     	;# 
  2739  0895                     	;# 
  2740  0895                     	;# 
  2741  0896                     	;# 
  2742  0896                     	;# 
  2743  0896                     	;# 
  2744  089B                     	;# 
  2745  0911                     	;# 
  2746  0912                     	;# 
  2747  0913                     	;# 
  2748  0914                     	;# 
  2749  0915                     	;# 
  2750  0916                     	;# 
  2751  0918                     	;# 
  2752  0919                     	;# 
  2753  091A                     	;# 
  2754  091B                     	;# 
  2755  091C                     	;# 
  2756  091D                     	;# 
  2757  091E                     	;# 
  2758  091F                     	;# 
  2759  0E0F                     	;# 
  2760  0E10                     	;# 
  2761  0E11                     	;# 
  2762  0E12                     	;# 
  2763  0E13                     	;# 
  2764  0E14                     	;# 
  2765  0E15                     	;# 
  2766  0E16                     	;# 
  2767  0E17                     	;# 
  2768  0E18                     	;# 
  2769  0E19                     	;# 
  2770  0E1A                     	;# 
  2771  0E1B                     	;# 
  2772  0E1C                     	;# 
  2773  0E1D                     	;# 
  2774  0E1E                     	;# 
  2775  0E1F                     	;# 
  2776  0E20                     	;# 
  2777  0E21                     	;# 
  2778  0E22                     	;# 
  2779  0E24                     	;# 
  2780  0E25                     	;# 
  2781  0E28                     	;# 
  2782  0E29                     	;# 
  2783  0E2A                     	;# 
  2784  0E2B                     	;# 
  2785  0E2C                     	;# 
  2786  0E2D                     	;# 
  2787  0E2E                     	;# 
  2788  0E2F                     	;# 
  2789  0E90                     	;# 
  2790  0E91                     	;# 
  2791  0E92                     	;# 
  2792  0E94                     	;# 
  2793  0E95                     	;# 
  2794  0EA0                     	;# 
  2795  0EA1                     	;# 
  2796  0EA2                     	;# 
  2797  0EA3                     	;# 
  2798  0EA4                     	;# 
  2799  0EA5                     	;# 
  2800  0F0F                     	;# 
  2801  0F10                     	;# 
  2802  0F11                     	;# 
  2803  0F12                     	;# 
  2804  0F13                     	;# 
  2805  0F14                     	;# 
  2806  0F15                     	;# 
  2807  0F16                     	;# 
  2808  0F17                     	;# 
  2809  0F18                     	;# 
  2810  0F19                     	;# 
  2811  0F1A                     	;# 
  2812  0F1B                     	;# 
  2813  0F1C                     	;# 
  2814  0F1D                     	;# 
  2815  0F1E                     	;# 
  2816  0F1F                     	;# 
  2817  0F20                     	;# 
  2818  0F21                     	;# 
  2819  0F22                     	;# 
  2820  0F23                     	;# 
  2821  0F24                     	;# 
  2822  0F25                     	;# 
  2823  0F26                     	;# 
  2824  0F27                     	;# 
  2825  0F28                     	;# 
  2826  0F29                     	;# 
  2827  0F2A                     	;# 
  2828  0F2B                     	;# 
  2829  0F2C                     	;# 
  2830  0F2D                     	;# 
  2831  0F2E                     	;# 
  2832  0F2F                     	;# 
  2833  0F30                     	;# 
  2834  0F31                     	;# 
  2835  0F32                     	;# 
  2836  0F33                     	;# 
  2837  0F34                     	;# 
  2838  0F35                     	;# 
  2839  0F36                     	;# 
  2840  0F37                     	;# 
  2841  0FE4                     	;# 
  2842  0FE5                     	;# 
  2843  0FE6                     	;# 
  2844  0FE7                     	;# 
  2845  0FE8                     	;# 
  2846  0FE9                     	;# 
  2847  0FEA                     	;# 
  2848  0FEB                     	;# 
  2849  0FED                     	;# 
  2850  0FEE                     	;# 
  2851  0FEF                     	;# 
  2852  0000                     	;# 
  2853  0001                     	;# 
  2854  0002                     	;# 
  2855  0003                     	;# 
  2856  0004                     	;# 
  2857  0005                     	;# 
  2858  0006                     	;# 
  2859  0007                     	;# 
  2860  0008                     	;# 
  2861  0009                     	;# 
  2862  000A                     	;# 
  2863  000B                     	;# 
  2864  000C                     	;# 
  2865  000E                     	;# 
  2866  0010                     	;# 
  2867  0011                     	;# 
  2868  0012                     	;# 
  2869  0013                     	;# 
  2870  0014                     	;# 
  2871  0015                     	;# 
  2872  0015                     	;# 
  2873  0016                     	;# 
  2874  0016                     	;# 
  2875  0017                     	;# 
  2876  0018                     	;# 
  2877  0019                     	;# 
  2878  0019                     	;# 
  2879  001A                     	;# 
  2880  001B                     	;# 
  2881  001C                     	;# 
  2882  001D                     	;# 
  2883  001E                     	;# 
  2884  001F                     	;# 
  2885  008C                     	;# 
  2886  008E                     	;# 
  2887  0090                     	;# 
  2888  0091                     	;# 
  2889  0092                     	;# 
  2890  0093                     	;# 
  2891  0094                     	;# 
  2892  0097                     	;# 
  2893  009B                     	;# 
  2894  009B                     	;# 
  2895  009C                     	;# 
  2896  009D                     	;# 
  2897  009E                     	;# 
  2898  009F                     	;# 
  2899  010C                     	;# 
  2900  010E                     	;# 
  2901  0111                     	;# 
  2902  0112                     	;# 
  2903  0113                     	;# 
  2904  0114                     	;# 
  2905  0115                     	;# 
  2906  0116                     	;# 
  2907  0117                     	;# 
  2908  0118                     	;# 
  2909  0119                     	;# 
  2910  018C                     	;# 
  2911  018E                     	;# 
  2912  0197                     	;# 
  2913  0199                     	;# 
  2914  0199                     	;# 
  2915  0199                     	;# 
  2916  019A                     	;# 
  2917  019A                     	;# 
  2918  019A                     	;# 
  2919  019B                     	;# 
  2920  019B                     	;# 
  2921  019B                     	;# 
  2922  019B                     	;# 
  2923  019B                     	;# 
  2924  019C                     	;# 
  2925  019C                     	;# 
  2926  019C                     	;# 
  2927  019D                     	;# 
  2928  019D                     	;# 
  2929  019D                     	;# 
  2930  019E                     	;# 
  2931  019E                     	;# 
  2932  019E                     	;# 
  2933  019F                     	;# 
  2934  019F                     	;# 
  2935  019F                     	;# 
  2936  019F                     	;# 
  2937  019F                     	;# 
  2938  020C                     	;# 
  2939  020E                     	;# 
  2940  0211                     	;# 
  2941  0211                     	;# 
  2942  0212                     	;# 
  2943  0212                     	;# 
  2944  0213                     	;# 
  2945  0213                     	;# 
  2946  0214                     	;# 
  2947  0214                     	;# 
  2948  0215                     	;# 
  2949  0215                     	;# 
  2950  0215                     	;# 
  2951  0215                     	;# 
  2952  0216                     	;# 
  2953  0216                     	;# 
  2954  0217                     	;# 
  2955  0217                     	;# 
  2956  0219                     	;# 
  2957  021A                     	;# 
  2958  021B                     	;# 
  2959  021C                     	;# 
  2960  021D                     	;# 
  2961  021D                     	;# 
  2962  021E                     	;# 
  2963  021F                     	;# 
  2964  028C                     	;# 
  2965  028E                     	;# 
  2966  0291                     	;# 
  2967  0291                     	;# 
  2968  0292                     	;# 
  2969  0293                     	;# 
  2970  0294                     	;# 
  2971  0295                     	;# 
  2972  0295                     	;# 
  2973  0296                     	;# 
  2974  0297                     	;# 
  2975  0298                     	;# 
  2976  029F                     	;# 
  2977  030C                     	;# 
  2978  030E                     	;# 
  2979  0311                     	;# 
  2980  0311                     	;# 
  2981  0312                     	;# 
  2982  0313                     	;# 
  2983  0314                     	;# 
  2984  0315                     	;# 
  2985  0315                     	;# 
  2986  0316                     	;# 
  2987  0317                     	;# 
  2988  0318                     	;# 
  2989  038C                     	;# 
  2990  038E                     	;# 
  2991  0391                     	;# 
  2992  0392                     	;# 
  2993  0393                     	;# 
  2994  0397                     	;# 
  2995  0398                     	;# 
  2996  0399                     	;# 
  2997  039A                     	;# 
  2998  039C                     	;# 
  2999  039D                     	;# 
  3000  039E                     	;# 
  3001  039F                     	;# 
  3002  0411                     	;# 
  3003  0411                     	;# 
  3004  0412                     	;# 
  3005  0413                     	;# 
  3006  0414                     	;# 
  3007  0415                     	;# 
  3008  0416                     	;# 
  3009  0417                     	;# 
  3010  0418                     	;# 
  3011  0418                     	;# 
  3012  0419                     	;# 
  3013  041A                     	;# 
  3014  041B                     	;# 
  3015  041C                     	;# 
  3016  041D                     	;# 
  3017  041E                     	;# 
  3018  041F                     	;# 
  3019  0498                     	;# 
  3020  0498                     	;# 
  3021  0499                     	;# 
  3022  049A                     	;# 
  3023  049B                     	;# 
  3024  049B                     	;# 
  3025  049C                     	;# 
  3026  049D                     	;# 
  3027  049E                     	;# 
  3028  049F                     	;# 
  3029  0617                     	;# 
  3030  0618                     	;# 
  3031  0619                     	;# 
  3032  0619                     	;# 
  3033  061A                     	;# 
  3034  061B                     	;# 
  3035  061C                     	;# 
  3036  061C                     	;# 
  3037  061F                     	;# 
  3038  0691                     	;# 
  3039  0692                     	;# 
  3040  0693                     	;# 
  3041  0694                     	;# 
  3042  0695                     	;# 
  3043  0696                     	;# 
  3044  0697                     	;# 
  3045  0698                     	;# 
  3046  0699                     	;# 
  3047  0711                     	;# 
  3048  0712                     	;# 
  3049  0713                     	;# 
  3050  0714                     	;# 
  3051  0715                     	;# 
  3052  0716                     	;# 
  3053  0717                     	;# 
  3054  0718                     	;# 
  3055  0719                     	;# 
  3056  0891                     	;# 
  3057  0891                     	;# 
  3058  0891                     	;# 
  3059  0891                     	;# 
  3060  0891                     	;# 
  3061  0891                     	;# 
  3062  0892                     	;# 
  3063  0892                     	;# 
  3064  0892                     	;# 
  3065  0893                     	;# 
  3066  0893                     	;# 
  3067  0893                     	;# 
  3068  0893                     	;# 
  3069  0893                     	;# 
  3070  0893                     	;# 
  3071  0894                     	;# 
  3072  0894                     	;# 
  3073  0894                     	;# 
  3074  0895                     	;# 
  3075  0895                     	;# 
  3076  0895                     	;# 
  3077  0896                     	;# 
  3078  0896                     	;# 
  3079  0896                     	;# 
  3080  089B                     	;# 
  3081  0911                     	;# 
  3082  0912                     	;# 
  3083  0913                     	;# 
  3084  0914                     	;# 
  3085  0915                     	;# 
  3086  0916                     	;# 
  3087  0918                     	;# 
  3088  0919                     	;# 
  3089  091A                     	;# 
  3090  091B                     	;# 
  3091  091C                     	;# 
  3092  091D                     	;# 
  3093  091E                     	;# 
  3094  091F                     	;# 
  3095  0E0F                     	;# 
  3096  0E10                     	;# 
  3097  0E11                     	;# 
  3098  0E12                     	;# 
  3099  0E13                     	;# 
  3100  0E14                     	;# 
  3101  0E15                     	;# 
  3102  0E16                     	;# 
  3103  0E17                     	;# 
  3104  0E18                     	;# 
  3105  0E19                     	;# 
  3106  0E1A                     	;# 
  3107  0E1B                     	;# 
  3108  0E1C                     	;# 
  3109  0E1D                     	;# 
  3110  0E1E                     	;# 
  3111  0E1F                     	;# 
  3112  0E20                     	;# 
  3113  0E21                     	;# 
  3114  0E22                     	;# 
  3115  0E24                     	;# 
  3116  0E25                     	;# 
  3117  0E28                     	;# 
  3118  0E29                     	;# 
  3119  0E2A                     	;# 
  3120  0E2B                     	;# 
  3121  0E2C                     	;# 
  3122  0E2D                     	;# 
  3123  0E2E                     	;# 
  3124  0E2F                     	;# 
  3125  0E90                     	;# 
  3126  0E91                     	;# 
  3127  0E92                     	;# 
  3128  0E94                     	;# 
  3129  0E95                     	;# 
  3130  0EA0                     	;# 
  3131  0EA1                     	;# 
  3132  0EA2                     	;# 
  3133  0EA3                     	;# 
  3134  0EA4                     	;# 
  3135  0EA5                     	;# 
  3136  0F0F                     	;# 
  3137  0F10                     	;# 
  3138  0F11                     	;# 
  3139  0F12                     	;# 
  3140  0F13                     	;# 
  3141  0F14                     	;# 
  3142  0F15                     	;# 
  3143  0F16                     	;# 
  3144  0F17                     	;# 
  3145  0F18                     	;# 
  3146  0F19                     	;# 
  3147  0F1A                     	;# 
  3148  0F1B                     	;# 
  3149  0F1C                     	;# 
  3150  0F1D                     	;# 
  3151  0F1E                     	;# 
  3152  0F1F                     	;# 
  3153  0F20                     	;# 
  3154  0F21                     	;# 
  3155  0F22                     	;# 
  3156  0F23                     	;# 
  3157  0F24                     	;# 
  3158  0F25                     	;# 
  3159  0F26                     	;# 
  3160  0F27                     	;# 
  3161  0F28                     	;# 
  3162  0F29                     	;# 
  3163  0F2A                     	;# 
  3164  0F2B                     	;# 
  3165  0F2C                     	;# 
  3166  0F2D                     	;# 
  3167  0F2E                     	;# 
  3168  0F2F                     	;# 
  3169  0F30                     	;# 
  3170  0F31                     	;# 
  3171  0F32                     	;# 
  3172  0F33                     	;# 
  3173  0F34                     	;# 
  3174  0F35                     	;# 
  3175  0F36                     	;# 
  3176  0F37                     	;# 
  3177  0FE4                     	;# 
  3178  0FE5                     	;# 
  3179  0FE6                     	;# 
  3180  0FE7                     	;# 
  3181  0FE8                     	;# 
  3182  0FE9                     	;# 
  3183  0FEA                     	;# 
  3184  0FEB                     	;# 
  3185  0FED                     	;# 
  3186  0FEE                     	;# 
  3187  0FEF                     	;# 
  3188  0000                     	;# 
  3189  0001                     	;# 
  3190  0002                     	;# 
  3191  0003                     	;# 
  3192  0004                     	;# 
  3193  0005                     	;# 
  3194  0006                     	;# 
  3195  0007                     	;# 
  3196  0008                     	;# 
  3197  0009                     	;# 
  3198  000A                     	;# 
  3199  000B                     	;# 
  3200  000C                     	;# 
  3201  000E                     	;# 
  3202  0010                     	;# 
  3203  0011                     	;# 
  3204  0012                     	;# 
  3205  0013                     	;# 
  3206  0014                     	;# 
  3207  0015                     	;# 
  3208  0015                     	;# 
  3209  0016                     	;# 
  3210  0016                     	;# 
  3211  0017                     	;# 
  3212  0018                     	;# 
  3213  0019                     	;# 
  3214  0019                     	;# 
  3215  001A                     	;# 
  3216  001B                     	;# 
  3217  001C                     	;# 
  3218  001D                     	;# 
  3219  001E                     	;# 
  3220  001F                     	;# 
  3221  008C                     	;# 
  3222  008E                     	;# 
  3223  0090                     	;# 
  3224  0091                     	;# 
  3225  0092                     	;# 
  3226  0093                     	;# 
  3227  0094                     	;# 
  3228  0097                     	;# 
  3229  009B                     	;# 
  3230  009B                     	;# 
  3231  009C                     	;# 
  3232  009D                     	;# 
  3233  009E                     	;# 
  3234  009F                     	;# 
  3235  010C                     	;# 
  3236  010E                     	;# 
  3237  0111                     	;# 
  3238  0112                     	;# 
  3239  0113                     	;# 
  3240  0114                     	;# 
  3241  0115                     	;# 
  3242  0116                     	;# 
  3243  0117                     	;# 
  3244  0118                     	;# 
  3245  0119                     	;# 
  3246  018C                     	;# 
  3247  018E                     	;# 
  3248  0197                     	;# 
  3249  0199                     	;# 
  3250  0199                     	;# 
  3251  0199                     	;# 
  3252  019A                     	;# 
  3253  019A                     	;# 
  3254  019A                     	;# 
  3255  019B                     	;# 
  3256  019B                     	;# 
  3257  019B                     	;# 
  3258  019B                     	;# 
  3259  019B                     	;# 
  3260  019C                     	;# 
  3261  019C                     	;# 
  3262  019C                     	;# 
  3263  019D                     	;# 
  3264  019D                     	;# 
  3265  019D                     	;# 
  3266  019E                     	;# 
  3267  019E                     	;# 
  3268  019E                     	;# 
  3269  019F                     	;# 
  3270  019F                     	;# 
  3271  019F                     	;# 
  3272  019F                     	;# 
  3273  019F                     	;# 
  3274  020C                     	;# 
  3275  020E                     	;# 
  3276  0211                     	;# 
  3277  0211                     	;# 
  3278  0212                     	;# 
  3279  0212                     	;# 
  3280  0213                     	;# 
  3281  0213                     	;# 
  3282  0214                     	;# 
  3283  0214                     	;# 
  3284  0215                     	;# 
  3285  0215                     	;# 
  3286  0215                     	;# 
  3287  0215                     	;# 
  3288  0216                     	;# 
  3289  0216                     	;# 
  3290  0217                     	;# 
  3291  0217                     	;# 
  3292  0219                     	;# 
  3293  021A                     	;# 
  3294  021B                     	;# 
  3295  021C                     	;# 
  3296  021D                     	;# 
  3297  021D                     	;# 
  3298  021E                     	;# 
  3299  021F                     	;# 
  3300  028C                     	;# 
  3301  028E                     	;# 
  3302  0291                     	;# 
  3303  0291                     	;# 
  3304  0292                     	;# 
  3305  0293                     	;# 
  3306  0294                     	;# 
  3307  0295                     	;# 
  3308  0295                     	;# 
  3309  0296                     	;# 
  3310  0297                     	;# 
  3311  0298                     	;# 
  3312  029F                     	;# 
  3313  030C                     	;# 
  3314  030E                     	;# 
  3315  0311                     	;# 
  3316  0311                     	;# 
  3317  0312                     	;# 
  3318  0313                     	;# 
  3319  0314                     	;# 
  3320  0315                     	;# 
  3321  0315                     	;# 
  3322  0316                     	;# 
  3323  0317                     	;# 
  3324  0318                     	;# 
  3325  038C                     	;# 
  3326  038E                     	;# 
  3327  0391                     	;# 
  3328  0392                     	;# 
  3329  0393                     	;# 
  3330  0397                     	;# 
  3331  0398                     	;# 
  3332  0399                     	;# 
  3333  039A                     	;# 
  3334  039C                     	;# 
  3335  039D                     	;# 
  3336  039E                     	;# 
  3337  039F                     	;# 
  3338  0411                     	;# 
  3339  0411                     	;# 
  3340  0412                     	;# 
  3341  0413                     	;# 
  3342  0414                     	;# 
  3343  0415                     	;# 
  3344  0416                     	;# 
  3345  0417                     	;# 
  3346  0418                     	;# 
  3347  0418                     	;# 
  3348  0419                     	;# 
  3349  041A                     	;# 
  3350  041B                     	;# 
  3351  041C                     	;# 
  3352  041D                     	;# 
  3353  041E                     	;# 
  3354  041F                     	;# 
  3355  0498                     	;# 
  3356  0498                     	;# 
  3357  0499                     	;# 
  3358  049A                     	;# 
  3359  049B                     	;# 
  3360  049B                     	;# 
  3361  049C                     	;# 
  3362  049D                     	;# 
  3363  049E                     	;# 
  3364  049F                     	;# 
  3365  0617                     	;# 
  3366  0618                     	;# 
  3367  0619                     	;# 
  3368  0619                     	;# 
  3369  061A                     	;# 
  3370  061B                     	;# 
  3371  061C                     	;# 
  3372  061C                     	;# 
  3373  061F                     	;# 
  3374  0691                     	;# 
  3375  0692                     	;# 
  3376  0693                     	;# 
  3377  0694                     	;# 
  3378  0695                     	;# 
  3379  0696                     	;# 
  3380  0697                     	;# 
  3381  0698                     	;# 
  3382  0699                     	;# 
  3383  0711                     	;# 
  3384  0712                     	;# 
  3385  0713                     	;# 
  3386  0714                     	;# 
  3387  0715                     	;# 
  3388  0716                     	;# 
  3389  0717                     	;# 
  3390  0718                     	;# 
  3391  0719                     	;# 
  3392  0891                     	;# 
  3393  0891                     	;# 
  3394  0891                     	;# 
  3395  0891                     	;# 
  3396  0891                     	;# 
  3397  0891                     	;# 
  3398  0892                     	;# 
  3399  0892                     	;# 
  3400  0892                     	;# 
  3401  0893                     	;# 
  3402  0893                     	;# 
  3403  0893                     	;# 
  3404  0893                     	;# 
  3405  0893                     	;# 
  3406  0893                     	;# 
  3407  0894                     	;# 
  3408  0894                     	;# 
  3409  0894                     	;# 
  3410  0895                     	;# 
  3411  0895                     	;# 
  3412  0895                     	;# 
  3413  0896                     	;# 
  3414  0896                     	;# 
  3415  0896                     	;# 
  3416  089B                     	;# 
  3417  0911                     	;# 
  3418  0912                     	;# 
  3419  0913                     	;# 
  3420  0914                     	;# 
  3421  0915                     	;# 
  3422  0916                     	;# 
  3423  0918                     	;# 
  3424  0919                     	;# 
  3425  091A                     	;# 
  3426  091B                     	;# 
  3427  091C                     	;# 
  3428  091D                     	;# 
  3429  091E                     	;# 
  3430  091F                     	;# 
  3431  0E0F                     	;# 
  3432  0E10                     	;# 
  3433  0E11                     	;# 
  3434  0E12                     	;# 
  3435  0E13                     	;# 
  3436  0E14                     	;# 
  3437  0E15                     	;# 
  3438  0E16                     	;# 
  3439  0E17                     	;# 
  3440  0E18                     	;# 
  3441  0E19                     	;# 
  3442  0E1A                     	;# 
  3443  0E1B                     	;# 
  3444  0E1C                     	;# 
  3445  0E1D                     	;# 
  3446  0E1E                     	;# 
  3447  0E1F                     	;# 
  3448  0E20                     	;# 
  3449  0E21                     	;# 
  3450  0E22                     	;# 
  3451  0E24                     	;# 
  3452  0E25                     	;# 
  3453  0E28                     	;# 
  3454  0E29                     	;# 
  3455  0E2A                     	;# 
  3456  0E2B                     	;# 
  3457  0E2C                     	;# 
  3458  0E2D                     	;# 
  3459  0E2E                     	;# 
  3460  0E2F                     	;# 
  3461  0E90                     	;# 
  3462  0E91                     	;# 
  3463  0E92                     	;# 
  3464  0E94                     	;# 
  3465  0E95                     	;# 
  3466  0EA0                     	;# 
  3467  0EA1                     	;# 
  3468  0EA2                     	;# 
  3469  0EA3                     	;# 
  3470  0EA4                     	;# 
  3471  0EA5                     	;# 
  3472  0F0F                     	;# 
  3473  0F10                     	;# 
  3474  0F11                     	;# 
  3475  0F12                     	;# 
  3476  0F13                     	;# 
  3477  0F14                     	;# 
  3478  0F15                     	;# 
  3479  0F16                     	;# 
  3480  0F17                     	;# 
  3481  0F18                     	;# 
  3482  0F19                     	;# 
  3483  0F1A                     	;# 
  3484  0F1B                     	;# 
  3485  0F1C                     	;# 
  3486  0F1D                     	;# 
  3487  0F1E                     	;# 
  3488  0F1F                     	;# 
  3489  0F20                     	;# 
  3490  0F21                     	;# 
  3491  0F22                     	;# 
  3492  0F23                     	;# 
  3493  0F24                     	;# 
  3494  0F25                     	;# 
  3495  0F26                     	;# 
  3496  0F27                     	;# 
  3497  0F28                     	;# 
  3498  0F29                     	;# 
  3499  0F2A                     	;# 
  3500  0F2B                     	;# 
  3501  0F2C                     	;# 
  3502  0F2D                     	;# 
  3503  0F2E                     	;# 
  3504  0F2F                     	;# 
  3505  0F30                     	;# 
  3506  0F31                     	;# 
  3507  0F32                     	;# 
  3508  0F33                     	;# 
  3509  0F34                     	;# 
  3510  0F35                     	;# 
  3511  0F36                     	;# 
  3512  0F37                     	;# 
  3513  0FE4                     	;# 
  3514  0FE5                     	;# 
  3515  0FE6                     	;# 
  3516  0FE7                     	;# 
  3517  0FE8                     	;# 
  3518  0FE9                     	;# 
  3519  0FEA                     	;# 
  3520  0FEB                     	;# 
  3521  0FED                     	;# 
  3522  0FEE                     	;# 
  3523  0FEF                     	;# 
  3524  0000                     	;# 
  3525  0001                     	;# 
  3526  0002                     	;# 
  3527  0003                     	;# 
  3528  0004                     	;# 
  3529  0005                     	;# 
  3530  0006                     	;# 
  3531  0007                     	;# 
  3532  0008                     	;# 
  3533  0009                     	;# 
  3534  000A                     	;# 
  3535  000B                     	;# 
  3536  000C                     	;# 
  3537  000E                     	;# 
  3538  0010                     	;# 
  3539  0011                     	;# 
  3540  0012                     	;# 
  3541  0013                     	;# 
  3542  0014                     	;# 
  3543  0015                     	;# 
  3544  0015                     	;# 
  3545  0016                     	;# 
  3546  0016                     	;# 
  3547  0017                     	;# 
  3548  0018                     	;# 
  3549  0019                     	;# 
  3550  0019                     	;# 
  3551  001A                     	;# 
  3552  001B                     	;# 
  3553  001C                     	;# 
  3554  001D                     	;# 
  3555  001E                     	;# 
  3556  001F                     	;# 
  3557  008C                     	;# 
  3558  008E                     	;# 
  3559  0090                     	;# 
  3560  0091                     	;# 
  3561  0092                     	;# 
  3562  0093                     	;# 
  3563  0094                     	;# 
  3564  0097                     	;# 
  3565  009B                     	;# 
  3566  009B                     	;# 
  3567  009C                     	;# 
  3568  009D                     	;# 
  3569  009E                     	;# 
  3570  009F                     	;# 
  3571  010C                     	;# 
  3572  010E                     	;# 
  3573  0111                     	;# 
  3574  0112                     	;# 
  3575  0113                     	;# 
  3576  0114                     	;# 
  3577  0115                     	;# 
  3578  0116                     	;# 
  3579  0117                     	;# 
  3580  0118                     	;# 
  3581  0119                     	;# 
  3582  018C                     	;# 
  3583  018E                     	;# 
  3584  0197                     	;# 
  3585  0199                     	;# 
  3586  0199                     	;# 
  3587  0199                     	;# 
  3588  019A                     	;# 
  3589  019A                     	;# 
  3590  019A                     	;# 
  3591  019B                     	;# 
  3592  019B                     	;# 
  3593  019B                     	;# 
  3594  019B                     	;# 
  3595  019B                     	;# 
  3596  019C                     	;# 
  3597  019C                     	;# 
  3598  019C                     	;# 
  3599  019D                     	;# 
  3600  019D                     	;# 
  3601  019D                     	;# 
  3602  019E                     	;# 
  3603  019E                     	;# 
  3604  019E                     	;# 
  3605  019F                     	;# 
  3606  019F                     	;# 
  3607  019F                     	;# 
  3608  019F                     	;# 
  3609  019F                     	;# 
  3610  020C                     	;# 
  3611  020E                     	;# 
  3612  0211                     	;# 
  3613  0211                     	;# 
  3614  0212                     	;# 
  3615  0212                     	;# 
  3616  0213                     	;# 
  3617  0213                     	;# 
  3618  0214                     	;# 
  3619  0214                     	;# 
  3620  0215                     	;# 
  3621  0215                     	;# 
  3622  0215                     	;# 
  3623  0215                     	;# 
  3624  0216                     	;# 
  3625  0216                     	;# 
  3626  0217                     	;# 
  3627  0217                     	;# 
  3628  0219                     	;# 
  3629  021A                     	;# 
  3630  021B                     	;# 
  3631  021C                     	;# 
  3632  021D                     	;# 
  3633  021D                     	;# 
  3634  021E                     	;# 
  3635  021F                     	;# 
  3636  028C                     	;# 
  3637  028E                     	;# 
  3638  0291                     	;# 
  3639  0291                     	;# 
  3640  0292                     	;# 
  3641  0293                     	;# 
  3642  0294                     	;# 
  3643  0295                     	;# 
  3644  0295                     	;# 
  3645  0296                     	;# 
  3646  0297                     	;# 
  3647  0298                     	;# 
  3648  029F                     	;# 
  3649  030C                     	;# 
  3650  030E                     	;# 
  3651  0311                     	;# 
  3652  0311                     	;# 
  3653  0312                     	;# 
  3654  0313                     	;# 
  3655  0314                     	;# 
  3656  0315                     	;# 
  3657  0315                     	;# 
  3658  0316                     	;# 
  3659  0317                     	;# 
  3660  0318                     	;# 
  3661  038C                     	;# 
  3662  038E                     	;# 
  3663  0391                     	;# 
  3664  0392                     	;# 
  3665  0393                     	;# 
  3666  0397                     	;# 
  3667  0398                     	;# 
  3668  0399                     	;# 
  3669  039A                     	;# 
  3670  039C                     	;# 
  3671  039D                     	;# 
  3672  039E                     	;# 
  3673  039F                     	;# 
  3674  0411                     	;# 
  3675  0411                     	;# 
  3676  0412                     	;# 
  3677  0413                     	;# 
  3678  0414                     	;# 
  3679  0415                     	;# 
  3680  0416                     	;# 
  3681  0417                     	;# 
  3682  0418                     	;# 
  3683  0418                     	;# 
  3684  0419                     	;# 
  3685  041A                     	;# 
  3686  041B                     	;# 
  3687  041C                     	;# 
  3688  041D                     	;# 
  3689  041E                     	;# 
  3690  041F                     	;# 
  3691  0498                     	;# 
  3692  0498                     	;# 
  3693  0499                     	;# 
  3694  049A                     	;# 
  3695  049B                     	;# 
  3696  049B                     	;# 
  3697  049C                     	;# 
  3698  049D                     	;# 
  3699  049E                     	;# 
  3700  049F                     	;# 
  3701  0617                     	;# 
  3702  0618                     	;# 
  3703  0619                     	;# 
  3704  0619                     	;# 
  3705  061A                     	;# 
  3706  061B                     	;# 
  3707  061C                     	;# 
  3708  061C                     	;# 
  3709  061F                     	;# 
  3710  0691                     	;# 
  3711  0692                     	;# 
  3712  0693                     	;# 
  3713  0694                     	;# 
  3714  0695                     	;# 
  3715  0696                     	;# 
  3716  0697                     	;# 
  3717  0698                     	;# 
  3718  0699                     	;# 
  3719  0711                     	;# 
  3720  0712                     	;# 
  3721  0713                     	;# 
  3722  0714                     	;# 
  3723  0715                     	;# 
  3724  0716                     	;# 
  3725  0717                     	;# 
  3726  0718                     	;# 
  3727  0719                     	;# 
  3728  0891                     	;# 
  3729  0891                     	;# 
  3730  0891                     	;# 
  3731  0891                     	;# 
  3732  0891                     	;# 
  3733  0891                     	;# 
  3734  0892                     	;# 
  3735  0892                     	;# 
  3736  0892                     	;# 
  3737  0893                     	;# 
  3738  0893                     	;# 
  3739  0893                     	;# 
  3740  0893                     	;# 
  3741  0893                     	;# 
  3742  0893                     	;# 
  3743  0894                     	;# 
  3744  0894                     	;# 
  3745  0894                     	;# 
  3746  0895                     	;# 
  3747  0895                     	;# 
  3748  0895                     	;# 
  3749  0896                     	;# 
  3750  0896                     	;# 
  3751  0896                     	;# 
  3752  089B                     	;# 
  3753  0911                     	;# 
  3754  0912                     	;# 
  3755  0913                     	;# 
  3756  0914                     	;# 
  3757  0915                     	;# 
  3758  0916                     	;# 
  3759  0918                     	;# 
  3760  0919                     	;# 
  3761  091A                     	;# 
  3762  091B                     	;# 
  3763  091C                     	;# 
  3764  091D                     	;# 
  3765  091E                     	;# 
  3766  091F                     	;# 
  3767  0E0F                     	;# 
  3768  0E10                     	;# 
  3769  0E11                     	;# 
  3770  0E12                     	;# 
  3771  0E13                     	;# 
  3772  0E14                     	;# 
  3773  0E15                     	;# 
  3774  0E16                     	;# 
  3775  0E17                     	;# 
  3776  0E18                     	;# 
  3777  0E19                     	;# 
  3778  0E1A                     	;# 
  3779  0E1B                     	;# 
  3780  0E1C                     	;# 
  3781  0E1D                     	;# 
  3782  0E1E                     	;# 
  3783  0E1F                     	;# 
  3784  0E20                     	;# 
  3785  0E21                     	;# 
  3786  0E22                     	;# 
  3787  0E24                     	;# 
  3788  0E25                     	;# 
  3789  0E28                     	;# 
  3790  0E29                     	;# 
  3791  0E2A                     	;# 
  3792  0E2B                     	;# 
  3793  0E2C                     	;# 
  3794  0E2D                     	;# 
  3795  0E2E                     	;# 
  3796  0E2F                     	;# 
  3797  0E90                     	;# 
  3798  0E91                     	;# 
  3799  0E92                     	;# 
  3800  0E94                     	;# 
  3801  0E95                     	;# 
  3802  0EA0                     	;# 
  3803  0EA1                     	;# 
  3804  0EA2                     	;# 
  3805  0EA3                     	;# 
  3806  0EA4                     	;# 
  3807  0EA5                     	;# 
  3808  0F0F                     	;# 
  3809  0F10                     	;# 
  3810  0F11                     	;# 
  3811  0F12                     	;# 
  3812  0F13                     	;# 
  3813  0F14                     	;# 
  3814  0F15                     	;# 
  3815  0F16                     	;# 
  3816  0F17                     	;# 
  3817  0F18                     	;# 
  3818  0F19                     	;# 
  3819  0F1A                     	;# 
  3820  0F1B                     	;# 
  3821  0F1C                     	;# 
  3822  0F1D                     	;# 
  3823  0F1E                     	;# 
  3824  0F1F                     	;# 
  3825  0F20                     	;# 
  3826  0F21                     	;# 
  3827  0F22                     	;# 
  3828  0F23                     	;# 
  3829  0F24                     	;# 
  3830  0F25                     	;# 
  3831  0F26                     	;# 
  3832  0F27                     	;# 
  3833  0F28                     	;# 
  3834  0F29                     	;# 
  3835  0F2A                     	;# 
  3836  0F2B                     	;# 
  3837  0F2C                     	;# 
  3838  0F2D                     	;# 
  3839  0F2E                     	;# 
  3840  0F2F                     	;# 
  3841  0F30                     	;# 
  3842  0F31                     	;# 
  3843  0F32                     	;# 
  3844  0F33                     	;# 
  3845  0F34                     	;# 
  3846  0F35                     	;# 
  3847  0F36                     	;# 
  3848  0F37                     	;# 
  3849  0FE4                     	;# 
  3850  0FE5                     	;# 
  3851  0FE6                     	;# 
  3852  0FE7                     	;# 
  3853  0FE8                     	;# 
  3854  0FE9                     	;# 
  3855  0FEA                     	;# 
  3856  0FEB                     	;# 
  3857  0FED                     	;# 
  3858  0FEE                     	;# 
  3859  0FEF                     	;# 
  3860                           
  3861                           	psect	stringtext1
  3862  1000                     __pstringtext1:
  3863  1000                     _i2c1_fsmStateTable:
  3864  1000  34AA               	retlw	low _I2C1_DO_IDLE
  3865  1001  3416               	retlw	high _I2C1_DO_IDLE
  3866  1002  342E               	retlw	low _I2C1_DO_SEND_ADR_READ
  3867  1003  3417               	retlw	high _I2C1_DO_SEND_ADR_READ
  3868  1004  340B               	retlw	low _I2C1_DO_SEND_ADR_WRITE
  3869  1005  3417               	retlw	high _I2C1_DO_SEND_ADR_WRITE
  3870  1006  3442               	retlw	low _I2C1_DO_TX
  3871  1007  340D               	retlw	high _I2C1_DO_TX
  3872  1008  342C               	retlw	low _I2C1_DO_RX
  3873  1009  340B               	retlw	high _I2C1_DO_RX
  3874  100A  34F4               	retlw	low _I2C1_DO_RCEN
  3875  100B  3416               	retlw	high _I2C1_DO_RCEN
  3876  100C  3467               	retlw	low _I2C1_DO_TX_EMPTY
  3877  100D  3409               	retlw	high _I2C1_DO_TX_EMPTY
  3878  100E  34AF               	retlw	low _I2C1_DO_SEND_RESTART_READ
  3879  100F  3416               	retlw	high _I2C1_DO_SEND_RESTART_READ
  3880  1010  34B4               	retlw	low _I2C1_DO_SEND_RESTART_WRITE
  3881  1011  3416               	retlw	high _I2C1_DO_SEND_RESTART_WRITE
  3882  1012  34B9               	retlw	low _I2C1_DO_SEND_RESTART
  3883  1013  3416               	retlw	high _I2C1_DO_SEND_RESTART
  3884  1014  34BE               	retlw	low _I2C1_DO_SEND_STOP
  3885  1015  3416               	retlw	high _I2C1_DO_SEND_STOP
  3886  1016  34C3               	retlw	low _I2C1_DO_RX_ACK
  3887  1017  3416               	retlw	high _I2C1_DO_RX_ACK
  3888  1018  34C8               	retlw	low _I2C1_DO_RX_NACK_STOP
  3889  1019  3416               	retlw	high _I2C1_DO_RX_NACK_STOP
  3890  101A  34CD               	retlw	low _I2C1_DO_RX_NACK_RESTART
  3891  101B  3416               	retlw	high _I2C1_DO_RX_NACK_RESTART
  3892  101C  34D2               	retlw	low _I2C1_DO_RESET
  3893  101D  3416               	retlw	high _I2C1_DO_RESET
  3894  101E  34E0               	retlw	low _I2C1_DO_ADDRESS_NACK
  3895  101F  3408               	retlw	high _I2C1_DO_ADDRESS_NACK
  3896  1020                     __end_of_i2c1_fsmStateTable:
  3897                           
  3898                           	psect	stringtext2
  3899  1897                     __pstringtext2:
  3900  1897                     _TimingGuard@vl53l1x$F2588:
  3901  1897  34B0               	retlw	176
  3902  1898  3411               	retlw	17
  3903  1899  3400               	retlw	0
  3904  189A  3400               	retlw	0
  3905  189B                     __end_of_TimingGuard@vl53l1x$F2588:
  3906                           
  3907                           	psect	stringtext3
  3908  189B                     __pstringtext3:
  3909  189B                     _TimingGuard@vl53l1x$F2463:
  3910  189B  34B0               	retlw	176
  3911  189C  3411               	retlw	17
  3912  189D  3400               	retlw	0
  3913  189E  3400               	retlw	0
  3914  189F                     __end_of_TimingGuard@vl53l1x$F2463:
  3915                           
  3916                           	psect	stringtext4
  3917  189F                     __pstringtext4:
  3918  189F                     _TimingGuard:
  3919  189F  34B0               	retlw	176
  3920  18A0  3411               	retlw	17
  3921  18A1  3400               	retlw	0
  3922  18A2  3400               	retlw	0
  3923  18A3                     __end_of_TimingGuard:
  3924                           
  3925                           	psect	stringtext5
  3926  18A3                     __pstringtext5:
  3927  18A3                     _TargetRate@vl53l1x$F2589:
  3928  18A3  3400               	retlw	0
  3929  18A4  340A               	retlw	10
  3930  18A5                     __end_of_TargetRate@vl53l1x$F2589:
  3931                           
  3932                           	psect	stringtext6
  3933  18A5                     __pstringtext6:
  3934  18A5                     _TargetRate:
  3935  18A5  3400               	retlw	0
  3936  18A6  340A               	retlw	10
  3937  18A7                     __end_of_TargetRate:
  3938                           
  3939                           	psect	stringtext7
  3940  18A7                     __pstringtext7:
  3941  18A7                     _TargetRate@vl53l1x$F2464:
  3942  18A7  3400               	retlw	0
  3943  18A8  340A               	retlw	10
  3944  18A9                     __end_of_TargetRate@vl53l1x$F2464:
  3945                           
  3946                           	psect	nvBANK1
  3947  00EE                     __pnvBANK1:
  3948  00EE                     _address:
  3949  00EE                     	ds	1
  3950                           
  3951                           	psect	nvBANK2
  3952  0126                     __pnvBANK2:
  3953  0126                     _iid:
  3954  0126                     	ds	2
  3955  0128                     _IOCCF4_InterruptHandler:
  3956  0128                     	ds	2
  3957  000B                     _INTCONbits	set	11
  3958  001F                     _T2CONbits	set	31
  3959  001F                     _T2CON	set	31
  3960  001D                     _TMR2	set	29
  3961  001E                     _PR2	set	30
  3962  0010                     _PIR0bits	set	16
  3963  0011                     _PIR1bits	set	17
  3964  0091                     _PIE1bits	set	145
  3965  0090                     _PIE0bits	set	144
  3966  008E                     _TRISC	set	142
  3967  008C                     _TRISA	set	140
  3968  0097                     _WDTCON	set	151
  3969  010E                     _LATCbits	set	270
  3970  010E                     _LATC	set	270
  3971  010C                     _LATA	set	268
  3972  018C                     _ANSELA	set	396
  3973  018E                     _ANSELC	set	398
  3974  0214                     _SSP1STATbits	set	532
  3975  0216                     _SSP1CON2bits	set	534
  3976  0211                     _SSP1BUF	set	529
  3977  0215                     _SSP1CON1bits	set	533
  3978  0212                     _SSP1ADD	set	530
  3979  0216                     _SSP1CON2	set	534
  3980  0215                     _SSP1CON1	set	533
  3981  0214                     _SSP1STAT	set	532
  3982  020E                     _WPUC	set	526
  3983  020C                     _WPUA	set	524
  3984  028E                     _ODCONC	set	654
  3985  028C                     _ODCONA	set	652
  3986  030E                     _SLRCONC	set	782
  3987  030C                     _SLRCONA	set	780
  3988  0397                     _IOCCPbits	set	919
  3989  0398                     _IOCCNbits	set	920
  3990  0399                     _IOCCFbits	set	921
  3991  038E                     _INLVLC	set	910
  3992  038C                     _INLVLA	set	908
  3993  061A                     _PWM6DCL	set	1562
  3994  061B                     _PWM6DCH	set	1563
  3995  061C                     _PWM6CON	set	1564
  3996  061F                     _PWMTMRSbits	set	1567
  3997  0617                     _PWM5DCL	set	1559
  3998  0618                     _PWM5DCH	set	1560
  3999  0619                     _PWM5CON	set	1561
  4000  0916                     _PMD5	set	2326
  4001  0915                     _PMD4	set	2325
  4002  0914                     _PMD3	set	2324
  4003  0913                     _PMD2	set	2323
  4004  0912                     _PMD1	set	2322
  4005  0911                     _PMD0	set	2321
  4006  091E                     _OSCTUNE	set	2334
  4007  091F                     _OSCFRQ	set	2335
  4008  091D                     _OSCEN	set	2333
  4009  091B                     _OSCCON3	set	2331
  4010  0919                     _OSCCON1	set	2329
  4011  0E21                     _SSP1DATPPS	set	3617
  4012  0E20                     _SSP1CLKPPS	set	3616
  4013  0EA5                     _RC5PPS	set	3749
  4014  0EA1                     _RC1PPS	set	3745
  4015  0E94                     _RA4PPS	set	3732
  4016  0EA0                     _RC0PPS	set	3744
  4017                           
  4018                           	psect	stringtext8
  4019  1020                     __pstringtext8:
  4020  1020                     STR_7:
  4021  1020  3472               	retlw	114	;'r'
  4022  1021  3461               	retlw	97	;'a'
  4023  1022  346E               	retlw	110	;'n'
  4024  1023  3467               	retlw	103	;'g'
  4025  1024  3465               	retlw	101	;'e'
  4026  1025  3420               	retlw	32	;' '
  4027  1026  3476               	retlw	118	;'v'
  4028  1027  3461               	retlw	97	;'a'
  4029  1028  346C               	retlw	108	;'l'
  4030  1029  3469               	retlw	105	;'i'
  4031  102A  3464               	retlw	100	;'d'
  4032  102B  342C               	retlw	44	;','
  4033  102C  3420               	retlw	32	;' '
  4034  102D  346E               	retlw	110	;'n'
  4035  102E  346F               	retlw	111	;'o'
  4036  102F  3420               	retlw	32	;' '
  4037  1030  3477               	retlw	119	;'w'
  4038  1031  3472               	retlw	114	;'r'
  4039  1032  3461               	retlw	97	;'a'
  4040  1033  3470               	retlw	112	;'p'
  4041  1034  3420               	retlw	32	;' '
  4042  1035  3463               	retlw	99	;'c'
  4043  1036  3468               	retlw	104	;'h'
  4044  1037  3465               	retlw	101	;'e'
  4045  1038  3463               	retlw	99	;'c'
  4046  1039  346B               	retlw	107	;'k'
  4047  103A  3420               	retlw	32	;' '
  4048  103B  3466               	retlw	102	;'f'
  4049  103C  3461               	retlw	97	;'a'
  4050  103D  3469               	retlw	105	;'i'
  4051  103E  346C               	retlw	108	;'l'
  4052  103F  3400               	retlw	0
  4053                           
  4054                           	psect	stringtext9
  4055  1040                     __pstringtext9:
  4056  1040                     STR_4:
  4057  1040  3472               	retlw	114	;'r'
  4058  1041  3461               	retlw	97	;'a'
  4059  1042  346E               	retlw	110	;'n'
  4060  1043  3467               	retlw	103	;'g'
  4061  1044  3465               	retlw	101	;'e'
  4062  1045  3420               	retlw	32	;' '
  4063  1046  3476               	retlw	118	;'v'
  4064  1047  3461               	retlw	97	;'a'
  4065  1048  346C               	retlw	108	;'l'
  4066  1049  3469               	retlw	105	;'i'
  4067  104A  3464               	retlw	100	;'d'
  4068  104B  342C               	retlw	44	;','
  4069  104C  3420               	retlw	32	;' '
  4070  104D  346D               	retlw	109	;'m'
  4071  104E  3469               	retlw	105	;'i'
  4072  104F  346E               	retlw	110	;'n'
  4073  1050  3420               	retlw	32	;' '
  4074  1051  3472               	retlw	114	;'r'
  4075  1052  3461               	retlw	97	;'a'
  4076  1053  346E               	retlw	110	;'n'
  4077  1054  3467               	retlw	103	;'g'
  4078  1055  3465               	retlw	101	;'e'
  4079  1056  3420               	retlw	32	;' '
  4080  1057  3463               	retlw	99	;'c'
  4081  1058  346C               	retlw	108	;'l'
  4082  1059  3469               	retlw	105	;'i'
  4083  105A  3470               	retlw	112	;'p'
  4084  105B  3470               	retlw	112	;'p'
  4085  105C  3465               	retlw	101	;'e'
  4086  105D  3464               	retlw	100	;'d'
  4087  105E  3400               	retlw	0
  4088                           
  4089                           	psect	stringtext10
  4090  1800                     __pstringtext10:
  4091  1800                     STR_10:
  4092  1800  3473               	retlw	115	;'s'
  4093  1801  3479               	retlw	121	;'y'
  4094  1802  346E               	retlw	110	;'n'
  4095  1803  3463               	retlw	99	;'c'
  4096  1804  3468               	retlw	104	;'h'
  4097  1805  3472               	retlw	114	;'r'
  4098  1806  346F               	retlw	111	;'o'
  4099  1807  346E               	retlw	110	;'n'
  4100  1808  3469               	retlw	105	;'i'
  4101  1809  347A               	retlw	122	;'z'
  4102  180A  3461               	retlw	97	;'a'
  4103  180B  3474               	retlw	116	;'t'
  4104  180C  3469               	retlw	105	;'i'
  4105  180D  346F               	retlw	111	;'o'
  4106  180E  346E               	retlw	110	;'n'
  4107  180F  3420               	retlw	32	;' '
  4108  1810  3469               	retlw	105	;'i'
  4109  1811  346E               	retlw	110	;'n'
  4110  1812  3474               	retlw	116	;'t'
  4111  1813  3400               	retlw	0
  4112                           
  4113                           	psect	stringtext11
  4114  1814                     __pstringtext11:
  4115  1814                     STR_5:
  4116  1814  346F               	retlw	111	;'o'
  4117  1815  3475               	retlw	117	;'u'
  4118  1816  3474               	retlw	116	;'t'
  4119  1817  3420               	retlw	32	;' '
  4120  1818  346F               	retlw	111	;'o'
  4121  1819  3466               	retlw	102	;'f'
  4122  181A  3420               	retlw	32	;' '
  4123  181B  3462               	retlw	98	;'b'
  4124  181C  346F               	retlw	111	;'o'
  4125  181D  3475               	retlw	117	;'u'
  4126  181E  346E               	retlw	110	;'n'
  4127  181F  3464               	retlw	100	;'d'
  4128  1820  3473               	retlw	115	;'s'
  4129  1821  3420               	retlw	32	;' '
  4130  1822  3466               	retlw	102	;'f'
  4131  1823  3461               	retlw	97	;'a'
  4132  1824  3469               	retlw	105	;'i'
  4133  1825  346C               	retlw	108	;'l'
  4134  1826  3400               	retlw	0
  4135                           
  4136                           	psect	stringtext12
  4137  1827                     __pstringtext12:
  4138  1827                     STR_9:
  4139  1827  3478               	retlw	120	;'x'
  4140  1828  3474               	retlw	116	;'t'
  4141  1829  3461               	retlw	97	;'a'
  4142  182A  346C               	retlw	108	;'l'
  4143  182B  346B               	retlw	107	;'k'
  4144  182C  3420               	retlw	32	;' '
  4145  182D  3473               	retlw	115	;'s'
  4146  182E  3469               	retlw	105	;'i'
  4147  182F  3467               	retlw	103	;'g'
  4148  1830  346E               	retlw	110	;'n'
  4149  1831  3461               	retlw	97	;'a'
  4150  1832  346C               	retlw	108	;'l'
  4151  1833  3420               	retlw	32	;' '
  4152  1834  3466               	retlw	102	;'f'
  4153  1835  3461               	retlw	97	;'a'
  4154  1836  3469               	retlw	105	;'i'
  4155  1837  346C               	retlw	108	;'l'
  4156  1838  3400               	retlw	0
  4157                           
  4158                           	psect	stringtext13
  4159  1839                     __pstringtext13:
  4160  1839                     STR_8:
  4161  1839  3477               	retlw	119	;'w'
  4162  183A  3472               	retlw	114	;'r'
  4163  183B  3461               	retlw	97	;'a'
  4164  183C  3470               	retlw	112	;'p'
  4165  183D  3420               	retlw	32	;' '
  4166  183E  3474               	retlw	116	;'t'
  4167  183F  3461               	retlw	97	;'a'
  4168  1840  3472               	retlw	114	;'r'
  4169  1841  3467               	retlw	103	;'g'
  4170  1842  3465               	retlw	101	;'e'
  4171  1843  3474               	retlw	116	;'t'
  4172  1844  3420               	retlw	32	;' '
  4173  1845  3466               	retlw	102	;'f'
  4174  1846  3461               	retlw	97	;'a'
  4175  1847  3469               	retlw	105	;'i'
  4176  1848  346C               	retlw	108	;'l'
  4177  1849  3400               	retlw	0
  4178                           
  4179                           	psect	stringtext14
  4180  184A                     __pstringtext14:
  4181  184A                     STR_11:
  4182  184A  346D               	retlw	109	;'m'
  4183  184B  3469               	retlw	105	;'i'
  4184  184C  346E               	retlw	110	;'n'
  4185  184D  3420               	retlw	32	;' '
  4186  184E  3472               	retlw	114	;'r'
  4187  184F  3461               	retlw	97	;'a'
  4188  1850  346E               	retlw	110	;'n'
  4189  1851  3467               	retlw	103	;'g'
  4190  1852  3465               	retlw	101	;'e'
  4191  1853  3420               	retlw	32	;' '
  4192  1854  3466               	retlw	102	;'f'
  4193  1855  3461               	retlw	97	;'a'
  4194  1856  3469               	retlw	105	;'i'
  4195  1857  346C               	retlw	108	;'l'
  4196  1858  3400               	retlw	0
  4197                           
  4198                           	psect	stringtext15
  4199  1859                     __pstringtext15:
  4200  1859                     STR_13:
  4201  1859  3475               	retlw	117	;'u'
  4202  185A  346E               	retlw	110	;'n'
  4203  185B  346B               	retlw	107	;'k'
  4204  185C  346E               	retlw	110	;'n'
  4205  185D  346F               	retlw	111	;'o'
  4206  185E  3477               	retlw	119	;'w'
  4207  185F  346E               	retlw	110	;'n'
  4208  1860  3420               	retlw	32	;' '
  4209  1861  3473               	retlw	115	;'s'
  4210  1862  3474               	retlw	116	;'t'
  4211  1863  3461               	retlw	97	;'a'
  4212  1864  3474               	retlw	116	;'t'
  4213  1865  3475               	retlw	117	;'u'
  4214  1866  3473               	retlw	115	;'s'
  4215  1867  3400               	retlw	0
  4216                           
  4217                           	psect	stringtext16
  4218  1868                     __pstringtext16:
  4219  1868                     STR_6:
  4220  1868  3468               	retlw	104	;'h'
  4221  1869  3461               	retlw	97	;'a'
  4222  186A  3472               	retlw	114	;'r'
  4223  186B  3464               	retlw	100	;'d'
  4224  186C  3477               	retlw	119	;'w'
  4225  186D  3461               	retlw	97	;'a'
  4226  186E  3472               	retlw	114	;'r'
  4227  186F  3465               	retlw	101	;'e'
  4228  1870  3420               	retlw	32	;' '
  4229  1871  3466               	retlw	102	;'f'
  4230  1872  3461               	retlw	97	;'a'
  4231  1873  3469               	retlw	105	;'i'
  4232  1874  346C               	retlw	108	;'l'
  4233  1875  3400               	retlw	0
  4234                           
  4235                           	psect	stringtext17
  4236  1876                     __pstringtext17:
  4237  1876                     STR_1:
  4238  1876  3472               	retlw	114	;'r'
  4239  1877  3461               	retlw	97	;'a'
  4240  1878  346E               	retlw	110	;'n'
  4241  1879  3467               	retlw	103	;'g'
  4242  187A  3465               	retlw	101	;'e'
  4243  187B  3420               	retlw	32	;' '
  4244  187C  3476               	retlw	118	;'v'
  4245  187D  3461               	retlw	97	;'a'
  4246  187E  346C               	retlw	108	;'l'
  4247  187F  3469               	retlw	105	;'i'
  4248  1880  3464               	retlw	100	;'d'
  4249  1881  3400               	retlw	0
  4250                           
  4251                           	psect	stringtext18
  4252  1882                     __pstringtext18:
  4253  1882                     STR_2:
  4254  1882  3473               	retlw	115	;'s'
  4255  1883  3469               	retlw	105	;'i'
  4256  1884  3467               	retlw	103	;'g'
  4257  1885  346D               	retlw	109	;'m'
  4258  1886  3461               	retlw	97	;'a'
  4259  1887  3420               	retlw	32	;' '
  4260  1888  3466               	retlw	102	;'f'
  4261  1889  3461               	retlw	97	;'a'
  4262  188A  3469               	retlw	105	;'i'
  4263  188B  346C               	retlw	108	;'l'
  4264  188C  3400               	retlw	0
  4265                           
  4266                           	psect	stringtext19
  4267  188D                     __pstringtext19:
  4268  188D                     STR_12:
  4269  188D  346E               	retlw	110	;'n'
  4270  188E  346F               	retlw	111	;'o'
  4271  188F  3420               	retlw	32	;' '
  4272  1890  3475               	retlw	117	;'u'
  4273  1891  3470               	retlw	112	;'p'
  4274  1892  3464               	retlw	100	;'d'
  4275  1893  3461               	retlw	97	;'a'
  4276  1894  3474               	retlw	116	;'t'
  4277  1895  3465               	retlw	101	;'e'
  4278  1896  3400               	retlw	0
  4279                           
  4280                           	psect	stringtext20
  4281  0000                     __pstringtext20:
  4282  182D                     
  4283                           	psect	cinit
  4284  0017                     start_initialization:	
  4285                           ; #config settings
  4286                           
  4287  0017                     __initialization:
  4288                           
  4289                           ; Clear objects allocated to BANK1
  4290  0017  30A0               	movlw	low __pbssBANK1
  4291  0018  0084               	movwf	4
  4292  0019  3000               	movlw	high __pbssBANK1
  4293  001A  0085               	movwf	5
  4294  001B  3047               	movlw	71
  4295  001C  3196  26EE  3180   	fcall	clear_ram0
  4296                           
  4297                           ; Clear objects allocated to BANK2
  4298  001F  0022               	movlb	2	; select bank2
  4299  0020  01A0               	clrf	__pbssBANK2& (0+127)
  4300  0021  01A1               	clrf	(__pbssBANK2+1)& (0+127)
  4301  0022  01A2               	clrf	(__pbssBANK2+2)& (0+127)
  4302  0023  01A3               	clrf	(__pbssBANK2+3)& (0+127)
  4303  0024  01A4               	clrf	(__pbssBANK2+4)& (0+127)
  4304  0025  01A5               	clrf	(__pbssBANK2+5)& (0+127)
  4305  0026                     end_of_initialization:	
  4306                           ;End of C runtime variable initialization code
  4307                           
  4308  0026                     __end_of__initialization:
  4309  0026  107E               	bcf	int$flags,0	;clear compiler interrupt flag (level 1)
  4310  0027  0020               	movlb	0
  4311  0028  3184  2C9E         	ljmp	_main	;jump to C main() function
  4312                           
  4313                           	psect	bssBANK1
  4314  00A0                     __pbssBANK1:
  4315  00A0                     _I2C1_Status:
  4316  00A0                     	ds	30
  4317  00BE                     _ranging_data:
  4318  00BE                     	ds	11
  4319  00C9                     _distance:
  4320  00C9                     	ds	2
  4321  00CB                     _io_timeout:
  4322  00CB                     	ds	2
  4323  00CD                     _last_status:
  4324  00CD                     	ds	1
  4325  00CE                     _distance_mode:
  4326  00CE                     	ds	1
  4327  00CF                     _saved_vhv_timeout:
  4328  00CF                     	ds	1
  4329  00D0                     _saved_vhv_init:
  4330  00D0                     	ds	1
  4331  00D1                     _calibrated:
  4332  00D1                     	ds	1
  4333  00D2                     _did_timeout:
  4334  00D2                     	ds	1
  4335  00D3                     _motordrive:
  4336  00D3                     	ds	1
  4337  00D4                     _results:
  4338  00D4                     	ds	17
  4339  00E5                     _fast_osc_frequency:
  4340  00E5                     	ds	2
  4341                           
  4342                           	psect	bssBANK2
  4343  0120                     __pbssBANK2:
  4344  0120                     _speed:
  4345  0120                     	ds	2
  4346  0122                     _osc_calibrate_val:
  4347  0122                     	ds	2
  4348  0124                     _timeout_start_ms:
  4349  0124                     	ds	2
  4350                           
  4351                           	psect	clrtext
  4352  16EE                     clear_ram0:	
  4353                           ;	Called with FSR0 containing the base address, and
  4354                           ;	WREG with the size to clear
  4355                           
  4356  16EE  0064               	clrwdt	;clear the watchdog before getting into this loop
  4357  16EF                     clrloop0:
  4358  16EF  0180               	clrf	0	;clear RAM location pointed to by FSR
  4359  16F0  3101               	addfsr 0,1
  4360  16F1  0B89               	decfsz	9,f	;Have we reached the end of clearing yet?
  4361  16F2  2EEF               	goto	clrloop0	;have we reached the end yet?
  4362  16F3  3400               	retlw	0	;all done for this memory range, return
  4363                           
  4364                           	psect	cstackBANK1
  4365  00E7                     __pcstackBANK1:
  4366  00E7                     VL53L1X_setDistanceMode@budget_us:
  4367                           
  4368                           ; 4 bytes @ 0x0
  4369  00E7                     	ds	4
  4370  00EB                     VL53L1X_setDistanceMode@mode:
  4371                           
  4372                           ; 1 bytes @ 0x4
  4373  00EB                     	ds	1
  4374  00EC                     ??_main:
  4375                           
  4376                           ; 1 bytes @ 0x5
  4377  00EC                     	ds	2
  4378                           
  4379                           	psect	cstackCOMMON
  4380  0070                     __pcstackCOMMON:
  4381  0070                     ?_I2C1_Open:
  4382  0070                     ??_I2C1_Open:	
  4383                           ; 1 bytes @ 0x0
  4384                           
  4385  0070                     ?_I2C1_SetBuffer:	
  4386                           ; 1 bytes @ 0x0
  4387                           
  4388  0070                     ?_I2C1_MasterWrite:	
  4389                           ; 1 bytes @ 0x0
  4390                           
  4391  0070                     ?_I2C1_Close:	
  4392                           ; 1 bytes @ 0x0
  4393                           
  4394  0070                     ??_I2C1_Close:	
  4395                           ; 1 bytes @ 0x0
  4396                           
  4397  0070                     ?_PMD_Initialize:	
  4398                           ; 1 bytes @ 0x0
  4399                           
  4400  0070                     ??_PMD_Initialize:	
  4401                           ; 1 bytes @ 0x0
  4402                           
  4403  0070                     ?_I2C1_Initialize:	
  4404                           ; 1 bytes @ 0x0
  4405                           
  4406  0070                     ??_I2C1_Initialize:	
  4407                           ; 1 bytes @ 0x0
  4408                           
  4409  0070                     ?_PIN_MANAGER_Initialize:	
  4410                           ; 1 bytes @ 0x0
  4411                           
  4412  0070                     ?_OSCILLATOR_Initialize:	
  4413                           ; 1 bytes @ 0x0
  4414                           
  4415  0070                     ??_OSCILLATOR_Initialize:	
  4416                           ; 1 bytes @ 0x0
  4417                           
  4418  0070                     ?_WDT_Initialize:	
  4419                           ; 1 bytes @ 0x0
  4420                           
  4421  0070                     ??_WDT_Initialize:	
  4422                           ; 1 bytes @ 0x0
  4423                           
  4424  0070                     ?_PWM6_Initialize:	
  4425                           ; 1 bytes @ 0x0
  4426                           
  4427  0070                     ??_PWM6_Initialize:	
  4428                           ; 1 bytes @ 0x0
  4429                           
  4430  0070                     ?_TMR2_Initialize:	
  4431                           ; 1 bytes @ 0x0
  4432                           
  4433  0070                     ??_TMR2_Initialize:	
  4434                           ; 1 bytes @ 0x0
  4435                           
  4436  0070                     ?_PWM5_Initialize:	
  4437                           ; 1 bytes @ 0x0
  4438                           
  4439  0070                     ??_PWM5_Initialize:	
  4440                           ; 1 bytes @ 0x0
  4441                           
  4442  0070                     ?_IOCCF4_SetInterruptHandler:	
  4443                           ; 1 bytes @ 0x0
  4444                           
  4445  0070                     ?_IOCCF4_DefaultInterruptHandler:	
  4446                           ; 1 bytes @ 0x0
  4447                           
  4448  0070                     ??_IOCCF4_DefaultInterruptHandler:	
  4449                           ; 1 bytes @ 0x0
  4450                           
  4451  0070                     ?_IOCCF4_ISR:	
  4452                           ; 1 bytes @ 0x0
  4453                           
  4454  0070                     ??_IOCCF4_ISR:	
  4455                           ; 1 bytes @ 0x0
  4456                           
  4457  0070                     ?_I2C1_DO_IDLE:	
  4458                           ; 1 bytes @ 0x0
  4459                           
  4460  0070                     ??_I2C1_DO_IDLE:	
  4461                           ; 1 bytes @ 0x0
  4462                           
  4463  0070                     ?_I2C1_DO_SEND_ADR_READ:	
  4464                           ; 1 bytes @ 0x0
  4465                           
  4466  0070                     ??_I2C1_DO_SEND_ADR_READ:	
  4467                           ; 1 bytes @ 0x0
  4468                           
  4469  0070                     ?_I2C1_DO_SEND_ADR_WRITE:	
  4470                           ; 1 bytes @ 0x0
  4471                           
  4472  0070                     ?_I2C1_DO_TX:	
  4473                           ; 1 bytes @ 0x0
  4474                           
  4475  0070                     ?_I2C1_DO_RX:	
  4476                           ; 1 bytes @ 0x0
  4477                           
  4478  0070                     ?_I2C1_DO_RCEN:	
  4479                           ; 1 bytes @ 0x0
  4480                           
  4481  0070                     ??_I2C1_DO_RCEN:	
  4482                           ; 1 bytes @ 0x0
  4483                           
  4484  0070                     ?_I2C1_DO_TX_EMPTY:	
  4485                           ; 1 bytes @ 0x0
  4486                           
  4487  0070                     ?_I2C1_DO_SEND_RESTART_READ:	
  4488                           ; 1 bytes @ 0x0
  4489                           
  4490  0070                     ??_I2C1_DO_SEND_RESTART_READ:	
  4491                           ; 1 bytes @ 0x0
  4492                           
  4493  0070                     ?_I2C1_DO_SEND_RESTART_WRITE:	
  4494                           ; 1 bytes @ 0x0
  4495                           
  4496  0070                     ??_I2C1_DO_SEND_RESTART_WRITE:	
  4497                           ; 1 bytes @ 0x0
  4498                           
  4499  0070                     ?_I2C1_DO_SEND_RESTART:	
  4500                           ; 1 bytes @ 0x0
  4501                           
  4502  0070                     ??_I2C1_DO_SEND_RESTART:	
  4503                           ; 1 bytes @ 0x0
  4504                           
  4505  0070                     ?_I2C1_DO_SEND_STOP:	
  4506                           ; 1 bytes @ 0x0
  4507                           
  4508  0070                     ??_I2C1_DO_SEND_STOP:	
  4509                           ; 1 bytes @ 0x0
  4510                           
  4511  0070                     ?_I2C1_DO_RX_ACK:	
  4512                           ; 1 bytes @ 0x0
  4513                           
  4514  0070                     ??_I2C1_DO_RX_ACK:	
  4515                           ; 1 bytes @ 0x0
  4516                           
  4517  0070                     ?_I2C1_DO_RX_NACK_STOP:	
  4518                           ; 1 bytes @ 0x0
  4519                           
  4520  0070                     ??_I2C1_DO_RX_NACK_STOP:	
  4521                           ; 1 bytes @ 0x0
  4522                           
  4523  0070                     ?_I2C1_DO_RX_NACK_RESTART:	
  4524                           ; 1 bytes @ 0x0
  4525                           
  4526  0070                     ??_I2C1_DO_RX_NACK_RESTART:	
  4527                           ; 1 bytes @ 0x0
  4528                           
  4529  0070                     ?_I2C1_DO_RESET:	
  4530                           ; 1 bytes @ 0x0
  4531                           
  4532  0070                     ??_I2C1_DO_RESET:	
  4533                           ; 1 bytes @ 0x0
  4534                           
  4535  0070                     ?_I2C1_DO_ADDRESS_NACK:	
  4536                           ; 1 bytes @ 0x0
  4537                           
  4538  0070                     ?_I2C1_MasterClearIrq:	
  4539                           ; 1 bytes @ 0x0
  4540                           
  4541  0070                     ??_I2C1_MasterClearIrq:	
  4542                           ; 1 bytes @ 0x0
  4543                           
  4544  0070                     ?_I2C1_MasterOpen:	
  4545                           ; 1 bytes @ 0x0
  4546                           
  4547  0070                     ??_I2C1_MasterOpen:	
  4548                           ; 1 bytes @ 0x0
  4549                           
  4550  0070                     ?_I2C1_MasterDisableIrq:	
  4551                           ; 1 bytes @ 0x0
  4552                           
  4553  0070                     ??_I2C1_MasterDisableIrq:	
  4554                           ; 1 bytes @ 0x0
  4555                           
  4556  0070                     ?_I2C1_MasterClose:	
  4557                           ; 1 bytes @ 0x0
  4558                           
  4559  0070                     ??_I2C1_MasterClose:	
  4560                           ; 1 bytes @ 0x0
  4561                           
  4562  0070                     ?_I2C1_MasterStart:	
  4563                           ; 1 bytes @ 0x0
  4564                           
  4565  0070                     ??_I2C1_MasterStart:	
  4566                           ; 1 bytes @ 0x0
  4567                           
  4568  0070                     ?_I2C1_Poller:	
  4569                           ; 1 bytes @ 0x0
  4570                           
  4571  0070                     ?_I2C1_SetCallback:	
  4572                           ; 1 bytes @ 0x0
  4573                           
  4574  0070                     ?_I2C1_MasterWaitForEvent:	
  4575                           ; 1 bytes @ 0x0
  4576                           
  4577  0070                     ??_I2C1_MasterWaitForEvent:	
  4578                           ; 1 bytes @ 0x0
  4579                           
  4580  0070                     ?_I2C1_MasterFsm:	
  4581                           ; 1 bytes @ 0x0
  4582                           
  4583  0070                     ?_I2C1_MasterIsNack:	
  4584                           ; 1 bytes @ 0x0
  4585                           
  4586  0070                     ??_I2C1_MasterIsNack:	
  4587                           ; 1 bytes @ 0x0
  4588                           
  4589  0070                     ?_I2C1_MasterSendTxData:	
  4590                           ; 1 bytes @ 0x0
  4591                           
  4592  0070                     ??_I2C1_MasterSendTxData:	
  4593                           ; 1 bytes @ 0x0
  4594                           
  4595  0070                     ?_I2C1_MasterGetRxData:	
  4596                           ; 1 bytes @ 0x0
  4597                           
  4598  0070                     ??_I2C1_MasterGetRxData:	
  4599                           ; 1 bytes @ 0x0
  4600                           
  4601  0070                     ?_I2C1_MasterSendAck:	
  4602                           ; 1 bytes @ 0x0
  4603                           
  4604  0070                     ??_I2C1_MasterSendAck:	
  4605                           ; 1 bytes @ 0x0
  4606                           
  4607  0070                     ?_I2C1_MasterStartRx:	
  4608                           ; 1 bytes @ 0x0
  4609                           
  4610  0070                     ??_I2C1_MasterStartRx:	
  4611                           ; 1 bytes @ 0x0
  4612                           
  4613  0070                     ?_I2C1_MasterSetIrq:	
  4614                           ; 1 bytes @ 0x0
  4615                           
  4616  0070                     ??_I2C1_MasterSetIrq:	
  4617                           ; 1 bytes @ 0x0
  4618                           
  4619  0070                     ?_I2C1_MasterEnableRestart:	
  4620                           ; 1 bytes @ 0x0
  4621                           
  4622  0070                     ??_I2C1_MasterEnableRestart:	
  4623                           ; 1 bytes @ 0x0
  4624                           
  4625  0070                     ?_I2C1_MasterStop:	
  4626                           ; 1 bytes @ 0x0
  4627                           
  4628  0070                     ??_I2C1_MasterStop:	
  4629                           ; 1 bytes @ 0x0
  4630                           
  4631  0070                     ?_I2C1_MasterSendNack:	
  4632                           ; 1 bytes @ 0x0
  4633                           
  4634  0070                     ??_I2C1_MasterSendNack:	
  4635                           ; 1 bytes @ 0x0
  4636                           
  4637  0070                     ?_VL53L1X_init:	
  4638                           ; 1 bytes @ 0x0
  4639                           
  4640  0070                     ?_m_control_init:	
  4641                           ; 1 bytes @ 0x0
  4642                           
  4643  0070                     ?_VL53L1X_setDistanceMode:	
  4644                           ; 1 bytes @ 0x0
  4645                           
  4646  0070                     ?_VL53L1X_readResults:	
  4647                           ; 1 bytes @ 0x0
  4648                           
  4649  0070                     ?_VL53L1X_setupManualCalibration:	
  4650                           ; 1 bytes @ 0x0
  4651                           
  4652  0070                     ?_VL53L1X_getRangingData:	
  4653                           ; 1 bytes @ 0x0
  4654                           
  4655  0070                     ?_SYSTEM_Initialize:	
  4656                           ; 1 bytes @ 0x0
  4657                           
  4658  0070                     ?_PIN_MANAGER_IOC:	
  4659                           ; 1 bytes @ 0x0
  4660                           
  4661  0070                     ??_PIN_MANAGER_IOC:	
  4662                           ; 1 bytes @ 0x0
  4663                           
  4664  0070                     ?_I2C1_MasterOperation:	
  4665                           ; 1 bytes @ 0x0
  4666                           
  4667  0070                     ?_INTERRUPT_InterruptManager:	
  4668                           ; 1 bytes @ 0x0
  4669                           
  4670  0070                     ??_INTERRUPT_InterruptManager:	
  4671                           ; 1 bytes @ 0x0
  4672                           
  4673  0070                     ?_PWM5_LoadDutyValue:	
  4674                           ; 1 bytes @ 0x0
  4675                           
  4676  0070                     ?_PWM6_LoadDutyValue:	
  4677                           ; 1 bytes @ 0x0
  4678                           
  4679  0070                     ?_main:	
  4680                           ; 1 bytes @ 0x0
  4681                           
  4682  0070                     ??___omul:	
  4683                           ; 1 bytes @ 0x0
  4684                           
  4685  0070                     ?___lwdiv:	
  4686                           ; 1 bytes @ 0x0
  4687                           
  4688  0070                     ?___lmul:	
  4689                           ; 2 bytes @ 0x0
  4690                           
  4691  0070                     ?___lldiv:	
  4692                           ; 4 bytes @ 0x0
  4693                           
  4694  0070                     I2C1_MasterSendTxData@data:	
  4695                           ; 4 bytes @ 0x0
  4696                           
  4697  0070                     IOCCF4_SetInterruptHandler@InterruptHandler:	
  4698                           ; 1 bytes @ 0x0
  4699                           
  4700  0070                     I2C1_SetBuffer@buffer:	
  4701                           ; 2 bytes @ 0x0
  4702                           
  4703  0070                     I2C1_SetCallback@cb:	
  4704                           ; 2 bytes @ 0x0
  4705                           
  4706  0070                     PWM5_LoadDutyValue@dutyValue:	
  4707                           ; 2 bytes @ 0x0
  4708                           
  4709  0070                     PWM6_LoadDutyValue@dutyValue:	
  4710                           ; 2 bytes @ 0x0
  4711                           
  4712  0070                     ___lwdiv@divisor:	
  4713                           ; 2 bytes @ 0x0
  4714                           
  4715  0070                     ___lmul@multiplier:	
  4716                           ; 2 bytes @ 0x0
  4717                           
  4718  0070                     ___lldiv@divisor:	
  4719                           ; 4 bytes @ 0x0
  4720                           
  4721                           
  4722                           ; 4 bytes @ 0x0
  4723  0070                     	ds	1
  4724  0071                     ??_I2C1_DO_SEND_ADR_WRITE:
  4725  0071                     I2C1_Open@address:	
  4726                           ; 1 bytes @ 0x1
  4727                           
  4728  0071                     I2C1_Close@returnValue:	
  4729                           ; 1 bytes @ 0x1
  4730                           
  4731  0071                     ___omul@product:	
  4732                           ; 1 bytes @ 0x1
  4733                           
  4734                           
  4735                           ; 8 bytes @ 0x1
  4736  0071                     	ds	1
  4737  0072                     ??_PIN_MANAGER_Initialize:
  4738  0072                     ??_IOCCF4_SetInterruptHandler:	
  4739                           ; 1 bytes @ 0x2
  4740                           
  4741  0072                     ??_SYSTEM_Initialize:	
  4742                           ; 1 bytes @ 0x2
  4743                           
  4744  0072                     ??_PWM5_LoadDutyValue:	
  4745                           ; 1 bytes @ 0x2
  4746                           
  4747  0072                     ??_PWM6_LoadDutyValue:	
  4748                           ; 1 bytes @ 0x2
  4749                           
  4750  0072                     I2C1_Open@returnValue:	
  4751                           ; 1 bytes @ 0x2
  4752                           
  4753  0072                     I2C1_SetCallback@ptr:	
  4754                           ; 1 bytes @ 0x2
  4755                           
  4756  0072                     I2C1_SetBuffer@bufferSize:	
  4757                           ; 1 bytes @ 0x2
  4758                           
  4759  0072                     ___lwdiv@dividend:	
  4760                           ; 2 bytes @ 0x2
  4761                           
  4762                           
  4763                           ; 2 bytes @ 0x2
  4764  0072                     	ds	1
  4765  0073                     ??_I2C1_SetCallback:
  4766                           
  4767                           ; 1 bytes @ 0x3
  4768  0073                     	ds	1
  4769  0074                     ??_I2C1_SetBuffer:
  4770  0074                     ??_m_control_init:	
  4771                           ; 1 bytes @ 0x4
  4772                           
  4773  0074                     ?_m_go_forward:	
  4774                           ; 1 bytes @ 0x4
  4775                           
  4776  0074                     ??___lwdiv:	
  4777                           ; 1 bytes @ 0x4
  4778                           
  4779  0074                     I2C1_SetCallback@idx:	
  4780                           ; 1 bytes @ 0x4
  4781                           
  4782  0074                     m_go_forward@speed:	
  4783                           ; 1 bytes @ 0x4
  4784                           
  4785  0074                     ___lmul@multiplicand:	
  4786                           ; 2 bytes @ 0x4
  4787                           
  4788  0074                     ___lldiv@dividend:	
  4789                           ; 4 bytes @ 0x4
  4790                           
  4791                           
  4792                           ; 4 bytes @ 0x4
  4793  0074                     	ds	1
  4794  0075                     ?_I2C1_SetDataCompleteCallback:
  4795  0075                     ?_I2C1_SetAddressNackCallback:	
  4796                           ; 1 bytes @ 0x5
  4797                           
  4798  0075                     I2C1_SetDataCompleteCallback@cb:	
  4799                           ; 1 bytes @ 0x5
  4800                           
  4801  0075                     I2C1_SetAddressNackCallback@cb:	
  4802                           ; 2 bytes @ 0x5
  4803                           
  4804  0075                     ___lwdiv@quotient:	
  4805                           ; 2 bytes @ 0x5
  4806                           
  4807                           
  4808                           ; 2 bytes @ 0x5
  4809  0075                     	ds	1
  4810  0076                     ??_m_go_forward:
