Microchip MPLAB XC8 Compiler V2.36

Linker command line:

-W-3 --edf=C:\Program Files\Microchip\xc8\v2.36\pic\dat\en_msgs.txt -cn \
  -h+dist/default/production\toycar2022.X.production.sym \
  --cmf=dist/default/production\toycar2022.X.production.cmf -z -Q16F18325 \
  -oC:\Users\anis\AppData\Local\Temp\xcAsum0.4 --defsym=__MPLAB_BUILD=1 \
  -Mdist/default/production/toycar2022.X.production.map \
  --md=C:\Users\anis\AppData\Local\Temp\xcAsum0.dat -E1 -ver=XC8 Compiler \
  --acfsm=1493 -ACODE=00h-07FFhx4 -ASTRCODE=00h-01FFFh -ASTRING=00h-0FFhx32 \
  -ACONST=00h-0FFhx32 -AENTRY=00h-0FFhx32 -ACOMMON=070h-07Fh \
  -ABANK0=020h-06Fh -ABANK1=0A0h-0EFh -ABANK2=0120h-016Fh \
  -ABANK3=01A0h-01EFh -ABANK4=0220h-026Fh -ABANK5=02A0h-02EFh \
  -ABANK6=0320h-036Fh -ABANK7=03A0h-03EFh -ABANK8=0420h-046Fh \
  -ABANK9=04A0h-04EFh -ABANK10=0520h-056Fh -ABANK11=05A0h-05EFh \
  -ABANK12=0620h-064Fh -ABIGRAM=02000h-023EFh \
  -ARAM=020h-06Fh,0A0h-0EFh,0120h-016Fh,01A0h-01EFh,0220h-026Fh,02A0h-02EFh,0320h-036Fh,03A0h-03EFh,0420h-046Fh,04A0h-04EFh,0520h-056Fh,05A0h-05EFh,0620h-064Fh \
  -AABS1=020h-07Fh,0A0h-0EFh,0120h-016Fh,01A0h-01EFh,0220h-026Fh,02A0h-02EFh,0320h-036Fh,03A0h-03EFh,0420h-046Fh,04A0h-04EFh,0520h-056Fh,05A0h-05EFh,0620h-064Fh \
  -ASFR0=00h-01Fh -ASFR1=080h-09Fh -ASFR2=0100h-011Fh -ASFR3=0180h-019Fh \
  -ASFR4=0200h-021Fh -ASFR5=0280h-029Fh -ASFR6=0300h-031Fh \
  -ASFR7=0380h-039Fh -ASFR8=0400h-041Fh -ASFR9=0480h-049Fh \
  -ASFR10=0500h-051Fh -ASFR11=0580h-059Fh -ASFR12=0600h-061Fh \
  -ASFR13=0680h-06EFh -ASFR14=0700h-076Fh -ASFR15=0780h-07EFh \
  -ASFR16=0800h-086Fh -ASFR17=0880h-08EFh -ASFR18=0900h-096Fh \
  -ASFR19=0980h-09EFh -ASFR20=0A00h-0A6Fh -ASFR21=0A80h-0AEFh \
  -ASFR22=0B00h-0B6Fh -ASFR23=0B80h-0BEFh -ASFR24=0C00h-0C6Fh \
  -ASFR25=0C80h-0CEFh -ASFR26=0D00h-0D6Fh -ASFR27=0D80h-0DEFh \
  -ASFR28=0E00h-0E6Fh -ASFR29=0E80h-0EEFh -ASFR30=0F00h-0F6Fh \
  -ASFR31=0F80h-0FEFh -ACONFIG=08007h-0800Ah -DCONFIG=2 \
  -AIDLOC=08000h-08003h -DIDLOC=2 -AEEDATA=00h-0FFh/0F000h \
  -peeprom_data=EEDATA -DEEDATA=2 -DCODE=2 -DSTRCODE=2 -DSTRING=2 -DCONST=2 \
  -DENTRY=2 -preset_vec=00h,intentry=04h,init,end_init -ppowerup=CODE \
  -pcinit=CODE -pfunctab=ENTRY -k \
  C:\Users\anis\AppData\Local\Temp\xcAsum0.o \
  dist/default/production\toycar2022.X.production.o 

Object code version is 3.11

Machine type is 16F18325



                Name                               Link     Load   Length Selector   Space Scale
C:\Users\anis\AppData\Local\Temp\xcAsum0.o
                end_init                             15       15        2        8       0
                reset_vec                             0        0        2        0       0
                config                             8007     8007        4        0       4
                idloc                              8000     8000        4        0       5
dist/default/production\toycar2022.X.production.o
                cinit                                17       17       13        8       0
                intentry                              4        4       11        8       0
                config                             8007     8007        4        0       4
                idloc                              8000     8000        4        0       5
                text92                             1699     1699        4     2D32       0
                text91                             1791     1791        F     2F22       0
                text90                             1713     1713        9     2E26       0
                text88                             171C     171C        9     2E38       0
                text87                             1725     1725        9     2E4A       0
                text86                             16DC     16DC        6     2DB8       0
                text85                              A32      A32       3B     1464       0
                text84                             16FB     16FB        8     2DF6       0
                text83                             1737     1737        C     2E6E       0
                text82                             1743     1743        C     2E86       0
                text81                             1703     1703        8     2E06       0
                text80                             169D     169D        4     2D3A       0
                text79                              86D      86D       19     10DA       0
                text78                             167E     167E        3     2CFC       0
                text77                             1681     1681        3     2D02       0
                text76                             1684     1684        3     2D08       0
                text75                              8A1      8A1       1C     1142       0
                text74                             1687     1687        3     2D0E       0
                text73                             168A     168A        3     2D14       0
                text72                             168D     168D        3     2D1A       0
                text71                             17A0     17A0        F     2F40       0
                text70                              7D6      7D6       26        8       0
                text69                             174F     174F        D     2E9E       0
                text68                             17BE     17BE       16     2F7C       0
                text67                             17D4     17D4       16     2FA8       0
                text66                             17EA     17EA       16     2FD4       0
                text65                              815      815       16     102A       0
                text64                              82B      82B       16     1056       0
                text63                              886      886       1B     110C       0
                text62                              800      800        2        8       0
                text61                                2        2        2        0       0
                text60                             1690     1690        3     2D20       0
                text59                             16A1     16A1        4     2D42       0
                text58                             1693     1693        3     2D26       0
                text57                              7FC      7FC        4        8       0
                text56                             16A5     16A5        5     2D4A       0
                text55                             16E2     16E2        6     2DC4       0
                text54                             1696     1696        3     2D2C       0
                text53                              967      967       2F     12CE       0
                text52                             16AA     16AA        5     2D54       0
                text51                             172E     172E        9     2E5C       0
                text50                             170B     170B        8     2E16       0
                text49                              D42      D42       58     1A84       0
                text48                              B2C      B2C       47     1658       0
                text47                             16F4     16F4        7     2DE8       0
                text46                             16AF     16AF        5     2D5E       0
                text45                             16B4     16B4        5     2D68       0
                text44                             16B9     16B9        5     2D72       0
                text43                             16BE     16BE        5     2D7C       0
                text42                             16C3     16C3        5     2D86       0
                text41                             16C8     16C8        5     2D90       0
                text40                             16CD     16CD        5     2D9A       0
                text39                             16D2     16D2        5     2DA4       0
                text38                              8E0      8E0       2C     11C0       0
                text37                              939      939       2E     1272       0
                text36                             16E8     16E8        6     2DD0       0
                text35                             175C     175C        D     2EB8       0
                text34                              8BD      8BD       23     117A       0
                text33                             16D7     16D7        5     2DAE       0
                text32                             1769     1769        D     2ED2       0
                text31                              9F8      9F8       3A     13F0       0
                text30                             1776     1776        D     2EEC       0
                text29                              BBA      BBA       49     1774       0
                text28                              D9A      D9A       5A     1B34       0
                text27                              DF4      DF4       5A     1BE8       0
                text26                              9C5      9C5       33     138A       0
                text25                              F13      F13       76     1E26       0
                text24                              996      996       2F     132C       0
                text23                              C4D      C4D       4C     189A       0
                text22                              F89      F89       77     1F12       0
                text21                              E4E      E4E       60     1C9C       0
                text20                              B73      B73       47     16E6       0
                text19                              CEB      CEB       57     19D6       0
                text18                              C03      C03       4A     1806       0
                text17                              AE8      AE8       44     15D0       0
                text16                              33D      33D      161        8       0
                text15                              1D2      1D2      16B        8       0
                text14                               2A       2A      1A8        8       0
                text13                              5D2      5D2       C3        8       0
                text12                              90C      90C       2D     1218       0
                text11                              A6D      A6D       3C     14DA       0
                text10                              695      695       B3        8       0
                text9                               C99      C99       52     1932       0
                text8                               802      802       13     1004       0
                text7                               EAE      EAE       65     1D5C       0
                text6                               748      748       8E        8       0
                text5                               AA9      AA9       3F     1552       0
                text4                               841      841       16     1082       0
                text3                               857      857       16     10AE       0
                text2                              17AF     17AF        F     2F5E       0
                text1                              1783     1783        E     2F06       0
                maintext                            49E      49E      134        8       0
                cstackBANK0                          20       20       50       20       1
                cstackCOMMON                         70       70        E       70       1
                cstackBANK1                          E7       E7        7       A0       1
                clrtext                            16EE     16EE        6     2DDC       0
                bssBANK2                            120      120        6      120       1
                bssBANK1                             A0       A0       47       A0       1
                stringtext19                       188D     188D        A     3000       0
                stringtext18                       1882     1882        B     3000       0
                stringtext17                       1876     1876        C     3000       0
                stringtext16                       1868     1868        E     3000       0
                stringtext15                       1859     1859        F     3000       0
                stringtext14                       184A     184A        F     3000       0
                stringtext13                       1839     1839       11     3000       0
                stringtext12                       1827     1827       12     3000       0
                stringtext11                       1814     1814       13     3000       0
                stringtext10                       1800     1800       14     3000       0
                stringtext9                        1040     1040       1F     2000       0
                stringtext8                        1020     1020       20     2000       0
                nvBANK2                             126      126        4      120       1
                nvBANK1                              EE       EE        1       A0       1
                stringtext7                        18A7     18A7        2     3000       0
                stringtext6                        18A5     18A5        2     3000       0
                stringtext5                        18A3     18A3        2     3000       0
                stringtext4                        189F     189F        4     3000       0
                stringtext3                        189B     189B        4     3000       0
                stringtext2                        1897     1897        4     3000       0
                stringtext1                        1000     1000       20     2000       0

TOTAL           Name                               Link     Load   Length     Space
        CLASS   CODE           
                end_init                             15       15        2         0
                cinit                                17       17       13         0
                intentry                              4        4       11         0
                reset_vec                             0        0        2         0
                text92                             1699     1699        4         0
                text91                             1791     1791        F         0
                text90                             1713     1713        9         0
                text88                             171C     171C        9         0
                text87                             1725     1725        9         0
                text86                             16DC     16DC        6         0
                text85                              A32      A32       3B         0
                text84                             16FB     16FB        8         0
                text83                             1737     1737        C         0
                text82                             1743     1743        C         0
                text81                             1703     1703        8         0
                text80                             169D     169D        4         0
                text79                              86D      86D       19         0
                text78                             167E     167E        3         0
                text77                             1681     1681        3         0
                text76                             1684     1684        3         0
                text75                              8A1      8A1       1C         0
                text74                             1687     1687        3         0
                text73                             168A     168A        3         0
                text72                             168D     168D        3         0
                text71                             17A0     17A0        F         0
                text70                              7D6      7D6       26         0
                text69                             174F     174F        D         0
                text68                             17BE     17BE       16         0
                text67                             17D4     17D4       16         0
                text66                             17EA     17EA       16         0
                text65                              815      815       16         0
                text64                              82B      82B       16         0
                text63                              886      886       1B         0
                text62                              800      800        2         0
                text61                                2        2        2         0
                text60                             1690     1690        3         0
                text59                             16A1     16A1        4         0
                text58                             1693     1693        3         0
                text57                              7FC      7FC        4         0
                text56                             16A5     16A5        5         0
                text55                             16E2     16E2        6         0
                text54                             1696     1696        3         0
                text53                              967      967       2F         0
                text52                             16AA     16AA        5         0
                text51                             172E     172E        9         0
                text50                             170B     170B        8         0
                text49                              D42      D42       58         0
                text48                              B2C      B2C       47         0
                text47                             16F4     16F4        7         0
                text46                             16AF     16AF        5         0
                text45                             16B4     16B4        5         0
                text44                             16B9     16B9        5         0
                text43                             16BE     16BE        5         0
                text42                             16C3     16C3        5         0
                text41                             16C8     16C8        5         0
                text40                             16CD     16CD        5         0
                text39                             16D2     16D2        5         0
                text38                              8E0      8E0       2C         0
                text37                              939      939       2E         0
                text36                             16E8     16E8        6         0
                text35                             175C     175C        D         0
                text34                              8BD      8BD       23         0
                text33                             16D7     16D7        5         0
                text32                             1769     1769        D         0
                text31                              9F8      9F8       3A         0
                text30                             1776     1776        D         0
                text29                              BBA      BBA       49         0
                text28                              D9A      D9A       5A         0
                text27                              DF4      DF4       5A         0
                text26                              9C5      9C5       33         0
                text25                              F13      F13       76         0
                text24                              996      996       2F         0
                text23                              C4D      C4D       4C         0
                text22                              F89      F89       77         0
                text21                              E4E      E4E       60         0
                text20                              B73      B73       47         0
                text19                              CEB      CEB       57         0
                text18                              C03      C03       4A         0
                text17                              AE8      AE8       44         0
                text16                              33D      33D      161         0
                text15                              1D2      1D2      16B         0
                text14                               2A       2A      1A8         0
                text13                              5D2      5D2       C3         0
                text12                              90C      90C       2D         0
                text11                              A6D      A6D       3C         0
                text10                              695      695       B3         0
                text9                               C99      C99       52         0
                text8                               802      802       13         0
                text7                               EAE      EAE       65         0
                text6                               748      748       8E         0
                text5                               AA9      AA9       3F         0
                text4                               841      841       16         0
                text3                               857      857       16         0
                text2                              17AF     17AF        F         0
                text1                              1783     1783        E         0
                maintext                            49E      49E      134         0
                clrtext                            16EE     16EE        6         0

        CLASS   STRCODE        
                stringtext19                       188D     188D        A         0
                stringtext18                       1882     1882        B         0
                stringtext17                       1876     1876        C         0
                stringtext16                       1868     1868        E         0
                stringtext15                       1859     1859        F         0
                stringtext14                       184A     184A        F         0
                stringtext13                       1839     1839       11         0
                stringtext12                       1827     1827       12         0
                stringtext11                       1814     1814       13         0
                stringtext10                       1800     1800       14         0
                stringtext9                        1040     1040       1F         0
                stringtext8                        1020     1020       20         0
                stringtext7                        18A7     18A7        2         0
                stringtext6                        18A5     18A5        2         0
                stringtext5                        18A3     18A3        2         0
                stringtext4                        189F     189F        4         0
                stringtext3                        189B     189B        4         0
                stringtext2                        1897     1897        4         0
                stringtext1                        1000     1000       20         0

        CLASS   STRING         

        CLASS   CONST          

        CLASS   ENTRY          

        CLASS   COMMON         
                cstackCOMMON                         70       70        E         1

        CLASS   BANK0          
                cstackBANK0                          20       20       50         1

        CLASS   BANK1          
                cstackBANK1                          E7       E7        7         1
                bssBANK1                             A0       A0       47         1
                nvBANK1                              EE       EE        1         1

        CLASS   BANK2          
                bssBANK2                            120      120        6         1
                nvBANK2                             126      126        4         1

        CLASS   BANK3          

        CLASS   BANK4          

        CLASS   BANK5          

        CLASS   BANK6          

        CLASS   BANK7          

        CLASS   BANK8          

        CLASS   BANK9          

        CLASS   BANK10         

        CLASS   BANK11         

        CLASS   BANK12         

        CLASS   BIGRAM         

        CLASS   RAM            

        CLASS   ABS1           
                abs_s1                               7E       7E        2         1

        CLASS   SFR0           

        CLASS   SFR1           

        CLASS   SFR2           

        CLASS   SFR3           

        CLASS   SFR4           

        CLASS   SFR5           

        CLASS   SFR6           

        CLASS   SFR7           

        CLASS   SFR8           

        CLASS   SFR9           

        CLASS   SFR10          

        CLASS   SFR11          

        CLASS   SFR12          

        CLASS   SFR13          

        CLASS   SFR14          

        CLASS   SFR15          

        CLASS   SFR16          

        CLASS   SFR17          

        CLASS   SFR18          

        CLASS   SFR19          

        CLASS   SFR20          

        CLASS   SFR21          

        CLASS   SFR22          

        CLASS   SFR23          

        CLASS   SFR24          

        CLASS   SFR25          

        CLASS   SFR26          

        CLASS   SFR27          

        CLASS   SFR28          

        CLASS   SFR29          

        CLASS   SFR30          

        CLASS   SFR31          

        CLASS   CONFIG         
                config                             8007     8007        4         4

        CLASS   IDLOC          
                idloc                              8000     8000        4         5

        CLASS   EEDATA         

        CLASS   BANK31         

        CLASS   BANK30         

        CLASS   BANK29         

        CLASS   BANK28         

        CLASS   BANK27         

        CLASS   BANK26         

        CLASS   BANK25         

        CLASS   BANK24         

        CLASS   BANK23         

        CLASS   BANK22         

        CLASS   BANK21         

        CLASS   BANK20         

        CLASS   BANK19         

        CLASS   BANK18         

        CLASS   BANK17         

        CLASS   BANK16         

        CLASS   BANK15         

        CLASS   BANK14         

        CLASS   BANK13         

        CLASS   HEAP           

        CLASS   STACK          



SEGMENTS        Name                           Load    Length   Top    Selector   Space  Class     Delta

                reset_vec                      000000  000004  000004         0       0  CODE        2
                intentry                       000004  0007FE  000802         8       0  CODE        2
                cstackBANK0                    000020  000050  000070        20       1  BANK0       1
                cstackCOMMON                   000070  00000E  00007E        70       1  COMMON      1
                bssBANK1                       0000A0  00004F  0000EF        A0       1  BANK1       1
                bssBANK2                       000120  00000A  00012A       120       1  BANK2       1
                text8                          000802  000013  000815      1004       0  CODE        2
                text65                         000815  000016  00082B      102A       0  CODE        2
                text64                         00082B  000016  000841      1056       0  CODE        2
                text4                          000841  000016  000857      1082       0  CODE        2
                text3                          000857  000016  00086D      10AE       0  CODE        2
                text79                         00086D  000019  000886      10DA       0  CODE        2
                text63                         000886  00001B  0008A1      110C       0  CODE        2
                text75                         0008A1  00001C  0008BD      1142       0  CODE        2
                text34                         0008BD  000023  0008E0      117A       0  CODE        2
                text38                         0008E0  00002C  00090C      11C0       0  CODE        2
                text12                         00090C  00002D  000939      1218       0  CODE        2
                text37                         000939  00002E  000967      1272       0  CODE        2
                text53                         000967  00002F  000996      12CE       0  CODE        2
                text24                         000996  00002F  0009C5      132C       0  CODE        2
                text26                         0009C5  000033  0009F8      138A       0  CODE        2
                text31                         0009F8  00003A  000A32      13F0       0  CODE        2
                text85                         000A32  00003B  000A6D      1464       0  CODE        2
                text11                         000A6D  00003C  000AA9      14DA       0  CODE        2
                text5                          000AA9  00003F  000AE8      1552       0  CODE        2
                text17                         000AE8  000044  000B2C      15D0       0  CODE        2
                text48                         000B2C  000047  000B73      1658       0  CODE        2
                text20                         000B73  000047  000BBA      16E6       0  CODE        2
                text29                         000BBA  000049  000C03      1774       0  CODE        2
                text18                         000C03  00004A  000C4D      1806       0  CODE        2
                text23                         000C4D  00004C  000C99      189A       0  CODE        2
                text9                          000C99  000052  000CEB      1932       0  CODE        2
                text19                         000CEB  000057  000D42      19D6       0  CODE        2
                text49                         000D42  000058  000D9A      1A84       0  CODE        2
                text28                         000D9A  00005A  000DF4      1B34       0  CODE        2
                text27                         000DF4  00005A  000E4E      1BE8       0  CODE        2
                text21                         000E4E  000060  000EAE      1C9C       0  CODE        2
                text7                          000EAE  000065  000F13      1D5C       0  CODE        2
                text25                         000F13  000076  000F89      1E26       0  CODE        2
                text22                         000F89  000077  001000      1F12       0  CODE        2
                stringtext1                    001000  00005F  00105F      2000       0  STRCODE     2
                text78                         00167E  000003  001681      2CFC       0  CODE        2
                text77                         001681  000003  001684      2D02       0  CODE        2
                text76                         001684  000003  001687      2D08       0  CODE        2
                text74                         001687  000003  00168A      2D0E       0  CODE        2
                text73                         00168A  000003  00168D      2D14       0  CODE        2
                text72                         00168D  000003  001690      2D1A       0  CODE        2
                text60                         001690  000003  001693      2D20       0  CODE        2
                text58                         001693  000003  001696      2D26       0  CODE        2
                text54                         001696  000003  001699      2D2C       0  CODE        2
                text92                         001699  000004  00169D      2D32       0  CODE        2
                text80                         00169D  000004  0016A1      2D3A       0  CODE        2
                text59                         0016A1  000004  0016A5      2D42       0  CODE        2
                text56                         0016A5  000005  0016AA      2D4A       0  CODE        2
                text52                         0016AA  000005  0016AF      2D54       0  CODE        2
                text46                         0016AF  000005  0016B4      2D5E       0  CODE        2
                text45                         0016B4  000005  0016B9      2D68       0  CODE        2
                text44                         0016B9  000005  0016BE      2D72       0  CODE        2
                text43                         0016BE  000005  0016C3      2D7C       0  CODE        2
                text42                         0016C3  000005  0016C8      2D86       0  CODE        2
                text41                         0016C8  000005  0016CD      2D90       0  CODE        2
                text40                         0016CD  000005  0016D2      2D9A       0  CODE        2
                text39                         0016D2  000005  0016D7      2DA4       0  CODE        2
                text33                         0016D7  000005  0016DC      2DAE       0  CODE        2
                text86                         0016DC  000006  0016E2      2DB8       0  CODE        2
                text55                         0016E2  000006  0016E8      2DC4       0  CODE        2
                text36                         0016E8  000006  0016EE      2DD0       0  CODE        2
                clrtext                        0016EE  000006  0016F4      2DDC       0  CODE        2
                text47                         0016F4  000007  0016FB      2DE8       0  CODE        2
                text84                         0016FB  000008  001703      2DF6       0  CODE        2
                text81                         001703  000008  00170B      2E06       0  CODE        2
                text50                         00170B  000008  001713      2E16       0  CODE        2
                text90                         001713  000009  00171C      2E26       0  CODE        2
                text88                         00171C  000009  001725      2E38       0  CODE        2
                text87                         001725  000009  00172E      2E4A       0  CODE        2
                text51                         00172E  000009  001737      2E5C       0  CODE        2
                text83                         001737  00000C  001743      2E6E       0  CODE        2
                text82                         001743  00000C  00174F      2E86       0  CODE        2
                text69                         00174F  00000D  00175C      2E9E       0  CODE        2
                text35                         00175C  00000D  001769      2EB8       0  CODE        2
                text32                         001769  00000D  001776      2ED2       0  CODE        2
                text30                         001776  00000D  001783      2EEC       0  CODE        2
                text1                          001783  00000E  001791      2F06       0  CODE        2
                text91                         001791  00000F  0017A0      2F22       0  CODE        2
                text71                         0017A0  00000F  0017AF      2F40       0  CODE        2
                text2                          0017AF  00000F  0017BE      2F5E       0  CODE        2
                text68                         0017BE  000016  0017D4      2F7C       0  CODE        2
                text67                         0017D4  000016  0017EA      2FA8       0  CODE        2
                text66                         0017EA  000016  001800      2FD4       0  CODE        2
                stringtext10                   001800  0000A9  0018A9      3000       0  STRCODE     2


UNUSED ADDRESS RANGES

        Name                Unused          Largest block    Delta
        BANK1            000EF-000EF               1           1
        BANK10           00520-0056F              50           1
        BANK11           005A0-005EF              50           1
        BANK12           00620-0064F              30           1
        BANK2            0012A-0016F              46           1
        BANK3            001A0-001EF              50           1
        BANK4            00220-0026F              50           1
        BANK5            002A0-002EF              50           1
        BANK6            00320-0036F              50           1
        BANK7            003A0-003EF              50           1
        BANK8            00420-0046F              50           1
        BANK9            004A0-004EF              50           1
        BIGRAM           02000-023EF             3F0           1
        CODE             0105F-0167D             61F           2
                         018A9-01FFF             757
        CONST            0105F-0167D             100           2
                         018A9-01FFF             100
        EEDATA           0F000-0F0FF             100           2
        ENTRY            0105F-0167D             100           2
                         018A9-01FFF             100
        RAM              000EF-000EF               1           1
                         0012A-0016F              46
                         001A0-001EF              50
                         00220-0026F              50
                         002A0-002EF              50
                         00320-0036F              50
                         003A0-003EF              50
                         00420-0046F              50
                         004A0-004EF              50
                         00520-0056F              50
                         005A0-005EF              50
                         00620-0064F              30
        SFR0             00000-0001F              20           1
        SFR1             00080-0009F              20           1
        SFR10            00500-0051F              20           1
        SFR11            00580-0059F              20           1
        SFR12            00600-0061F              20           1
        SFR13            00680-006EF              70           1
        SFR14            00700-0076F              70           1
        SFR15            00780-007EF              70           1
        SFR16            00800-0086F              70           1
        SFR17            00880-008EF              70           1
        SFR18            00900-0096F              70           1
        SFR19            00980-009EF              70           1
        SFR2             00100-0011F              20           1
        SFR20            00A00-00A6F              70           1
        SFR21            00A80-00AEF              70           1
        SFR22            00B00-00B6F              70           1
        SFR23            00B80-00BEF              70           1
        SFR24            00C00-00C6F              70           1
        SFR25            00C80-00CEF              70           1
        SFR26            00D00-00D6F              70           1
        SFR27            00D80-00DEF              70           1
        SFR28            00E00-00E6F              70           1
        SFR29            00E80-00EEF              70           1
        SFR3             00180-0019F              20           1
        SFR30            00F00-00F6F              70           1
        SFR31            00F80-00FEF              70           1
        SFR4             00200-0021F              20           1
        SFR5             00280-0029F              20           1
        SFR6             00300-0031F              20           1
        SFR7             00380-0039F              20           1
        SFR8             00400-0041F              20           1
        SFR9             00480-0049F              20           1
        STRCODE          0105F-0167D             61F           2
                         018A9-01FFF             757
        STRING           0105F-0167D             100           2
                         018A9-01FFF             100

                                  Symbol Table

?_I2C1_Read2ByteRegister                                   cstackBANK0  00025
?_VL53L1X_calcMacroPeriod                                  cstackBANK0  00020
?_VL53L1X_decodeTimeout                                    cstackBANK0  0002E
?_VL53L1X_encodeTimeout                                    cstackBANK0  00030
?_VL53L1X_getMeasurementTimingBudget                       cstackBANK0  0005C
?_VL53L1X_read                                             cstackBANK0  00036
?_VL53L1X_timeoutMclksToMicroseconds                       cstackBANK0  0003C
?_VL53L1X_timeoutMicrosecondsToMclks                       cstackBANK0  00020
?___lldiv                                                  cstackCOMMON 00070
?___lmul                                                   cstackCOMMON 00070
?___lwdiv                                                  cstackCOMMON 00070
?___omul                                                   cstackBANK0  00020
?_get_distance_to_wall                                     cstackBANK0  0003C
I2C1_CallbackReturnReset@funPtr                            cstackCOMMON 00079
I2C1_Close@returnValue                                     cstackCOMMON 00071
I2C1_MasterOperation@read                                  cstackBANK0  00023
I2C1_MasterOperation@returnValue                           cstackBANK0  00024
I2C1_MasterSendTxData@data                                 cstackCOMMON 00070
I2C1_Open@address                                          cstackCOMMON 00071
I2C1_Open@returnValue                                      cstackCOMMON 00072
I2C1_Read1ByteRegister@address                             cstackBANK0  0002B
I2C1_Read1ByteRegister@reg                                 cstackBANK0  00025
I2C1_Read1ByteRegister@returnValue                         cstackBANK0  0002C
I2C1_Read2ByteRegister@address                             cstackBANK0  0002B
I2C1_Read2ByteRegister@reg                                 cstackBANK0  00025
I2C1_Read2ByteRegister@returnValue                         cstackBANK0  0002C
I2C1_ReadDataBlock@address                                 cstackBANK0  0002E
I2C1_ReadDataBlock@bufferBlock                             cstackBANK0  0002F
I2C1_ReadDataBlock@data_addr                               cstackBANK0  00027
I2C1_ReadDataBlock@len                                     cstackBANK0  00028
I2C1_ReadDataBlock@reg                                     cstackBANK0  00025
I2C1_SetAddressNackCallback@cb                             cstackCOMMON 00075
I2C1_SetAddressNackCallback@ptr                            cstackCOMMON 00077
I2C1_SetBuffer@buffer                                      cstackCOMMON 00070
I2C1_SetBuffer@bufferSize                                  cstackCOMMON 00072
I2C1_SetCallback@cb                                        cstackCOMMON 00070
I2C1_SetCallback@idx                                       cstackCOMMON 00074
I2C1_SetCallback@ptr                                       cstackCOMMON 00072
I2C1_SetDataCompleteCallback@cb                            cstackCOMMON 00075
I2C1_SetDataCompleteCallback@ptr                           cstackCOMMON 00077
I2C1_Write1ByteRegister@address                            cstackBANK0  00034
I2C1_Write1ByteRegister@data                               cstackBANK0  0002F
I2C1_Write1ByteRegister@reg                                cstackBANK0  0002D
I2C1_Write2ByteRegister@address                            cstackBANK0  00046
I2C1_Write2ByteRegister@data                               cstackBANK0  00040
I2C1_Write2ByteRegister@reg                                cstackBANK0  0003E
I2C1_Write4ByteRegister@address                            cstackBANK0  00043
I2C1_Write4ByteRegister@data                               cstackBANK0  00027
I2C1_Write4ByteRegister@reg                                cstackBANK0  00025
IOCCF4_SetInterruptHandler@InterruptHandler                cstackCOMMON 00070
PWM5_LoadDutyValue@dutyValue                               cstackCOMMON 00070
PWM6_LoadDutyValue@dutyValue                               cstackCOMMON 00070
VL53L1X_calcMacroPeriod@macro_period_us                    cstackBANK0  0002E
VL53L1X_calcMacroPeriod@pll_period_us                      cstackBANK0  00028
VL53L1X_calcMacroPeriod@vcsel_period                       cstackBANK0  0002C
VL53L1X_calcMacroPeriod@vcsel_period_pclks                 cstackBANK0  0002D
VL53L1X_decodeTimeout@reg_val                              cstackBANK0  0002E
VL53L1X_encodeTimeout@ls_byte                              cstackBANK0  0003A
VL53L1X_encodeTimeout@ms_byte                              cstackBANK0  00038
VL53L1X_encodeTimeout@timeout_mclks                        cstackBANK0  00030
VL53L1X_getMeasurementTimingBudget@macro_period_us         cstackBANK0  00064
VL53L1X_getMeasurementTimingBudget@range_config_timeout_us cstackBANK0  00068
VL53L1X_getRangingData@range                               cstackCOMMON 0007C
VL53L1X_setDistanceMode@budget_us                          cstackBANK1  000E7
VL53L1X_setDistanceMode@mode                               cstackBANK1  000EB
VL53L1X_setMeasurementTimingBudget@budget_us               cstackBANK0  00047
VL53L1X_setMeasurementTimingBudget@macro_period_us         cstackBANK0  00057
VL53L1X_setMeasurementTimingBudget@phasecal_timeout_mclks  cstackBANK0  0004F
VL53L1X_setMeasurementTimingBudget@range_config_timeout_us cstackBANK0  00053
VL53L1X_startContinuous@period_ms                          cstackBANK0  00044
VL53L1X_timeoutMclksToMicroseconds@macro_period_us         cstackBANK0  00040
VL53L1X_timeoutMclksToMicroseconds@timeout_mclks           cstackBANK0  0003C
VL53L1X_timeoutMicrosecondsToMclks@macro_period_us         cstackBANK0  00024
VL53L1X_timeoutMicrosecondsToMclks@timeout_us              cstackBANK0  00020
_ANSELA                                                    (abs)        0018C
_ANSELC                                                    (abs)        0018E
_I2C1_CallbackReturnReset                                  text61       00002
_I2C1_CallbackReturnStop                                   text62       00800
_I2C1_Close                                                text75       008A1
_I2C1_DO_ADDRESS_NACK                                      text38       008E0
_I2C1_DO_IDLE                                              text52       016AA
_I2C1_DO_RCEN                                              text47       016F4
_I2C1_DO_RESET                                             text39       016D2
_I2C1_DO_RX                                                text48       00B2C
_I2C1_DO_RX_ACK                                            text42       016C3
_I2C1_DO_RX_NACK_RESTART                                   text40       016CD
_I2C1_DO_RX_NACK_STOP                                      text41       016C8
_I2C1_DO_SEND_ADR_READ                                     text51       0172E
_I2C1_DO_SEND_ADR_WRITE                                    text50       0170B
_I2C1_DO_SEND_RESTART                                      text44       016B9
_I2C1_DO_SEND_RESTART_READ                                 text46       016AF
_I2C1_DO_SEND_RESTART_WRITE                                text45       016B4
_I2C1_DO_SEND_STOP                                         text43       016BE
_I2C1_DO_TX                                                text49       00D42
_I2C1_DO_TX_EMPTY                                          text53       00967
_I2C1_Initialize                                           text88       0171C
_I2C1_MasterClearIrq                                       text78       0167E
_I2C1_MasterClose                                          text77       01681
_I2C1_MasterDisableIrq                                     text76       01684
_I2C1_MasterEnableRestart                                  text73       0168A
_I2C1_MasterFsm                                            text37       00939
_I2C1_MasterGetRxData                                      text58       01693
_I2C1_MasterIsNack                                         text55       016E2
_I2C1_MasterOpen                                           text32       01769
_I2C1_MasterOperation                                      text34       008BD
_I2C1_MasterSendAck                                        text57       007FC
_I2C1_MasterSendNack                                       text59       016A1
_I2C1_MasterSendTxData                                     text56       016A5
_I2C1_MasterSetIrq                                         text54       01696
_I2C1_MasterStart                                          text74       01687
_I2C1_MasterStartRx                                        text60       01690
_I2C1_MasterStop                                           text72       0168D
_I2C1_MasterWaitForEvent                                   text36       016E8
_I2C1_MasterWrite                                          text33       016D7
_I2C1_Open                                                 text31       009F8
_I2C1_Poller                                               text35       0175C
_I2C1_Read1ByteRegister                                    text29       00BBA
_I2C1_Read2ByteRegister                                    text28       00D9A
_I2C1_ReadDataBlock                                        text9        00C99
_I2C1_SetAddressNackCallback                               text30       01776
_I2C1_SetBuffer                                            text71       017A0
_I2C1_SetCallback                                          text70       007D6
_I2C1_SetDataCompleteCallback                              text69       0174F
_I2C1_Status                                               bssBANK1     000A0
_I2C1_Write1ByteRegister                                   text20       00B73
_I2C1_Write2ByteRegister                                   text19       00CEB
_I2C1_Write4ByteRegister                                   text13       005D2
_INLVLA                                                    (abs)        0038C
_INLVLC                                                    (abs)        0038E
_INTCONbits                                                (abs)        0000B
_INTERRUPT_InterruptManager                                intentry     00004
_IOCCF4_DefaultInterruptHandler                            text92       01699
_IOCCF4_ISR                                                text91       01791
_IOCCF4_InterruptHandler                                   nvBANK2      00128
_IOCCF4_SetInterruptHandler                                text86       016DC
_IOCCFbits                                                 (abs)        00399
_IOCCNbits                                                 (abs)        00398
_IOCCPbits                                                 (abs)        00397
_LATA                                                      (abs)        0010C
_LATC                                                      (abs)        0010E
_LATCbits                                                  (abs)        0010E
_ODCONA                                                    (abs)        0028C
_ODCONC                                                    (abs)        0028E
_OSCCON1                                                   (abs)        00919
_OSCCON3                                                   (abs)        0091B
_OSCEN                                                     (abs)        0091D
_OSCFRQ                                                    (abs)        0091F
_OSCILLATOR_Initialize                                     text87       01725
_OSCTUNE                                                   (abs)        0091E
_PIE0bits                                                  (abs)        00090
_PIE1bits                                                  (abs)        00091
_PIN_MANAGER_IOC                                           text90       01713
_PIN_MANAGER_Initialize                                    text85       00A32
_PIR0bits                                                  (abs)        00010
_PIR1bits                                                  (abs)        00011
_PMD0                                                      (abs)        00911
_PMD1                                                      (abs)        00912
_PMD2                                                      (abs)        00913
_PMD3                                                      (abs)        00914
_PMD4                                                      (abs)        00915
_PMD5                                                      (abs)        00916
_PMD_Initialize                                            text84       016FB
_PR2                                                       (abs)        0001E
_PWM5CON                                                   (abs)        00619
_PWM5DCH                                                   (abs)        00618
_PWM5DCL                                                   (abs)        00617
_PWM5_Initialize                                           text83       01737
_PWM5_LoadDutyValue                                        text4        00841
_PWM6CON                                                   (abs)        0061C
_PWM6DCH                                                   (abs)        0061B
_PWM6DCL                                                   (abs)        0061A
_PWM6_Initialize                                           text82       01743
_PWM6_LoadDutyValue                                        text3        00857
_PWMTMRSbits                                               (abs)        0061F
_RA4PPS                                                    (abs)        00E94
_RC0PPS                                                    (abs)        00EA0
_RC1PPS                                                    (abs)        00EA1
_RC5PPS                                                    (abs)        00EA5
_SLRCONA                                                   (abs)        0030C
_SLRCONC                                                   (abs)        0030E
_SSP1ADD                                                   (abs)        00212
_SSP1BUF                                                   (abs)        00211
_SSP1CLKPPS                                                (abs)        00E20
_SSP1CON1                                                  (abs)        00215
_SSP1CON1bits                                              (abs)        00215
_SSP1CON2                                                  (abs)        00216
_SSP1CON2bits                                              (abs)        00216
_SSP1DATPPS                                                (abs)        00E21
_SSP1STAT                                                  (abs)        00214
_SSP1STATbits                                              (abs)        00214
_SYSTEM_Initialize                                         text79       0086D
_T2CON                                                     (abs)        0001F
_T2CONbits                                                 (abs)        0001F
_TMR2                                                      (abs)        0001D
_TMR2_Initialize                                           text81       01703
_TRISA                                                     (abs)        0008C
_TRISC                                                     (abs)        0008E
_VL53L1X_calcMacroPeriod                                   text25       00F13
_VL53L1X_decodeTimeout                                     text24       00996
_VL53L1X_encodeTimeout                                     text18       00C03
_VL53L1X_getMeasurementTimingBudget                        text21       00E4E
_VL53L1X_getRangingData                                    text10       00695
_VL53L1X_init                                              text14       0002A
_VL53L1X_read                                              text6        00748
_VL53L1X_readResults                                       text8        00802
_VL53L1X_setDistanceMode                                   text15       001D2
_VL53L1X_setMeasurementTimingBudget                        text16       0033D
_VL53L1X_setupManualCalibration                            text7        00EAE
_VL53L1X_startContinuous                                   text12       0090C
_VL53L1X_timeoutMclksToMicroseconds                        text22       00F89
_VL53L1X_timeoutMicrosecondsToMclks                        text17       00AE8
_WDTCON                                                    (abs)        00097
_WDT_Initialize                                            text80       0169D
_WPUA                                                      (abs)        0020C
_WPUC                                                      (abs)        0020E
__Habs1                                                    abs1         00000
__Hbank0                                                   bank0        00000
__Hbank1                                                   bank1        00000
__Hbank10                                                  bank10       00000
__Hbank11                                                  bank11       00000
__Hbank12                                                  bank12       00000
__Hbank13                                                  bank13       00000
__Hbank14                                                  bank14       00000
__Hbank15                                                  bank15       00000
__Hbank16                                                  bank16       00000
__Hbank17                                                  bank17       00000
__Hbank18                                                  bank18       00000
__Hbank19                                                  bank19       00000
__Hbank2                                                   bank2        00000
__Hbank20                                                  bank20       00000
__Hbank21                                                  bank21       00000
__Hbank22                                                  bank22       00000
__Hbank23                                                  bank23       00000
__Hbank24                                                  bank24       00000
__Hbank25                                                  bank25       00000
__Hbank26                                                  bank26       00000
__Hbank27                                                  bank27       00000
__Hbank28                                                  bank28       00000
__Hbank29                                                  bank29       00000
__Hbank3                                                   bank3        00000
__Hbank30                                                  bank30       00000
__Hbank31                                                  bank31       00000
__Hbank4                                                   bank4        00000
__Hbank5                                                   bank5        00000
__Hbank6                                                   bank6        00000
__Hbank7                                                   bank7        00000
__Hbank8                                                   bank8        00000
__Hbank9                                                   bank9        00000
__Hbigram                                                  bigram       00000
__HbssBANK1                                                bssBANK1     00000
__HbssBANK2                                                bssBANK2     00000
__Hcinit                                                   cinit        0002A
__Hclrtext                                                 clrtext      00000
__Hcode                                                    code         00000
__Hcommon                                                  common       00000
__Hconfig                                                  config       0800B
__HcstackBANK0                                             cstackBANK0  00000
__HcstackBANK1                                             cstackBANK1  00000
__HcstackCOMMON                                            cstackCOMMON 00000
__Heeprom_data                                             eeprom_data  00000
__Hend_init                                                end_init     00017
__Hfunctab                                                 functab      00000
__Hheap                                                    heap         00000
__Hidloc                                                   idloc        08004
__Hinit                                                    init         00015
__Hintentry                                                intentry     00015
__Hmaintext                                                maintext     00000
__HnvBANK1                                                 nvBANK1      00000
__HnvBANK2                                                 nvBANK2      00000
__Hpowerup                                                 powerup      00000
__Hram                                                     ram          00000
__Hreset_vec                                               reset_vec    00002
__Hsfr0                                                    sfr0         00000
__Hsfr1                                                    sfr1         00000
__Hsfr10                                                   sfr10        00000
__Hsfr11                                                   sfr11        00000
__Hsfr12                                                   sfr12        00000
__Hsfr13                                                   sfr13        00000
__Hsfr14                                                   sfr14        00000
__Hsfr15                                                   sfr15        00000
__Hsfr16                                                   sfr16        00000
__Hsfr17                                                   sfr17        00000
__Hsfr18                                                   sfr18        00000
__Hsfr19                                                   sfr19        00000
__Hsfr2                                                    sfr2         00000
__Hsfr20                                                   sfr20        00000
__Hsfr21                                                   sfr21        00000
__Hsfr22                                                   sfr22        00000
__Hsfr23                                                   sfr23        00000
__Hsfr24                                                   sfr24        00000
__Hsfr25                                                   sfr25        00000
__Hsfr26                                                   sfr26        00000
__Hsfr27                                                   sfr27        00000
__Hsfr28                                                   sfr28        00000
__Hsfr29                                                   sfr29        00000
__Hsfr3                                                    sfr3         00000
__Hsfr30                                                   sfr30        00000
__Hsfr31                                                   sfr31        00000
__Hsfr4                                                    sfr4         00000
__Hsfr5                                                    sfr5         00000
__Hsfr6                                                    sfr6         00000
__Hsfr7                                                    sfr7         00000
__Hsfr8                                                    sfr8         00000
__Hsfr9                                                    sfr9         00000
__Hspace_0                                                 (abs)        018A9
__Hspace_1                                                 (abs)        0012A
__Hspace_2                                                 (abs)        00000
__Hspace_3                                                 (abs)        00000
__Hspace_4                                                 (abs)        10012
__Hstack                                                   stack        00000
__Hstrings                                                 strings      00000
__Hstringtext1                                             stringtext1  00000
__Hstringtext10                                            stringtext10 00000
__Hstringtext11                                            stringtext11 00000
__Hstringtext12                                            stringtext12 00000
__Hstringtext13                                            stringtext13 00000
__Hstringtext14                                            stringtext14 00000
__Hstringtext15                                            stringtext15 00000
__Hstringtext16                                            stringtext16 00000
__Hstringtext17                                            stringtext17 00000
__Hstringtext18                                            stringtext18 00000
__Hstringtext19                                            stringtext19 00000
__Hstringtext2                                             stringtext2  00000
__Hstringtext20                                            stringtext20 00000
__Hstringtext3                                             stringtext3  00000
__Hstringtext4                                             stringtext4  00000
__Hstringtext5                                             stringtext5  00000
__Hstringtext6                                             stringtext6  00000
__Hstringtext7                                             stringtext7  00000
__Hstringtext8                                             stringtext8  00000
__Hstringtext9                                             stringtext9  00000
__Htext                                                    text         00000
__Labs1                                                    abs1         00000
__Lbank0                                                   bank0        00000
__Lbank1                                                   bank1        00000
__Lbank10                                                  bank10       00000
__Lbank11                                                  bank11       00000
__Lbank12                                                  bank12       00000
__Lbank13                                                  bank13       00000
__Lbank14                                                  bank14       00000
__Lbank15                                                  bank15       00000
__Lbank16                                                  bank16       00000
__Lbank17                                                  bank17       00000
__Lbank18                                                  bank18       00000
__Lbank19                                                  bank19       00000
__Lbank2                                                   bank2        00000
__Lbank20                                                  bank20       00000
__Lbank21                                                  bank21       00000
__Lbank22                                                  bank22       00000
__Lbank23                                                  bank23       00000
__Lbank24                                                  bank24       00000
__Lbank25                                                  bank25       00000
__Lbank26                                                  bank26       00000
__Lbank27                                                  bank27       00000
__Lbank28                                                  bank28       00000
__Lbank29                                                  bank29       00000
__Lbank3                                                   bank3        00000
__Lbank30                                                  bank30       00000
__Lbank31                                                  bank31       00000
__Lbank4                                                   bank4        00000
__Lbank5                                                   bank5        00000
__Lbank6                                                   bank6        00000
__Lbank7                                                   bank7        00000
__Lbank8                                                   bank8        00000
__Lbank9                                                   bank9        00000
__Lbigram                                                  bigram       00000
__LbssBANK1                                                bssBANK1     00000
__LbssBANK2                                                bssBANK2     00000
__Lcinit                                                   cinit        00017
__Lclrtext                                                 clrtext      00000
__Lcode                                                    code         00000
__Lcommon                                                  common       00000
__Lconfig                                                  config       00000
__LcstackBANK0                                             cstackBANK0  00000
__LcstackBANK1                                             cstackBANK1  00000
__LcstackCOMMON                                            cstackCOMMON 00000
__Leeprom_data                                             eeprom_data  00000
__Lend_init                                                end_init     00015
__Lfunctab                                                 functab      00000
__Lheap                                                    heap         00000
__Lidloc                                                   idloc        00000
__Linit                                                    init         00015
__Lintentry                                                intentry     00004
__Lmaintext                                                maintext     00000
__LnvBANK1                                                 nvBANK1      00000
__LnvBANK2                                                 nvBANK2      00000
__Lpowerup                                                 powerup      00000
__Lram                                                     ram          00000
__Lreset_vec                                               reset_vec    00000
__Lsfr0                                                    sfr0         00000
__Lsfr1                                                    sfr1         00000
__Lsfr10                                                   sfr10        00000
__Lsfr11                                                   sfr11        00000
__Lsfr12                                                   sfr12        00000
__Lsfr13                                                   sfr13        00000
__Lsfr14                                                   sfr14        00000
__Lsfr15                                                   sfr15        00000
__Lsfr16                                                   sfr16        00000
__Lsfr17                                                   sfr17        00000
__Lsfr18                                                   sfr18        00000
__Lsfr19                                                   sfr19        00000
__Lsfr2                                                    sfr2         00000
__Lsfr20                                                   sfr20        00000
__Lsfr21                                                   sfr21        00000
__Lsfr22                                                   sfr22        00000
__Lsfr23                                                   sfr23        00000
__Lsfr24                                                   sfr24        00000
__Lsfr25                                                   sfr25        00000
__Lsfr26                                                   sfr26        00000
__Lsfr27                                                   sfr27        00000
__Lsfr28                                                   sfr28        00000
__Lsfr29                                                   sfr29        00000
__Lsfr3                                                    sfr3         00000
__Lsfr30                                                   sfr30        00000
__Lsfr31                                                   sfr31        00000
__Lsfr4                                                    sfr4         00000
__Lsfr5                                                    sfr5         00000
__Lsfr6                                                    sfr6         00000
__Lsfr7                                                    sfr7         00000
__Lsfr8                                                    sfr8         00000
__Lsfr9                                                    sfr9         00000
__Lspace_0                                                 (abs)        00000
__Lspace_1                                                 (abs)        00000
__Lspace_2                                                 (abs)        00000
__Lspace_3                                                 (abs)        00000
__Lspace_4                                                 (abs)        00000
__Lstack                                                   stack        00000
__Lstrings                                                 strings      00000
__Lstringtext1                                             stringtext1  00000
__Lstringtext10                                            stringtext10 00000
__Lstringtext11                                            stringtext11 00000
__Lstringtext12                                            stringtext12 00000
__Lstringtext13                                            stringtext13 00000
__Lstringtext14                                            stringtext14 00000
__Lstringtext15                                            stringtext15 00000
__Lstringtext16                                            stringtext16 00000
__Lstringtext17                                            stringtext17 00000
__Lstringtext18                                            stringtext18 00000
__Lstringtext19                                            stringtext19 00000
__Lstringtext2                                             stringtext2  00000
__Lstringtext20                                            stringtext20 00000
__Lstringtext3                                             stringtext3  00000
__Lstringtext4                                             stringtext4  00000
__Lstringtext5                                             stringtext5  00000
__Lstringtext6                                             stringtext6  00000
__Lstringtext7                                             stringtext7  00000
__Lstringtext8                                             stringtext8  00000
__Lstringtext9                                             stringtext9  00000
__Ltext                                                    text         00000
__S0                                                       (abs)        018A9
__S1                                                       (abs)        0012A
__S3                                                       (abs)        00000
___heap_hi                                                 (abs)        00000
___heap_lo                                                 (abs)        00000
___int_sp                                                  stack        00000
___latbits                                                 (abs)        00002
___lldiv                                                   text27       00DF4
___lldiv@counter                                           cstackCOMMON 0007D
___lldiv@dividend                                          cstackCOMMON 00074
___lldiv@divisor                                           cstackCOMMON 00070
___lldiv@quotient                                          cstackCOMMON 00079
___lmul                                                    text26       009C5
___lmul@multiplicand                                       cstackCOMMON 00074
___lmul@multiplier                                         cstackCOMMON 00070
___lmul@product                                            cstackCOMMON 00078
___lwdiv                                                   text11       00A6D
___lwdiv@counter                                           cstackCOMMON 00077
___lwdiv@dividend                                          cstackCOMMON 00072
___lwdiv@divisor                                           cstackCOMMON 00070
___lwdiv@quotient                                          cstackCOMMON 00075
___omul                                                    text23       00C4D
___omul@multiplicand                                       cstackBANK0  00028
___omul@multiplier                                         cstackBANK0  00020
___omul@product                                            cstackCOMMON 00071
___sp                                                      stack        00000
___stackhi                                                 (abs)        00000
___stacklo                                                 (abs)        00000
__end_of_I2C1_CallbackReturnReset                          text61       00004
__end_of_I2C1_CallbackReturnStop                           text62       00802
__end_of_I2C1_Close                                        text75       008BD
__end_of_I2C1_DO_ADDRESS_NACK                              text38       0090C
__end_of_I2C1_DO_IDLE                                      text52       016AF
__end_of_I2C1_DO_RCEN                                      text47       016FB
__end_of_I2C1_DO_RESET                                     text39       016D7
__end_of_I2C1_DO_RX                                        text48       00B73
__end_of_I2C1_DO_RX_ACK                                    text42       016C8
__end_of_I2C1_DO_RX_NACK_RESTART                           text40       016D2
__end_of_I2C1_DO_RX_NACK_STOP                              text41       016CD
__end_of_I2C1_DO_SEND_ADR_READ                             text51       01737
__end_of_I2C1_DO_SEND_ADR_WRITE                            text50       01713
__end_of_I2C1_DO_SEND_RESTART                              text44       016BE
__end_of_I2C1_DO_SEND_RESTART_READ                         text46       016B4
__end_of_I2C1_DO_SEND_RESTART_WRITE                        text45       016B9
__end_of_I2C1_DO_SEND_STOP                                 text43       016C3
__end_of_I2C1_DO_TX                                        text49       00D9A
__end_of_I2C1_DO_TX_EMPTY                                  text53       00996
__end_of_I2C1_Initialize                                   text88       01725
__end_of_I2C1_MasterClearIrq                               text78       01681
__end_of_I2C1_MasterClose                                  text77       01684
__end_of_I2C1_MasterDisableIrq                             text76       01687
__end_of_I2C1_MasterEnableRestart                          text73       0168D
__end_of_I2C1_MasterFsm                                    text37       00967
__end_of_I2C1_MasterGetRxData                              text58       01696
__end_of_I2C1_MasterIsNack                                 text55       016E8
__end_of_I2C1_MasterOpen                                   text32       01776
__end_of_I2C1_MasterOperation                              text34       008E0
__end_of_I2C1_MasterSendAck                                text57       00800
__end_of_I2C1_MasterSendNack                               text59       016A5
__end_of_I2C1_MasterSendTxData                             text56       016AA
__end_of_I2C1_MasterSetIrq                                 text54       01699
__end_of_I2C1_MasterStart                                  text74       0168A
__end_of_I2C1_MasterStartRx                                text60       01693
__end_of_I2C1_MasterStop                                   text72       01690
__end_of_I2C1_MasterWaitForEvent                           text36       016EE
__end_of_I2C1_MasterWrite                                  text33       016DC
__end_of_I2C1_Open                                         text31       00A32
__end_of_I2C1_Poller                                       text35       01769
__end_of_I2C1_Read1ByteRegister                            text29       00C03
__end_of_I2C1_Read2ByteRegister                            text28       00DF4
__end_of_I2C1_ReadDataBlock                                text9        00CEB
__end_of_I2C1_SetAddressNackCallback                       text30       01783
__end_of_I2C1_SetBuffer                                    text71       017AF
__end_of_I2C1_SetCallback                                  text70       007FC
__end_of_I2C1_SetDataCompleteCallback                      text69       0175C
__end_of_I2C1_Write1ByteRegister                           text20       00BBA
__end_of_I2C1_Write2ByteRegister                           text19       00D42
__end_of_I2C1_Write4ByteRegister                           text13       00695
__end_of_INTERRUPT_InterruptManager                        intentry     00015
__end_of_IOCCF4_DefaultInterruptHandler                    text92       0169D
__end_of_IOCCF4_ISR                                        text91       017A0
__end_of_IOCCF4_SetInterruptHandler                        text86       016E2
__end_of_OSCILLATOR_Initialize                             text87       0172E
__end_of_PIN_MANAGER_IOC                                   text90       0171C
__end_of_PIN_MANAGER_Initialize                            text85       00A6D
__end_of_PMD_Initialize                                    text84       01703
__end_of_PWM5_Initialize                                   text83       01743
__end_of_PWM5_LoadDutyValue                                text4        00857
__end_of_PWM6_Initialize                                   text82       0174F
__end_of_PWM6_LoadDutyValue                                text3        0086D
__end_of_SYSTEM_Initialize                                 text79       00886
__end_of_TMR2_Initialize                                   text81       0170B
__end_of_TargetRate                                        stringtext6  018A7
__end_of_TargetRate@vl53l1x$F2464                          stringtext7  018A9
__end_of_TargetRate@vl53l1x$F2589                          stringtext5  018A5
__end_of_TimingGuard                                       stringtext4  018A3
__end_of_TimingGuard@vl53l1x$F2463                         stringtext3  0189F
__end_of_TimingGuard@vl53l1x$F2588                         stringtext2  0189B
__end_of_VL53L1X_calcMacroPeriod                           text25       00F89
__end_of_VL53L1X_decodeTimeout                             text24       009C5
__end_of_VL53L1X_encodeTimeout                             text18       00C4D
__end_of_VL53L1X_getMeasurementTimingBudget                text21       00EAE
__end_of_VL53L1X_getRangingData                            text10       00748
__end_of_VL53L1X_init                                      text14       001D2
__end_of_VL53L1X_read                                      text6        007D6
__end_of_VL53L1X_readResults                               text8        00815
__end_of_VL53L1X_setDistanceMode                           text15       0033D
__end_of_VL53L1X_setMeasurementTimingBudget                text16       0049E
__end_of_VL53L1X_setupManualCalibration                    text7        00F13
__end_of_VL53L1X_startContinuous                           text12       00939
__end_of_VL53L1X_timeoutMclksToMicroseconds                text22       01000
__end_of_VL53L1X_timeoutMicrosecondsToMclks                text17       00B2C
__end_of_WDT_Initialize                                    text80       016A1
__end_of___lldiv                                           text27       00E4E
__end_of___lmul                                            text26       009F8
__end_of___lwdiv                                           text11       00AA9
__end_of___omul                                            text23       00C99
__end_of__initialization                                   cinit        00026
__end_of_get_distance_to_wall                              text5        00AE8
__end_of_i2c1_fsmStateTable                                stringtext1  01020
__end_of_m_control_init                                    text2        017BE
__end_of_m_go_forward                                      text1        01791
__end_of_main                                              maintext     005D2
__end_of_rd1RegCompleteHandler                             text67       017EA
__end_of_rd2RegCompleteHandler                             text66       01800
__end_of_rdBlkRegCompleteHandler                           text63       008A1
__end_of_wr1RegCompleteHandler                             text65       0082B
__end_of_wr2RegCompleteHandler                             text64       00841
__end_of_wr4RegCompleteHandler                             text68       017D4
__initialization                                           cinit        00017
__pbssBANK1                                                bssBANK1     000A0
__pbssBANK2                                                bssBANK2     00120
__pcstackBANK0                                             cstackBANK0  00020
__pcstackBANK1                                             cstackBANK1  000E7
__pcstackCOMMON                                            cstackCOMMON 00070
__pintentry                                                intentry     00004
__pmaintext                                                maintext     0049E
__pnvBANK1                                                 nvBANK1      000EE
__pnvBANK2                                                 nvBANK2      00126
__pstringtext1                                             stringtext1  01000
__pstringtext10                                            stringtext10 01800
__pstringtext11                                            stringtext11 01814
__pstringtext12                                            stringtext12 01827
__pstringtext13                                            stringtext13 01839
__pstringtext14                                            stringtext14 0184A
__pstringtext15                                            stringtext15 01859
__pstringtext16                                            stringtext16 01868
__pstringtext17                                            stringtext17 01876
__pstringtext18                                            stringtext18 01882
__pstringtext19                                            stringtext19 0188D
__pstringtext2                                             stringtext2  01897
__pstringtext20                                            stringtext20 00000
__pstringtext3                                             stringtext3  0189B
__pstringtext4                                             stringtext4  0189F
__pstringtext5                                             stringtext5  018A3
__pstringtext6                                             stringtext6  018A5
__pstringtext7                                             stringtext7  018A7
__pstringtext8                                             stringtext8  01020
__pstringtext9                                             stringtext9  01040
__ptext1                                                   text1        01783
__ptext10                                                  text10       00695
__ptext11                                                  text11       00A6D
__ptext12                                                  text12       0090C
__ptext13                                                  text13       005D2
__ptext14                                                  text14       0002A
__ptext15                                                  text15       001D2
__ptext16                                                  text16       0033D
__ptext17                                                  text17       00AE8
__ptext18                                                  text18       00C03
__ptext19                                                  text19       00CEB
__ptext2                                                   text2        017AF
__ptext20                                                  text20       00B73
__ptext21                                                  text21       00E4E
__ptext22                                                  text22       00F89
__ptext23                                                  text23       00C4D
__ptext24                                                  text24       00996
__ptext25                                                  text25       00F13
__ptext26                                                  text26       009C5
__ptext27                                                  text27       00DF4
__ptext28                                                  text28       00D9A
__ptext29                                                  text29       00BBA
__ptext3                                                   text3        00857
__ptext30                                                  text30       01776
__ptext31                                                  text31       009F8
__ptext32                                                  text32       01769
__ptext33                                                  text33       016D7
__ptext34                                                  text34       008BD
__ptext35                                                  text35       0175C
__ptext36                                                  text36       016E8
__ptext37                                                  text37       00939
__ptext38                                                  text38       008E0
__ptext39                                                  text39       016D2
__ptext4                                                   text4        00841
__ptext40                                                  text40       016CD
__ptext41                                                  text41       016C8
__ptext42                                                  text42       016C3
__ptext43                                                  text43       016BE
__ptext44                                                  text44       016B9
__ptext45                                                  text45       016B4
__ptext46                                                  text46       016AF
__ptext47                                                  text47       016F4
__ptext48                                                  text48       00B2C
__ptext49                                                  text49       00D42
__ptext5                                                   text5        00AA9
__ptext50                                                  text50       0170B
__ptext51                                                  text51       0172E
__ptext52                                                  text52       016AA
__ptext53                                                  text53       00967
__ptext54                                                  text54       01696
__ptext55                                                  text55       016E2
__ptext56                                                  text56       016A5
__ptext57                                                  text57       007FC
__ptext58                                                  text58       01693
__ptext59                                                  text59       016A1
__ptext6                                                   text6        00748
__ptext60                                                  text60       01690
__ptext61                                                  text61       00002
__ptext62                                                  text62       00800
__ptext63                                                  text63       00886
__ptext64                                                  text64       0082B
__ptext65                                                  text65       00815
__ptext66                                                  text66       017EA
__ptext67                                                  text67       017D4
__ptext68                                                  text68       017BE
__ptext69                                                  text69       0174F
__ptext7                                                   text7        00EAE
__ptext70                                                  text70       007D6
__ptext71                                                  text71       017A0
__ptext72                                                  text72       0168D
__ptext73                                                  text73       0168A
__ptext74                                                  text74       01687
__ptext75                                                  text75       008A1
__ptext76                                                  text76       01684
__ptext77                                                  text77       01681
__ptext78                                                  text78       0167E
__ptext79                                                  text79       0086D
__ptext8                                                   text8        00802
__ptext80                                                  text80       0169D
__ptext81                                                  text81       01703
__ptext82                                                  text82       01743
__ptext83                                                  text83       01737
__ptext84                                                  text84       016FB
__ptext85                                                  text85       00A32
__ptext86                                                  text86       016DC
__ptext87                                                  text87       01725
__ptext88                                                  text88       0171C
__ptext9                                                   text9        00C99
__ptext90                                                  text90       01713
__ptext91                                                  text91       01791
__ptext92                                                  text92       01699
_address                                                   nvBANK1      000EE
_calibrated                                                bssBANK1     000D1
_did_timeout                                               bssBANK1     000D2
_distance                                                  bssBANK1     000C9
_distance_mode                                             bssBANK1     000CE
_fast_osc_frequency                                        bssBANK1     000E5
_get_distance_to_wall                                      text5        00AA9
_i2c1_fsmStateTable                                        stringtext1  01000
_iid                                                       nvBANK2      00126
_m_control_init                                            text2        017AF
_m_go_forward                                              text1        01783
_main                                                      maintext     0049E
_motordrive                                                bssBANK1     000D3
_osc_calibrate_val                                         bssBANK2     00122
_ranging_data                                              bssBANK1     000BE
_rd1RegCompleteHandler                                     text67       017D4
_rd2RegCompleteHandler                                     text66       017EA
_rdBlkRegCompleteHandler                                   text63       00886
_results                                                   bssBANK1     000D4
_saved_vhv_init                                            bssBANK1     000D0
_saved_vhv_timeout                                         bssBANK1     000CF
_speed                                                     bssBANK2     00120
_wr1RegCompleteHandler                                     text65       00815
_wr2RegCompleteHandler                                     text64       0082B
_wr4RegCompleteHandler                                     text68       017BE
btemp                                                      (abs)        0007E
clear_ram0                                                 clrtext      016EE
end_of_initialization                                      cinit        00026
get_distance_to_wall@ave                                   cstackBANK0  00042
get_distance_to_wall@i                                     cstackBANK0  00040
int$flags                                                  (abs)        0007E
intlevel0                                                  functab      00000
intlevel1                                                  functab      00000
intlevel2                                                  functab      00000
intlevel3                                                  functab      00000
intlevel4                                                  functab      00000
intlevel5                                                  functab      00000
m_go_forward@speed                                         cstackCOMMON 00074
rd1RegCompleteHandler@ptr                                  cstackCOMMON 00079
rd2RegCompleteHandler@ptr                                  cstackCOMMON 00079
rdBlkRegCompleteHandler@ptr                                cstackCOMMON 00079
reset_vec                                                  reset_vec    00000
start                                                      init         00015
start_initialization                                       cinit        00017
wr1RegCompleteHandler@ptr                                  cstackCOMMON 00079
wr2RegCompleteHandler@ptr                                  cstackCOMMON 00079
wr4RegCompleteHandler@ptr                                  cstackCOMMON 00079
wtemp0                                                     (abs)        0007E


MODULE INFORMATION

Module		Function		Class		Link	Load	Size
mcc_generated_files/examples/i2c1_master_example.c
		_wr1RegCompleteHandler		CODE           	0815	0000	22
		_wr2RegCompleteHandler		CODE           	082B	0000	22
		_wr4RegCompleteHandler		CODE           	17BE	0000	22
		_I2C1_ReadDataBlock		CODE           	0C99	0000	82
		_I2C1_Write1ByteRegister		CODE           	0B73	0000	71
		_I2C1_Write2ByteRegister		CODE           	0CEB	0000	87
		_I2C1_Write4ByteRegister		CODE           	05D2	0000	195
		_rdBlkRegCompleteHandler		CODE           	0886	0000	27
		_rd1RegCompleteHandler		CODE           	17D4	0000	22
		_rd2RegCompleteHandler		CODE           	17EA	0000	22
		_I2C1_Read1ByteRegister		CODE           	0BBA	0000	73
		_I2C1_Read2ByteRegister		CODE           	0D9A	0000	90

mcc_generated_files/examples/i2c1_master_example.c estimated size: 735

mcc_generated_files/pwm6.c
		_PWM6_LoadDutyValue		CODE           	0857	0000	22
		_PWM6_Initialize		CODE           	1743	0000	12

mcc_generated_files/pwm6.c estimated size: 34

mcc_generated_files/i2c1_master.c
		_I2C1_DO_SEND_RESTART		CODE           	16B9	0000	5
		_I2C1_DO_TX_EMPTY		CODE           	0967	0000	47
		_I2C1_DO_SEND_RESTART_READ		CODE           	16AF	0000	5
		_I2C1_CallbackReturnStop		CODE           	0800	0000	2
		_I2C1_DO_RX    		CODE           	0B2C	0000	71
		_I2C1_DO_TX    		CODE           	0D42	0000	88
		_I2C1_SetAddressNackCallback		CODE           	1776	0000	13
		_I2C1_DO_IDLE  		CODE           	16AA	0000	5
		_I2C1_MasterOpen		CODE           	1769	0000	13
		_I2C1_DO_RCEN  		CODE           	16F4	0000	7
		_I2C1_MasterSendTxData		CODE           	16A5	0000	5
		_I2C1_MasterStop		CODE           	168D	0000	3
		_I2C1_CallbackReturnReset		CODE           	0002	0000	2
		_I2C1_DO_RESET 		CODE           	16D2	0000	5
		_I2C1_MasterStartRx		CODE           	1690	0000	3
		_I2C1_Poller   		CODE           	175C	0000	13
		_I2C1_DO_RX_ACK		CODE           	16C3	0000	5
		_I2C1_MasterWaitForEvent		CODE           	16E8	0000	6
		_I2C1_MasterSendNack		CODE           	16A1	0000	4
		_I2C1_DO_RX_NACK_RESTART		CODE           	16CD	0000	5
		_I2C1_MasterDisableIrq		CODE           	1684	0000	3
		_I2C1_MasterOperation		CODE           	08BD	0000	35
		_I2C1_SetCallback		CODE           	07D6	0000	38
		_I2C1_MasterEnableRestart		CODE           	168A	0000	3
		_I2C1_Open     		CODE           	09F8	0000	58
		_I2C1_DO_ADDRESS_NACK		CODE           	08E0	0000	44
		_I2C1_SetBuffer		CODE           	17A0	0000	15
		_I2C1_DO_SEND_RESTART_WRITE		CODE           	16B4	0000	5
		_I2C1_MasterClose		CODE           	1681	0000	3
		_I2C1_MasterWrite		CODE           	16D7	0000	5
		_I2C1_Initialize		CODE           	171C	0000	9
		_I2C1_Close    		CODE           	08A1	0000	28
		_I2C1_MasterIsNack		CODE           	16E2	0000	6
		_I2C1_MasterStart		CODE           	1687	0000	3
		_I2C1_DO_SEND_ADR_WRITE		CODE           	170B	0000	8
		_I2C1_MasterClearIrq		CODE           	167E	0000	3
		_I2C1_SetDataCompleteCallback		CODE           	174F	0000	13
		_I2C1_DO_SEND_STOP		CODE           	16BE	0000	5
		_I2C1_MasterSendAck		CODE           	07FC	0000	4
		_I2C1_MasterFsm		CODE           	0939	0000	46
		_I2C1_MasterGetRxData		CODE           	1693	0000	3
		_I2C1_MasterSetIrq		CODE           	1696	0000	3
		_I2C1_DO_SEND_ADR_READ		CODE           	172E	0000	9
		_I2C1_DO_RX_NACK_STOP		CODE           	16C8	0000	5

mcc_generated_files/i2c1_master.c estimated size: 661

mcc_generated_files/tmr2.c
		_TMR2_Initialize		CODE           	1703	0000	8

mcc_generated_files/tmr2.c estimated size: 8

mcc_generated_files/interrupt_manager.c
		_INTERRUPT_InterruptManager		CODE           	0004	0000	17

mcc_generated_files/interrupt_manager.c estimated size: 17

C:\Program Files\Microchip\xc8\v2.36\pic\sources\c99\common\Umul32.c
		___lmul        		CODE           	09C5	0000	51

C:\Program Files\Microchip\xc8\v2.36\pic\sources\c99\common\Umul32.c estimated size: 51

mcc_generated_files/pin_manager.c
		_PIN_MANAGER_Initialize		CODE           	0A32	0000	59
		_IOCCF4_DefaultInterruptHandler		CODE           	1699	0000	4
		_IOCCF4_ISR    		CODE           	1791	0000	15
		_PIN_MANAGER_IOC		CODE           	1713	0000	9
		_IOCCF4_SetInterruptHandler		CODE           	16DC	0000	6

mcc_generated_files/pin_manager.c estimated size: 93

C:\Program Files\Microchip\xc8\v2.36\pic\sources\c99\common\__lldiv.c
		___lldiv       		CODE           	0DF4	0000	90

C:\Program Files\Microchip\xc8\v2.36\pic\sources\c99\common\__lldiv.c estimated size: 90

C:\Program Files\Microchip\xc8\v2.36\pic\sources\c99\common\lwdiv.c
		___lwdiv       		CODE           	0A6D	0000	60

C:\Program Files\Microchip\xc8\v2.36\pic\sources\c99\common\lwdiv.c estimated size: 60

shared
		_TimingGuard@vl53l1x$F2588		STRCODE        	0000	0000	0
		_TimingGuard   		STRCODE        	0000	0000	0
		_TimingGuard@vl53l1x$F2463		STRCODE        	0000	0000	0
		_TargetRate@vl53l1x$F2589		STRCODE        	0000	0000	0
		__initialization		CODE           	0017	0000	15
		_TargetRate    		STRCODE        	0000	0000	0
		_i2c1_fsmStateTable		STRCODE        	1000	0000	32
		_TargetRate@vl53l1x$F2464		STRCODE        	0000	0000	0

shared estimated size: 47

mcc_generated_files/pwm5.c
		_PWM5_LoadDutyValue		CODE           	0841	0000	22
		_PWM5_Initialize		CODE           	1737	0000	12

mcc_generated_files/pwm5.c estimated size: 34

mcc_generated_files/mcc.c
		_WDT_Initialize		CODE           	169D	0000	4
		_PMD_Initialize		CODE           	16FB	0000	8
		_OSCILLATOR_Initialize		CODE           	1725	0000	9
		_SYSTEM_Initialize		CODE           	086D	0000	25

mcc_generated_files/mcc.c estimated size: 46

motor_control.c
		_m_go_forward  		CODE           	1783	0000	14
		_get_distance_to_wall		CODE           	0AA9	0000	63
		_m_control_init		CODE           	17AF	0000	15

motor_control.c estimated size: 92

main.c
		_main          		CODE           	049E	0000	308

main.c estimated size: 308

vl53l1x.c
		_VL53L1X_getMeasurementTimingBudget		CODE           	0E4E	0000	96
		_VL53L1X_setMeasurementTimingBudget		CODE           	033D	0000	353
		_VL53L1X_setDistanceMode		CODE           	01D2	0000	363
		_VL53L1X_readResults		CODE           	0802	0000	19
		_VL53L1X_startContinuous		CODE           	090C	0000	45
		_VL53L1X_read  		CODE           	0748	0000	142
		_VL53L1X_init  		CODE           	002A	0000	424
		_VL53L1X_timeoutMicrosecondsToMclks		CODE           	0AE8	0000	68
		_VL53L1X_getRangingData		CODE           	0695	0000	179
		_VL53L1X_decodeTimeout		CODE           	0996	0000	47
		_VL53L1X_encodeTimeout		CODE           	0C03	0000	74
		_VL53L1X_timeoutMclksToMicroseconds		CODE           	0F89	0000	119
		_VL53L1X_setupManualCalibration		CODE           	0EAE	0000	101
		_VL53L1X_calcMacroPeriod		CODE           	0F13	0000	118

vl53l1x.c estimated size: 2148

C:\Program Files\Microchip\xc8\v2.36\pic\sources\c99\common\Umul64.c
		___omul        		CODE           	0C4D	0000	76

C:\Program Files\Microchip\xc8\v2.36\pic\sources\c99\common\Umul64.c estimated size: 76

